{"abi":[{"type":"constructor","inputs":[{"name":"pool","type":"address","internalType":"address"},{"name":"zeroForOne","type":"bool","internalType":"bool"},{"name":"currentTick","type":"int24","internalType":"int24"},{"name":"numTicks","type":"uint16","internalType":"uint16"},{"name":"tickSpacing","type":"int24","internalType":"int24"}],"stateMutability":"nonpayable"},{"type":"function","name":"tick_constructor","inputs":[{"name":"pool","type":"address","internalType":"address"},{"name":"zeroForOne","type":"bool","internalType":"bool"},{"name":"currentTick","type":"int24","internalType":"int24"},{"name":"numTicks","type":"uint16","internalType":"uint16"},{"name":"tickSpacing","type":"int24","internalType":"int24"}],"outputs":[{"name":"","type":"tuple[]","internalType":"struct GetUniswapV3TickDataBatchRequest.TickData[]","components":[{"name":"initialized","type":"bool","internalType":"bool"},{"name":"tick","type":"int24","internalType":"int24"},{"name":"liquidityNet","type":"int128","internalType":"int128"}]},{"name":"","type":"uint64","internalType":"uint64"}],"stateMutability":"view"}],"bytecode":{"object":"0x608060405234801561000f575f5ffd5b50604051610ff8380380610ff883398181016040528101906100319190610925565b5f5f610046878787878761007960201b60201c565b915091505f828260405160200161005e929190610adf565b60405160208183030381529060405290506020810180590381f35b60605f5f838560010b61008c9190610b3a565b90505f876100a55781876100a09190610b76565b6100b2565b81876100b19190610bd0565b5b90507ffffffffffffffffffffffffffffffffffffffffffffffffffffffffffff2761860020b8160020b1215610106577ffffffffffffffffffffffffffffffffffffffffffffffffffffffffffff2761890505b620d89e860020b8160020b131561011e57620d89e890505b5f60018660018a856101309190610b76565b61013a9190610bd0565b6101449190610c57565b60020b6101519190610cc8565b67ffffffffffffffff81111561016a57610169610cfb565b5b6040519080825280602002602001820160405280156101985781602001602082028036833780820191505090505b50905060605f5f90505f5f60088a8d6101b19190610c57565b60020b901d60088b886101c49190610c57565b60020b901d915091508c15610328575b8060010b8260010b13610323575f8e73ffffffffffffffffffffffffffffffffffffffff16635339c296846040518263ffffffff1660e01b815260040161021b9190610d43565b602060405180830381865afa158015610236573d5f5f3e3d5ffd5b505050506040513d601f19601f8201168201806040525081019061025a9190610d86565b90505b5f811461030f575f6102748261069560201b60201c565b90508060ff166001901b821891505f8c8260ff1660088760010b60020b901b1761029e9190610b3a565b90508e60020b8160020b121580156102bc57508860020b8160020b13155b156102f657808887806102ce90610db1565b9850815181106102e1576102e0610df8565b5b602002602001019060020b908160020b815250505b8d61ffff16860361030857505061030f565b505061025d565b50818061031b90610e25565b9250506101d4565b610479565b5b8060010b8260010b12610478575f8e73ffffffffffffffffffffffffffffffffffffffff16635339c296846040518263ffffffff1660e01b81526004016103709190610d43565b602060405180830381865afa15801561038b573d5f5f3e3d5ffd5b505050506040513d601f19601f820116820180604052508101906103af9190610d86565b90505b5f8114610464575f6103c98261069560201b60201c565b90508060ff166001901b821891505f8c8260ff1660088760010b60020b901b176103f39190610b3a565b90508860020b8160020b1215801561041157508e60020b8160020b13155b1561044b578088878061042390610db1565b98508151811061043657610435610df8565b5b602002602001019060020b908160020b815250505b8d61ffff16860361045d575050610464565b50506103b2565b50818061047090610e4e565b925050610329565b5b8267ffffffffffffffff81111561049357610492610cfb565b5b6040519080825280602002602001820160405280156104cc57816020015b6104b96107ff565b8152602001906001900390816104b15790505b5093505050505f5f90505b815181101561067f575f5f8d73ffffffffffffffffffffffffffffffffffffffff1663f30dba9386858151811061051157610510610df8565b5b60200260200101516040516024016105299190610ea4565b6040516020818303038152906040529060e01b6020820180517bffffffffffffffffffffffffffffffffffffffffffffffffffffffff83818316178352505050506040516105779190610f29565b5f60405180830381855afa9150503d805f81146105af576040519150601f19603f3d011682016040523d82523d5f602084013e6105b4565b606091505b5091509150816105c5575050610672565b5f602082016020810151915050808585815181106105e6576105e5610df8565b5b602002602001015160400190600f0b9081600f0b8152505085848151811061061157610610610df8565b5b602002602001015185858151811061062c5761062b610df8565b5b60200260200101516020019060020b908160020b81525050600185858151811061065957610658610df8565b5b60200260200101515f0190151590811515815250505050505b80806001019150506104d7565b5080815195509550505050509550959350505050565b5f5f82116106d8576040517f08c379a00000000000000000000000000000000000000000000000000000000081526004016106cf90610f99565b60405180910390fd5b600182196106e69190610cc8565b82169150700100000000000000000000000000000000821061071957608082901c91506080816107169190610fc3565b90505b68010000000000000000821061074057604082901c915060408161073d9190610fc3565b90505b640100000000821061076357602082901c91506020816107609190610fc3565b90505b62010000821061078457601082901c91506010816107819190610fc3565b90505b61010082106107a457600882901c91506008816107a19190610fc3565b90505b601082106107c357600482901c91506004816107c09190610fc3565b90505b600482106107e257600282901c91506002816107df9190610fc3565b90505b600282106107fa576001816107f79190610fc3565b90505b919050565b60405180606001604052805f151581526020015f60020b81526020015f600f0b81525090565b5f5ffd5b5f73ffffffffffffffffffffffffffffffffffffffff82169050919050565b5f61085282610829565b9050919050565b61086281610848565b811461086c575f5ffd5b50565b5f8151905061087d81610859565b92915050565b5f8115159050919050565b61089781610883565b81146108a1575f5ffd5b50565b5f815190506108b28161088e565b92915050565b5f8160020b9050919050565b6108cd816108b8565b81146108d7575f5ffd5b50565b5f815190506108e8816108c4565b92915050565b5f61ffff82169050919050565b610904816108ee565b811461090e575f5ffd5b50565b5f8151905061091f816108fb565b92915050565b5f5f5f5f5f60a0868803121561093e5761093d610825565b5b5f61094b8882890161086f565b955050602061095c888289016108a4565b945050604061096d888289016108da565b935050606061097e88828901610911565b925050608061098f888289016108da565b9150509295509295909350565b5f81519050919050565b5f82825260208201905092915050565b5f819050602082019050919050565b6109ce81610883565b82525050565b6109dd816108b8565b82525050565b5f81600f0b9050919050565b6109f8816109e3565b82525050565b606082015f820151610a125f8501826109c5565b506020820151610a2560208501826109d4565b506040820151610a3860408501826109ef565b50505050565b5f610a4983836109fe565b60608301905092915050565b5f602082019050919050565b5f610a6b8261099c565b610a7581856109a6565b9350610a80836109b6565b805f5b83811015610ab0578151610a978882610a3e565b9750610aa283610a55565b925050600181019050610a83565b5085935050505092915050565b5f67ffffffffffffffff82169050919050565b610ad981610abd565b82525050565b5f6040820190508181035f830152610af78185610a61565b9050610b066020830184610ad0565b9392505050565b7f4e487b71000000000000000000000000000000000000000000000000000000005f52601160045260245ffd5b5f610b44826108b8565b9150610b4f836108b8565b9250828202610b5d816108b8565b9150808214610b6f57610b6e610b0d565b5b5092915050565b5f610b80826108b8565b9150610b8b836108b8565b92508282039050627fffff81137fffffffffffffffffffffffffffffffffffffffffffffffffffffffffff80000082121715610bca57610bc9610b0d565b5b92915050565b5f610bda826108b8565b9150610be5836108b8565b925082820190507fffffffffffffffffffffffffffffffffffffffffffffffffffffffffff8000008112627fffff82131715610c2457610c23610b0d565b5b92915050565b7f4e487b71000000000000000000000000000000000000000000000000000000005f52601260045260245ffd5b5f610c61826108b8565b9150610c6c836108b8565b925082610c7c57610c7b610c2a565b5b60015f0383147fffffffffffffffffffffffffffffffffffffffffffffffffffffffffff80000083141615610cb457610cb3610b0d565b5b828205905092915050565b5f819050919050565b5f610cd282610cbf565b9150610cdd83610cbf565b9250828201905080821115610cf557610cf4610b0d565b5b92915050565b7f4e487b71000000000000000000000000000000000000000000000000000000005f52604160045260245ffd5b5f8160010b9050919050565b610d3d81610d28565b82525050565b5f602082019050610d565f830184610d34565b92915050565b610d6581610cbf565b8114610d6f575f5ffd5b50565b5f81519050610d8081610d5c565b92915050565b5f60208284031215610d9b57610d9a610825565b5b5f610da884828501610d72565b91505092915050565b5f610dbb82610cbf565b91507fffffffffffffffffffffffffffffffffffffffffffffffffffffffffffffffff8203610ded57610dec610b0d565b5b600182019050919050565b7f4e487b71000000000000000000000000000000000000000000000000000000005f52603260045260245ffd5b5f610e2f82610d28565b9150617fff8203610e4357610e42610b0d565b5b600182019050919050565b5f610e5882610d28565b91507fffffffffffffffffffffffffffffffffffffffffffffffffffffffffffff80008203610e8a57610e89610b0d565b5b600182039050919050565b610e9e816108b8565b82525050565b5f602082019050610eb75f830184610e95565b92915050565b5f81519050919050565b5f81905092915050565b5f5b83811015610eee578082015181840152602081019050610ed3565b5f8484015250505050565b5f610f0382610ebd565b610f0d8185610ec7565b9350610f1d818560208601610ed1565b80840191505092915050565b5f610f348284610ef9565b915081905092915050565b5f82825260208201905092915050565b7f78206973203000000000000000000000000000000000000000000000000000005f82015250565b5f610f83600683610f3f565b9150610f8e82610f4f565b602082019050919050565b5f6020820190508181035f830152610fb081610f77565b9050919050565b5f60ff82169050919050565b5f610fcd82610fb7565b9150610fd883610fb7565b9250828201905060ff811115610ff157610ff0610b0d565b5b9291505056fe","linkReferences":{}},"deployedBytecode":{"object":"0x608060405234801561000f575f5ffd5b5060043610610029575f3560e01c8063c5314b8c1461002d575b5f5ffd5b610047600480360381019061004291906108fe565b61005e565b604051610055929190610ab8565b60405180910390f35b60605f5f838560010b6100719190610b13565b90505f8761008a5781876100859190610b4f565b610097565b81876100969190610ba9565b5b90507ffffffffffffffffffffffffffffffffffffffffffffffffffffffffffff2761860020b8160020b12156100eb577ffffffffffffffffffffffffffffffffffffffffffffffffffffffffffff2761890505b620d89e860020b8160020b131561010357620d89e890505b5f60018660018a856101159190610b4f565b61011f9190610ba9565b6101299190610c30565b60020b6101369190610ca1565b67ffffffffffffffff81111561014f5761014e610cd4565b5b60405190808252806020026020018201604052801561017d5781602001602082028036833780820191505090505b50905060605f5f90505f5f60088a8d6101969190610c30565b60020b901d60088b886101a99190610c30565b60020b901d915091508c15610307575b8060010b8260010b13610302575f8e73ffffffffffffffffffffffffffffffffffffffff16635339c296846040518263ffffffff1660e01b81526004016102009190610d1c565b602060405180830381865afa15801561021b573d5f5f3e3d5ffd5b505050506040513d601f19601f8201168201806040525081019061023f9190610d5f565b90505b5f81146102ee575f6102538261066e565b90508060ff166001901b821891505f8c8260ff1660088760010b60020b901b1761027d9190610b13565b90508e60020b8160020b1215801561029b57508860020b8160020b13155b156102d557808887806102ad90610d8a565b9850815181106102c0576102bf610dd1565b5b602002602001019060020b908160020b815250505b8d61ffff1686036102e75750506102ee565b5050610242565b5081806102fa90610dfe565b9250506101b9565b610452565b5b8060010b8260010b12610451575f8e73ffffffffffffffffffffffffffffffffffffffff16635339c296846040518263ffffffff1660e01b815260040161034f9190610d1c565b602060405180830381865afa15801561036a573d5f5f3e3d5ffd5b505050506040513d601f19601f8201168201806040525081019061038e9190610d5f565b90505b5f811461043d575f6103a28261066e565b90508060ff166001901b821891505f8c8260ff1660088760010b60020b901b176103cc9190610b13565b90508860020b8160020b121580156103ea57508e60020b8160020b13155b1561042457808887806103fc90610d8a565b98508151811061040f5761040e610dd1565b5b602002602001019060020b908160020b815250505b8d61ffff16860361043657505061043d565b5050610391565b50818061044990610e27565b925050610308565b5b8267ffffffffffffffff81111561046c5761046b610cd4565b5b6040519080825280602002602001820160405280156104a557816020015b6104926107d8565b81526020019060019003908161048a5790505b5093505050505f5f90505b8151811015610658575f5f8d73ffffffffffffffffffffffffffffffffffffffff1663f30dba938685815181106104ea576104e9610dd1565b5b60200260200101516040516024016105029190610e7d565b6040516020818303038152906040529060e01b6020820180517bffffffffffffffffffffffffffffffffffffffffffffffffffffffff83818316178352505050506040516105509190610f02565b5f60405180830381855afa9150503d805f8114610588576040519150601f19603f3d011682016040523d82523d5f602084013e61058d565b606091505b50915091508161059e57505061064b565b5f602082016020810151915050808585815181106105bf576105be610dd1565b5b602002602001015160400190600f0b9081600f0b815250508584815181106105ea576105e9610dd1565b5b602002602001015185858151811061060557610604610dd1565b5b60200260200101516020019060020b908160020b81525050600185858151811061063257610631610dd1565b5b60200260200101515f0190151590811515815250505050505b80806001019150506104b0565b5080815195509550505050509550959350505050565b5f5f82116106b1576040517f08c379a00000000000000000000000000000000000000000000000000000000081526004016106a890610f72565b60405180910390fd5b600182196106bf9190610ca1565b8216915070010000000000000000000000000000000082106106f257608082901c91506080816106ef9190610f9c565b90505b68010000000000000000821061071957604082901c91506040816107169190610f9c565b90505b640100000000821061073c57602082901c91506020816107399190610f9c565b90505b62010000821061075d57601082901c915060108161075a9190610f9c565b90505b610100821061077d57600882901c915060088161077a9190610f9c565b90505b6010821061079c57600482901c91506004816107999190610f9c565b90505b600482106107bb57600282901c91506002816107b89190610f9c565b90505b600282106107d3576001816107d09190610f9c565b90505b919050565b60405180606001604052805f151581526020015f60020b81526020015f600f0b81525090565b5f5ffd5b5f73ffffffffffffffffffffffffffffffffffffffff82169050919050565b5f61082b82610802565b9050919050565b61083b81610821565b8114610845575f5ffd5b50565b5f8135905061085681610832565b92915050565b5f8115159050919050565b6108708161085c565b811461087a575f5ffd5b50565b5f8135905061088b81610867565b92915050565b5f8160020b9050919050565b6108a681610891565b81146108b0575f5ffd5b50565b5f813590506108c18161089d565b92915050565b5f61ffff82169050919050565b6108dd816108c7565b81146108e7575f5ffd5b50565b5f813590506108f8816108d4565b92915050565b5f5f5f5f5f60a08688031215610917576109166107fe565b5b5f61092488828901610848565b95505060206109358882890161087d565b9450506040610946888289016108b3565b9350506060610957888289016108ea565b9250506080610968888289016108b3565b9150509295509295909350565b5f81519050919050565b5f82825260208201905092915050565b5f819050602082019050919050565b6109a78161085c565b82525050565b6109b681610891565b82525050565b5f81600f0b9050919050565b6109d1816109bc565b82525050565b606082015f8201516109eb5f85018261099e565b5060208201516109fe60208501826109ad565b506040820151610a1160408501826109c8565b50505050565b5f610a2283836109d7565b60608301905092915050565b5f602082019050919050565b5f610a4482610975565b610a4e818561097f565b9350610a598361098f565b805f5b83811015610a89578151610a708882610a17565b9750610a7b83610a2e565b925050600181019050610a5c565b5085935050505092915050565b5f67ffffffffffffffff82169050919050565b610ab281610a96565b82525050565b5f6040820190508181035f830152610ad08185610a3a565b9050610adf6020830184610aa9565b9392505050565b7f4e487b71000000000000000000000000000000000000000000000000000000005f52601160045260245ffd5b5f610b1d82610891565b9150610b2883610891565b9250828202610b3681610891565b9150808214610b4857610b47610ae6565b5b5092915050565b5f610b5982610891565b9150610b6483610891565b92508282039050627fffff81137fffffffffffffffffffffffffffffffffffffffffffffffffffffffffff80000082121715610ba357610ba2610ae6565b5b92915050565b5f610bb382610891565b9150610bbe83610891565b925082820190507fffffffffffffffffffffffffffffffffffffffffffffffffffffffffff8000008112627fffff82131715610bfd57610bfc610ae6565b5b92915050565b7f4e487b71000000000000000000000000000000000000000000000000000000005f52601260045260245ffd5b5f610c3a82610891565b9150610c4583610891565b925082610c5557610c54610c03565b5b60015f0383147fffffffffffffffffffffffffffffffffffffffffffffffffffffffffff80000083141615610c8d57610c8c610ae6565b5b828205905092915050565b5f819050919050565b5f610cab82610c98565b9150610cb683610c98565b9250828201905080821115610cce57610ccd610ae6565b5b92915050565b7f4e487b71000000000000000000000000000000000000000000000000000000005f52604160045260245ffd5b5f8160010b9050919050565b610d1681610d01565b82525050565b5f602082019050610d2f5f830184610d0d565b92915050565b610d3e81610c98565b8114610d48575f5ffd5b50565b5f81519050610d5981610d35565b92915050565b5f60208284031215610d7457610d736107fe565b5b5f610d8184828501610d4b565b91505092915050565b5f610d9482610c98565b91507fffffffffffffffffffffffffffffffffffffffffffffffffffffffffffffffff8203610dc657610dc5610ae6565b5b600182019050919050565b7f4e487b71000000000000000000000000000000000000000000000000000000005f52603260045260245ffd5b5f610e0882610d01565b9150617fff8203610e1c57610e1b610ae6565b5b600182019050919050565b5f610e3182610d01565b91507fffffffffffffffffffffffffffffffffffffffffffffffffffffffffffff80008203610e6357610e62610ae6565b5b600182039050919050565b610e7781610891565b82525050565b5f602082019050610e905f830184610e6e565b92915050565b5f81519050919050565b5f81905092915050565b5f5b83811015610ec7578082015181840152602081019050610eac565b5f8484015250505050565b5f610edc82610e96565b610ee68185610ea0565b9350610ef6818560208601610eaa565b80840191505092915050565b5f610f0d8284610ed2565b915081905092915050565b5f82825260208201905092915050565b7f78206973203000000000000000000000000000000000000000000000000000005f82015250565b5f610f5c600683610f18565b9150610f6782610f28565b602082019050919050565b5f6020820190508181035f830152610f8981610f50565b9050919050565b5f60ff82169050919050565b5f610fa682610f90565b9150610fb183610f90565b9250828201905060ff811115610fca57610fc9610ae6565b5b9291505056fea164736f6c634300081d000a","linkReferences":{}},"methodIdentifiers":{"tick_constructor(address,bool,int24,uint16,int24)":"c5314b8c"},"id":22}