{
  "_format": "hh-sol-artifact-1",
  "contractName": "GetUniswapV3TickDataBatchRequest",
  "sourceName": "contracts/GetUniswapV3TickDataBatchRequest.sol",
  "abi": [
    {
      "inputs": [
        {
          "internalType": "address",
          "name": "pool",
          "type": "address"
        },
        {
          "internalType": "bool",
          "name": "zeroForOne",
          "type": "bool"
        },
        {
          "internalType": "int24",
          "name": "currentTick",
          "type": "int24"
        },
        {
          "internalType": "uint16",
          "name": "numTicks",
          "type": "uint16"
        },
        {
          "internalType": "int24",
          "name": "tickSpacing",
          "type": "int24"
        }
      ],
      "stateMutability": "nonpayable",
      "type": "constructor"
    },
    {
      "inputs": [
        {
          "internalType": "address",
          "name": "pool",
          "type": "address"
        },
        {
          "internalType": "bool",
          "name": "zeroForOne",
          "type": "bool"
        },
        {
          "internalType": "int24",
          "name": "currentTick",
          "type": "int24"
        },
        {
          "internalType": "uint16",
          "name": "numTicks",
          "type": "uint16"
        },
        {
          "internalType": "int24",
          "name": "tickSpacing",
          "type": "int24"
        }
      ],
      "name": "tick_constructor",
      "outputs": [
        {
          "components": [
            {
              "internalType": "bool",
              "name": "initialized",
              "type": "bool"
            },
            {
              "internalType": "int24",
              "name": "tick",
              "type": "int24"
            },
            {
              "internalType": "int128",
              "name": "liquidityNet",
              "type": "int128"
            }
          ],
          "internalType": "struct GetUniswapV3TickDataBatchRequest.TickData[]",
          "name": "",
          "type": "tuple[]"
        },
        {
          "internalType": "uint64",
          "name": "",
          "type": "uint64"
        }
      ],
      "stateMutability": "view",
      "type": "function"
    }
  ],
  "bytecode": "0x60806040523480156200001157600080fd5b50604051620011c6380380620011c68339818101604052810190620000379190620009fb565b6000806200004f87878787876200008560201b60201c565b91509150600082826040516020016200006a92919062000bed565b60405160208183030381529060405290506020810180590381f35b6060600080838560010b6200009b919062000c50565b9050600087620000b9578187620000b3919062000c96565b620000c8565b8187620000c7919062000cf8565b5b90507ffffffffffffffffffffffffffffffffffffffffffffffffffffffffffff2761860020b8160020b12156200011d577ffffffffffffffffffffffffffffffffffffffffffffffffffffffffffff2761890505b620d89e860020b8160020b13156200013657620d89e890505b600060018660018a856200014b919062000c96565b62000157919062000cf8565b62000163919062000d89565b60020b62000172919062000e07565b67ffffffffffffffff8111156200018e576200018d62000e42565b5b604051908082528060200260200182016040528015620001bd5781602001602082028036833780820191505090505b50905060606000808060088a8d620001d6919062000d89565b60020b901d60088b88620001eb919062000d89565b60020b901d915091508c156200036f575b8060010b8260010b13620003695760008e73ffffffffffffffffffffffffffffffffffffffff16635e2cd6ad846040518263ffffffff1660e01b815260040162000247919062000ec1565b602060405180830381865afa15801562000265573d6000803e3d6000fd5b505050506040513d601f19601f820116820180604052508101906200028b919062000f0f565b90505b6000811462000352576000620002aa826200072660201b60201c565b90508060ff166001901b8218915060008c8260ff1660088760010b60020b901b17620002d7919062000c50565b90508e60020b8160020b12158015620002f657508860020b8160020b13155b156200033657808887806200030b9062000f41565b98508151811062000321576200032062000f8e565b5b602002602001019060020b908160020b815250505b8d61ffff1686036200034a57505062000352565b50506200028e565b508180620003609062000fbd565b925050620001fc565b620004de565b5b8060010b8260010b12620004dd5760008e73ffffffffffffffffffffffffffffffffffffffff16635e2cd6ad846040518263ffffffff1660e01b8152600401620003bb919062000ec1565b602060405180830381865afa158015620003d9573d6000803e3d6000fd5b505050506040513d601f19601f82011682018060405250810190620003ff919062000f0f565b90505b60008114620004c65760006200041e826200072660201b60201c565b90508060ff166001901b8218915060008c8260ff1660088760010b60020b901b176200044b919062000c50565b90508860020b8160020b121580156200046a57508e60020b8160020b13155b15620004aa57808887806200047f9062000f41565b98508151811062000495576200049462000f8e565b5b602002602001019060020b908160020b815250505b8d61ffff168603620004be575050620004c6565b505062000402565b508180620004d49062000fec565b92505062000370565b5b8267ffffffffffffffff811115620004fb57620004fa62000e42565b5b6040519080825280602002602001820160405280156200053857816020015b62000524620008ae565b8152602001906001900390816200051a5790505b50935050505060005b815181101562000710576000808d73ffffffffffffffffffffffffffffffffffffffff1663f30dba9386858151811062000580576200057f62000f8e565b5b60200260200101516040516024016200059a91906200104a565b6040516020818303038152906040529060e01b6020820180517bffffffffffffffffffffffffffffffffffffffffffffffffffffffff8381831617835250505050604051620005ea9190620010e0565b600060405180830381855afa9150503d806000811462000627576040519150601f19603f3d011682016040523d82523d6000602084013e6200062c565b606091505b5091509150816200063f575050620006fa565b60006020820160208101519150508085858151811062000664576200066362000f8e565b5b602002602001015160400190600f0b9081600f0b8152505085848151811062000692576200069162000f8e565b5b6020026020010151858581518110620006b057620006af62000f8e565b5b60200260200101516020019060020b908160020b815250506001858581518110620006e057620006df62000f8e565b5b602002602001015160000190151590811515815250505050505b8080620007079062000f41565b91505062000541565b5080815195509550505050509550959350505050565b60008082116200076d576040517f08c379a000000000000000000000000000000000000000000000000000000000815260040162000764906200115a565b60405180910390fd5b600182196200077d919062000e07565b821691507001000000000000000000000000000000008210620007b357608082901c9150608081620007b0919062001189565b90505b680100000000000000008210620007dd57604082901c9150604081620007da919062001189565b90505b64010000000082106200080357602082901c915060208162000800919062001189565b90505b6201000082106200082757601082901c915060108162000824919062001189565b90505b61010082106200084a57600882901c915060088162000847919062001189565b90505b601082106200086c57600482901c915060048162000869919062001189565b90505b600482106200088e57600282901c91506002816200088b919062001189565b90505b60028210620008a957600181620008a6919062001189565b90505b919050565b6040518060600160405280600015158152602001600060020b81526020016000600f0b81525090565b600080fd5b600073ffffffffffffffffffffffffffffffffffffffff82169050919050565b60006200090982620008dc565b9050919050565b6200091b81620008fc565b81146200092757600080fd5b50565b6000815190506200093b8162000910565b92915050565b60008115159050919050565b620009588162000941565b81146200096457600080fd5b50565b60008151905062000978816200094d565b92915050565b60008160020b9050919050565b62000996816200097e565b8114620009a257600080fd5b50565b600081519050620009b6816200098b565b92915050565b600061ffff82169050919050565b620009d581620009bc565b8114620009e157600080fd5b50565b600081519050620009f581620009ca565b92915050565b600080600080600060a0868803121562000a1a5762000a19620008d7565b5b600062000a2a888289016200092a565b955050602062000a3d8882890162000967565b945050604062000a5088828901620009a5565b935050606062000a6388828901620009e4565b925050608062000a7688828901620009a5565b9150509295509295909350565b600081519050919050565b600082825260208201905092915050565b6000819050602082019050919050565b62000aba8162000941565b82525050565b62000acb816200097e565b82525050565b600081600f0b9050919050565b62000ae98162000ad1565b82525050565b60608201600082015162000b07600085018262000aaf565b50602082015162000b1c602085018262000ac0565b50604082015162000b31604085018262000ade565b50505050565b600062000b45838362000aef565b60608301905092915050565b6000602082019050919050565b600062000b6b8262000a83565b62000b77818562000a8e565b935062000b848362000a9f565b8060005b8381101562000bbb57815162000b9f888262000b37565b975062000bac8362000b51565b92505060018101905062000b88565b5085935050505092915050565b600067ffffffffffffffff82169050919050565b62000be78162000bc8565b82525050565b6000604082019050818103600083015262000c09818562000b5e565b905062000c1a602083018462000bdc565b9392505050565b7f4e487b7100000000000000000000000000000000000000000000000000000000600052601160045260246000fd5b600062000c5d826200097e565b915062000c6a836200097e565b925082820262000c7a816200097e565b915080821462000c8f5762000c8e62000c21565b5b5092915050565b600062000ca3826200097e565b915062000cb0836200097e565b92508282039050627fffff81137fffffffffffffffffffffffffffffffffffffffffffffffffffffffffff8000008212171562000cf25762000cf162000c21565b5b92915050565b600062000d05826200097e565b915062000d12836200097e565b925082820190507fffffffffffffffffffffffffffffffffffffffffffffffffffffffffff8000008112627fffff8213171562000d545762000d5362000c21565b5b92915050565b7f4e487b7100000000000000000000000000000000000000000000000000000000600052601260045260246000fd5b600062000d96826200097e565b915062000da3836200097e565b92508262000db65762000db562000d5a565b5b600160000383147fffffffffffffffffffffffffffffffffffffffffffffffffffffffffff8000008314161562000df25762000df162000c21565b5b828205905092915050565b6000819050919050565b600062000e148262000dfd565b915062000e218362000dfd565b925082820190508082111562000e3c5762000e3b62000c21565b5b92915050565b7f4e487b7100000000000000000000000000000000000000000000000000000000600052604160045260246000fd5b60008160010b9050919050565b6000819050919050565b600062000ea962000ea362000e9d8462000e71565b62000e7e565b6200097e565b9050919050565b62000ebb8162000e88565b82525050565b600060208201905062000ed8600083018462000eb0565b92915050565b62000ee98162000dfd565b811462000ef557600080fd5b50565b60008151905062000f098162000ede565b92915050565b60006020828403121562000f285762000f27620008d7565b5b600062000f388482850162000ef8565b91505092915050565b600062000f4e8262000dfd565b91507fffffffffffffffffffffffffffffffffffffffffffffffffffffffffffffffff820362000f835762000f8262000c21565b5b600182019050919050565b7f4e487b7100000000000000000000000000000000000000000000000000000000600052603260045260246000fd5b600062000fca8262000e71565b9150617fff820362000fe15762000fe062000c21565b5b600182019050919050565b600062000ff98262000e71565b91507fffffffffffffffffffffffffffffffffffffffffffffffffffffffffffff800082036200102e576200102d62000c21565b5b600182039050919050565b62001044816200097e565b82525050565b600060208201905062001061600083018462001039565b92915050565b600081519050919050565b600081905092915050565b60005b838110156200109d57808201518184015260208101905062001080565b60008484015250505050565b6000620010b68262001067565b620010c2818562001072565b9350620010d48185602086016200107d565b80840191505092915050565b6000620010ee8284620010a9565b915081905092915050565b600082825260208201905092915050565b7f7820697320300000000000000000000000000000000000000000000000000000600082015250565b600062001142600683620010f9565b91506200114f826200110a565b602082019050919050565b60006020820190508181036000830152620011758162001133565b9050919050565b600060ff82169050919050565b600062001196826200117c565b9150620011a3836200117c565b9250828201905060ff811115620011bf57620011be62000c21565b5b9291505056fe",
  "deployedBytecode": "0x608060405234801561001057600080fd5b506004361061002b5760003560e01c8063c5314b8c14610030575b600080fd5b61004a6004803603810190610045919061092a565b610061565b604051610058929190610af3565b60405180910390f35b6060600080838560010b6100759190610b52565b905060008761008f57818761008a9190610b8f565b61009c565b818761009b9190610bea565b5b90507ffffffffffffffffffffffffffffffffffffffffffffffffffffffffffff2761860020b8160020b12156100f0577ffffffffffffffffffffffffffffffffffffffffffffffffffffffffffff2761890505b620d89e860020b8160020b131561010857620d89e890505b600060018660018a8561011b9190610b8f565b6101259190610bea565b61012f9190610c74565b60020b61013c9190610ce8565b67ffffffffffffffff81111561015557610154610d1c565b5b6040519080825280602002602001820160405280156101835781602001602082028036833780820191505090505b50905060606000808060088a8d61019a9190610c74565b60020b901d60088b886101ad9190610c74565b60020b901d915091508c15610311575b8060010b8260010b1361030c5760008e73ffffffffffffffffffffffffffffffffffffffff16635e2cd6ad846040518263ffffffff1660e01b81526004016102059190610d93565b602060405180830381865afa158015610222573d6000803e3d6000fd5b505050506040513d601f19601f820116820180604052508101906102469190610dda565b90505b600081146102f857600061025c82610688565b90508060ff166001901b8218915060008c8260ff1660088760010b60020b901b176102879190610b52565b90508e60020b8160020b121580156102a557508860020b8160020b13155b156102df57808887806102b790610e07565b9850815181106102ca576102c9610e4f565b5b602002602001019060020b908160020b815250505b8d61ffff1686036102f15750506102f8565b5050610249565b50818061030490610e7e565b9250506101bd565b610462565b5b8060010b8260010b126104615760008e73ffffffffffffffffffffffffffffffffffffffff16635e2cd6ad846040518263ffffffff1660e01b815260040161035a9190610d93565b602060405180830381865afa158015610377573d6000803e3d6000fd5b505050506040513d601f19601f8201168201806040525081019061039b9190610dda565b90505b6000811461044d5760006103b182610688565b90508060ff166001901b8218915060008c8260ff1660088760010b60020b901b176103dc9190610b52565b90508860020b8160020b121580156103fa57508e60020b8160020b13155b15610434578088878061040c90610e07565b98508151811061041f5761041e610e4f565b5b602002602001019060020b908160020b815250505b8d61ffff16860361044657505061044d565b505061039e565b50818061045990610ea8565b925050610312565b5b8267ffffffffffffffff81111561047c5761047b610d1c565b5b6040519080825280602002602001820160405280156104b557816020015b6104a26107f3565b81526020019060019003908161049a5790505b50935050505060005b8151811015610672576000808d73ffffffffffffffffffffffffffffffffffffffff1663f30dba938685815181106104f9576104f8610e4f565b5b60200260200101516040516024016105119190610eff565b6040516020818303038152906040529060e01b6020820180517bffffffffffffffffffffffffffffffffffffffffffffffffffffffff838183161783525050505060405161055f9190610f8b565b600060405180830381855afa9150503d806000811461059a576040519150601f19603f3d011682016040523d82523d6000602084013e61059f565b606091505b5091509150816105b057505061065f565b6000602082016020810151915050808585815181106105d2576105d1610e4f565b5b602002602001015160400190600f0b9081600f0b815250508584815181106105fd576105fc610e4f565b5b602002602001015185858151811061061857610617610e4f565b5b60200260200101516020019060020b908160020b81525050600185858151811061064557610644610e4f565b5b602002602001015160000190151590811515815250505050505b808061066a90610e07565b9150506104be565b5080815195509550505050509550959350505050565b60008082116106cc576040517f08c379a00000000000000000000000000000000000000000000000000000000081526004016106c390610fff565b60405180910390fd5b600182196106da9190610ce8565b82169150700100000000000000000000000000000000821061070d57608082901c915060808161070a919061102c565b90505b68010000000000000000821061073457604082901c9150604081610731919061102c565b90505b640100000000821061075757602082901c9150602081610754919061102c565b90505b62010000821061077857601082901c9150601081610775919061102c565b90505b610100821061079857600882901c9150600881610795919061102c565b90505b601082106107b757600482901c91506004816107b4919061102c565b90505b600482106107d657600282901c91506002816107d3919061102c565b90505b600282106107ee576001816107eb919061102c565b90505b919050565b6040518060600160405280600015158152602001600060020b81526020016000600f0b81525090565b600080fd5b600073ffffffffffffffffffffffffffffffffffffffff82169050919050565b600061084c82610821565b9050919050565b61085c81610841565b811461086757600080fd5b50565b60008135905061087981610853565b92915050565b60008115159050919050565b6108948161087f565b811461089f57600080fd5b50565b6000813590506108b18161088b565b92915050565b60008160020b9050919050565b6108cd816108b7565b81146108d857600080fd5b50565b6000813590506108ea816108c4565b92915050565b600061ffff82169050919050565b610907816108f0565b811461091257600080fd5b50565b600081359050610924816108fe565b92915050565b600080600080600060a086880312156109465761094561081c565b5b60006109548882890161086a565b9550506020610965888289016108a2565b9450506040610976888289016108db565b935050606061098788828901610915565b9250506080610998888289016108db565b9150509295509295909350565b600081519050919050565b600082825260208201905092915050565b6000819050602082019050919050565b6109da8161087f565b82525050565b6109e9816108b7565b82525050565b600081600f0b9050919050565b610a05816109ef565b82525050565b606082016000820151610a2160008501826109d1565b506020820151610a3460208501826109e0565b506040820151610a4760408501826109fc565b50505050565b6000610a598383610a0b565b60608301905092915050565b6000602082019050919050565b6000610a7d826109a5565b610a8781856109b0565b9350610a92836109c1565b8060005b83811015610ac3578151610aaa8882610a4d565b9750610ab583610a65565b925050600181019050610a96565b5085935050505092915050565b600067ffffffffffffffff82169050919050565b610aed81610ad0565b82525050565b60006040820190508181036000830152610b0d8185610a72565b9050610b1c6020830184610ae4565b9392505050565b7f4e487b7100000000000000000000000000000000000000000000000000000000600052601160045260246000fd5b6000610b5d826108b7565b9150610b68836108b7565b9250828202610b76816108b7565b9150808214610b8857610b87610b23565b5b5092915050565b6000610b9a826108b7565b9150610ba5836108b7565b92508282039050627fffff81137fffffffffffffffffffffffffffffffffffffffffffffffffffffffffff80000082121715610be457610be3610b23565b5b92915050565b6000610bf5826108b7565b9150610c00836108b7565b925082820190507fffffffffffffffffffffffffffffffffffffffffffffffffffffffffff8000008112627fffff82131715610c3f57610c3e610b23565b5b92915050565b7f4e487b7100000000000000000000000000000000000000000000000000000000600052601260045260246000fd5b6000610c7f826108b7565b9150610c8a836108b7565b925082610c9a57610c99610c45565b5b600160000383147fffffffffffffffffffffffffffffffffffffffffffffffffffffffffff80000083141615610cd357610cd2610b23565b5b828205905092915050565b6000819050919050565b6000610cf382610cde565b9150610cfe83610cde565b9250828201905080821115610d1657610d15610b23565b5b92915050565b7f4e487b7100000000000000000000000000000000000000000000000000000000600052604160045260246000fd5b60008160010b9050919050565b6000819050919050565b6000610d7d610d78610d7384610d4b565b610d58565b6108b7565b9050919050565b610d8d81610d62565b82525050565b6000602082019050610da86000830184610d84565b92915050565b610db781610cde565b8114610dc257600080fd5b50565b600081519050610dd481610dae565b92915050565b600060208284031215610df057610def61081c565b5b6000610dfe84828501610dc5565b91505092915050565b6000610e1282610cde565b91507fffffffffffffffffffffffffffffffffffffffffffffffffffffffffffffffff8203610e4457610e43610b23565b5b600182019050919050565b7f4e487b7100000000000000000000000000000000000000000000000000000000600052603260045260246000fd5b6000610e8982610d4b565b9150617fff8203610e9d57610e9c610b23565b5b600182019050919050565b6000610eb382610d4b565b91507fffffffffffffffffffffffffffffffffffffffffffffffffffffffffffff80008203610ee557610ee4610b23565b5b600182039050919050565b610ef9816108b7565b82525050565b6000602082019050610f146000830184610ef0565b92915050565b600081519050919050565b600081905092915050565b60005b83811015610f4e578082015181840152602081019050610f33565b60008484015250505050565b6000610f6582610f1a565b610f6f8185610f25565b9350610f7f818560208601610f30565b80840191505092915050565b6000610f978284610f5a565b915081905092915050565b600082825260208201905092915050565b7f7820697320300000000000000000000000000000000000000000000000000000600082015250565b6000610fe9600683610fa2565b9150610ff482610fb3565b602082019050919050565b6000602082019050818103600083015261101881610fdc565b9050919050565b600060ff82169050919050565b60006110378261101f565b91506110428361101f565b9250828201905060ff81111561105b5761105a610b23565b5b9291505056fea164736f6c6343000813000a",
  "linkReferences": {},
  "deployedLinkReferences": {}
}