{
  "_format": "hh-sol-artifact-1",
  "contractName": "GetUniswapV3PoolDataBatchRequest",
  "sourceName": "contracts/GetUniswapV3PoolDataBatchRequest.sol",
  "abi": [
    {
      "inputs": [
        {
          "internalType": "address[]",
          "name": "pools",
          "type": "address[]"
        }
      ],
      "stateMutability": "nonpayable",
      "type": "constructor"
    },
    {
      "inputs": [
        {
          "internalType": "address[]",
          "name": "pools",
          "type": "address[]"
        }
      ],
      "name": "data_constructor",
      "outputs": [
        {
          "components": [
            {
              "internalType": "address",
              "name": "tokenA",
              "type": "address"
            },
            {
              "internalType": "uint8",
              "name": "tokenADecimals",
              "type": "uint8"
            },
            {
              "internalType": "address",
              "name": "tokenB",
              "type": "address"
            },
            {
              "internalType": "uint8",
              "name": "tokenBDecimals",
              "type": "uint8"
            },
            {
              "internalType": "uint128",
              "name": "liquidity",
              "type": "uint128"
            },
            {
              "internalType": "uint160",
              "name": "sqrtPrice",
              "type": "uint160"
            },
            {
              "internalType": "int24",
              "name": "tick",
              "type": "int24"
            },
            {
              "internalType": "int24",
              "name": "tickSpacing",
              "type": "int24"
            },
            {
              "internalType": "uint24",
              "name": "fee",
              "type": "uint24"
            },
            {
              "internalType": "int128",
              "name": "liquidityNet",
              "type": "int128"
            }
          ],
          "internalType": "struct GetUniswapV3PoolDataBatchRequest.PoolData[]",
          "name": "",
          "type": "tuple[]"
        }
      ],
      "stateMutability": "view",
      "type": "function"
    }
  ],
  "bytecode": "0x60806040523480156200001157600080fd5b50604051620012e8380380620012e8833981810160405281019062000037919062000cd8565b60006200004a826200007c60201b60201c565b905060008160405160200162000061919062000f90565b60405160208183030381529060405290506020810180590381f35b60606000825167ffffffffffffffff8111156200009e576200009d62000b14565b5b604051908082528060200260200182016040528015620000db57816020015b620000c762000a2f565b815260200190600190039081620000bd5790505b50905060005b835181101562000a2557600084828151811062000103576200010262000fb4565b5b602002602001015190508073ffffffffffffffffffffffffffffffffffffffff16630dfe16816040518163ffffffff1660e01b8152600401602060405180830381865afa15801562000159573d6000803e3d6000fd5b505050506040513d601f19601f820116820180604052508101906200017f919062000fe3565b83838151811062000195576200019462000fb4565b5b60200260200101516000019073ffffffffffffffffffffffffffffffffffffffff16908173ffffffffffffffffffffffffffffffffffffffff16815250508073ffffffffffffffffffffffffffffffffffffffff16630dfe16816040518163ffffffff1660e01b8152600401602060405180830381865afa1580156200021f573d6000803e3d6000fd5b505050506040513d601f19601f8201168201806040525081019062000245919062000fe3565b73ffffffffffffffffffffffffffffffffffffffff1663313ce5676040518163ffffffff1660e01b8152600401602060405180830381865afa15801562000290573d6000803e3d6000fd5b505050506040513d601f19601f82011682018060405250810190620002b6919062001046565b838381518110620002cc57620002cb62000fb4565b5b60200260200101516020019060ff16908160ff16815250508073ffffffffffffffffffffffffffffffffffffffff1663d21220a76040518163ffffffff1660e01b8152600401602060405180830381865afa15801562000330573d6000803e3d6000fd5b505050506040513d601f19601f8201168201806040525081019062000356919062000fe3565b8383815181106200036c576200036b62000fb4565b5b60200260200101516040019073ffffffffffffffffffffffffffffffffffffffff16908173ffffffffffffffffffffffffffffffffffffffff16815250508073ffffffffffffffffffffffffffffffffffffffff1663d21220a76040518163ffffffff1660e01b8152600401602060405180830381865afa158015620003f6573d6000803e3d6000fd5b505050506040513d601f19601f820116820180604052508101906200041c919062000fe3565b73ffffffffffffffffffffffffffffffffffffffff1663313ce5676040518163ffffffff1660e01b8152600401602060405180830381865afa15801562000467573d6000803e3d6000fd5b505050506040513d601f19601f820116820180604052508101906200048d919062001046565b838381518110620004a357620004a262000fb4565b5b60200260200101516060019060ff16908160ff16815250508073ffffffffffffffffffffffffffffffffffffffff16631a6865026040518163ffffffff1660e01b8152600401602060405180830381865afa15801562000507573d6000803e3d6000fd5b505050506040513d601f19601f820116820180604052508101906200052d9190620010a9565b83838151811062000543576200054262000fb4565b5b6020026020010151608001906fffffffffffffffffffffffffffffffff1690816fffffffffffffffffffffffffffffffff16815250506000808273ffffffffffffffffffffffffffffffffffffffff1663ddca3f436040518163ffffffff1660e01b8152600401602060405180830381865afa158015620005c8573d6000803e3d6000fd5b505050506040513d601f19601f82011682018060405250810190620005ee91906200110c565b905060008060008573ffffffffffffffffffffffffffffffffffffffff1663da3c300d60e01b604051602401604051602081830303815290604052907bffffffffffffffffffffffffffffffffffffffffffffffffffffffff19166020820180517bffffffffffffffffffffffffffffffffffffffffffffffffffffffff8381831617835250505050604051620006869190620011b7565b600060405180830381855afa9150503d8060008114620006c3576040519150601f19603f3d011682016040523d82523d6000602084013e620006c8565b606091505b509150915060008673ffffffffffffffffffffffffffffffffffffffff16633850c7bd6040516024016040516020818303038152906040529060e01b6020820180517bffffffffffffffffffffffffffffffffffffffffffffffffffffffff8381831617835250505050604051620007419190620011b7565b600060405180830381855afa9150503d80600081146200077e576040519150601f19603f3d011682016040523d82523d6000602084013e62000783565b606091505b50915050805160208201518752604082015185528360c082111615620007ab57602083015186525b508673ffffffffffffffffffffffffffffffffffffffff1663f30dba9385604051602401620007db9190620011e1565b6040516020818303038152906040529060e01b6020820180517bffffffffffffffffffffffffffffffffffffffffffffffffffffffff83818316178352505050506040516200082b9190620011b7565b600060405180830381855afa9150503d806000811462000868576040519150601f19603f3d011682016040523d82523d6000602084013e6200086d565b606091505b508093508194505050600060208301519050858a8a8151811062000896576200089562000fb4565b5b6020026020010151610100019062ffffff16908162ffffff1681525050848a8a81518110620008ca57620008c962000fb4565b5b602002602001015160c0019060020b908160020b81525050868a8a81518110620008f957620008f862000fb4565b5b602002602001015160a0019073ffffffffffffffffffffffffffffffffffffffff16908173ffffffffffffffffffffffffffffffffffffffff16815250508773ffffffffffffffffffffffffffffffffffffffff1663d0c93a7c6040518163ffffffff1660e01b8152600401602060405180830381865afa15801562000983573d6000803e3d6000fd5b505050506040513d601f19601f82011682018060405250810190620009a991906200122f565b8a8a81518110620009bf57620009be62000fb4565b5b602002602001015160e0019060020b908160020b81525050808a8a81518110620009ee57620009ed62000fb4565b5b60200260200101516101200190600f0b9081600f0b815250505050505050505050808062000a1c906200129a565b915050620000e1565b5080915050919050565b604051806101400160405280600073ffffffffffffffffffffffffffffffffffffffff168152602001600060ff168152602001600073ffffffffffffffffffffffffffffffffffffffff168152602001600060ff16815260200160006fffffffffffffffffffffffffffffffff168152602001600073ffffffffffffffffffffffffffffffffffffffff168152602001600060020b8152602001600060020b8152602001600062ffffff1681526020016000600f0b81525090565b6000604051905090565b600080fd5b600080fd5b600080fd5b6000601f19601f8301169050919050565b7f4e487b7100000000000000000000000000000000000000000000000000000000600052604160045260246000fd5b62000b4e8262000b03565b810181811067ffffffffffffffff8211171562000b705762000b6f62000b14565b5b80604052505050565b600062000b8562000aea565b905062000b93828262000b43565b919050565b600067ffffffffffffffff82111562000bb65762000bb562000b14565b5b602082029050602081019050919050565b600080fd5b600073ffffffffffffffffffffffffffffffffffffffff82169050919050565b600062000bf98262000bcc565b9050919050565b62000c0b8162000bec565b811462000c1757600080fd5b50565b60008151905062000c2b8162000c00565b92915050565b600062000c4862000c428462000b98565b62000b79565b9050808382526020820190506020840283018581111562000c6e5762000c6d62000bc7565b5b835b8181101562000c9b578062000c86888262000c1a565b84526020840193505060208101905062000c70565b5050509392505050565b600082601f83011262000cbd5762000cbc62000afe565b5b815162000ccf84826020860162000c31565b91505092915050565b60006020828403121562000cf15762000cf062000af4565b5b600082015167ffffffffffffffff81111562000d125762000d1162000af9565b5b62000d208482850162000ca5565b91505092915050565b600081519050919050565b600082825260208201905092915050565b6000819050602082019050919050565b62000d608162000bec565b82525050565b600060ff82169050919050565b62000d7e8162000d66565b82525050565b60006fffffffffffffffffffffffffffffffff82169050919050565b62000dab8162000d84565b82525050565b62000dbc8162000bcc565b82525050565b60008160020b9050919050565b62000dda8162000dc2565b82525050565b600062ffffff82169050919050565b62000dfa8162000de0565b82525050565b600081600f0b9050919050565b62000e188162000e00565b82525050565b6101408201600082015162000e37600085018262000d55565b50602082015162000e4c602085018262000d73565b50604082015162000e61604085018262000d55565b50606082015162000e76606085018262000d73565b50608082015162000e8b608085018262000da0565b5060a082015162000ea060a085018262000db1565b5060c082015162000eb560c085018262000dcf565b5060e082015162000eca60e085018262000dcf565b5061010082015162000ee161010085018262000def565b5061012082015162000ef861012085018262000e0d565b50505050565b600062000f0c838362000e1e565b6101408301905092915050565b6000602082019050919050565b600062000f338262000d29565b62000f3f818562000d34565b935062000f4c8362000d45565b8060005b8381101562000f8357815162000f67888262000efe565b975062000f748362000f19565b92505060018101905062000f50565b5085935050505092915050565b6000602082019050818103600083015262000fac818462000f26565b905092915050565b7f4e487b7100000000000000000000000000000000000000000000000000000000600052603260045260246000fd5b60006020828403121562000ffc5762000ffb62000af4565b5b60006200100c8482850162000c1a565b91505092915050565b620010208162000d66565b81146200102c57600080fd5b50565b600081519050620010408162001015565b92915050565b6000602082840312156200105f576200105e62000af4565b5b60006200106f848285016200102f565b91505092915050565b620010838162000d84565b81146200108f57600080fd5b50565b600081519050620010a38162001078565b92915050565b600060208284031215620010c257620010c162000af4565b5b6000620010d28482850162001092565b91505092915050565b620010e68162000de0565b8114620010f257600080fd5b50565b6000815190506200110681620010db565b92915050565b60006020828403121562001125576200112462000af4565b5b60006200113584828501620010f5565b91505092915050565b600081519050919050565b600081905092915050565b60005b838110156200117457808201518184015260208101905062001157565b60008484015250505050565b60006200118d826200113e565b62001199818562001149565b9350620011ab81856020860162001154565b80840191505092915050565b6000620011c5828462001180565b915081905092915050565b620011db8162000dc2565b82525050565b6000602082019050620011f86000830184620011d0565b92915050565b620012098162000dc2565b81146200121557600080fd5b50565b6000815190506200122981620011fe565b92915050565b60006020828403121562001248576200124762000af4565b5b6000620012588482850162001218565b91505092915050565b7f4e487b7100000000000000000000000000000000000000000000000000000000600052601160045260246000fd5b6000819050919050565b6000620012a78262001290565b91507fffffffffffffffffffffffffffffffffffffffffffffffffffffffffffffffff8203620012dc57620012db62001261565b5b60018201905091905056fe",
  "deployedBytecode": "0x608060405234801561001057600080fd5b506004361061002b5760003560e01c806345ef837914610030575b600080fd5b61004a60048036038101906100459190610c43565b610060565b6040516100579190610ec3565b60405180910390f35b60606000825167ffffffffffffffff81111561007f5761007e610aa2565b5b6040519080825280602002602001820160405280156100b857816020015b6100a56109bd565b81526020019060019003908161009d5790505b50905060005b83518110156109b35760008482815181106100dc576100db610ee5565b5b602002602001015190508073ffffffffffffffffffffffffffffffffffffffff16630dfe16816040518163ffffffff1660e01b8152600401602060405180830381865afa158015610131573d6000803e3d6000fd5b505050506040513d601f19601f820116820180604052508101906101559190610f29565b83838151811061016857610167610ee5565b5b60200260200101516000019073ffffffffffffffffffffffffffffffffffffffff16908173ffffffffffffffffffffffffffffffffffffffff16815250508073ffffffffffffffffffffffffffffffffffffffff16630dfe16816040518163ffffffff1660e01b8152600401602060405180830381865afa1580156101f1573d6000803e3d6000fd5b505050506040513d601f19601f820116820180604052508101906102159190610f29565b73ffffffffffffffffffffffffffffffffffffffff1663313ce5676040518163ffffffff1660e01b8152600401602060405180830381865afa15801561025f573d6000803e3d6000fd5b505050506040513d601f19601f820116820180604052508101906102839190610f82565b83838151811061029657610295610ee5565b5b60200260200101516020019060ff16908160ff16815250508073ffffffffffffffffffffffffffffffffffffffff1663d21220a76040518163ffffffff1660e01b8152600401602060405180830381865afa1580156102f9573d6000803e3d6000fd5b505050506040513d601f19601f8201168201806040525081019061031d9190610f29565b8383815181106103305761032f610ee5565b5b60200260200101516040019073ffffffffffffffffffffffffffffffffffffffff16908173ffffffffffffffffffffffffffffffffffffffff16815250508073ffffffffffffffffffffffffffffffffffffffff1663d21220a76040518163ffffffff1660e01b8152600401602060405180830381865afa1580156103b9573d6000803e3d6000fd5b505050506040513d601f19601f820116820180604052508101906103dd9190610f29565b73ffffffffffffffffffffffffffffffffffffffff1663313ce5676040518163ffffffff1660e01b8152600401602060405180830381865afa158015610427573d6000803e3d6000fd5b505050506040513d601f19601f8201168201806040525081019061044b9190610f82565b83838151811061045e5761045d610ee5565b5b60200260200101516060019060ff16908160ff16815250508073ffffffffffffffffffffffffffffffffffffffff16631a6865026040518163ffffffff1660e01b8152600401602060405180830381865afa1580156104c1573d6000803e3d6000fd5b505050506040513d601f19601f820116820180604052508101906104e59190610fdb565b8383815181106104f8576104f7610ee5565b5b6020026020010151608001906fffffffffffffffffffffffffffffffff1690816fffffffffffffffffffffffffffffffff16815250506000808273ffffffffffffffffffffffffffffffffffffffff1663ddca3f436040518163ffffffff1660e01b8152600401602060405180830381865afa15801561057c573d6000803e3d6000fd5b505050506040513d601f19601f820116820180604052508101906105a09190611034565b905060008060008573ffffffffffffffffffffffffffffffffffffffff1663da3c300d60e01b604051602401604051602081830303815290604052907bffffffffffffffffffffffffffffffffffffffffffffffffffffffff19166020820180517bffffffffffffffffffffffffffffffffffffffffffffffffffffffff838183161783525050505060405161063691906110d2565b600060405180830381855afa9150503d8060008114610671576040519150601f19603f3d011682016040523d82523d6000602084013e610676565b606091505b509150915060008673ffffffffffffffffffffffffffffffffffffffff16633850c7bd6040516024016040516020818303038152906040529060e01b6020820180517bffffffffffffffffffffffffffffffffffffffffffffffffffffffff83818316178352505050506040516106ed91906110d2565b600060405180830381855afa9150503d8060008114610728576040519150601f19603f3d011682016040523d82523d6000602084013e61072d565b606091505b50915050805160208201518752604082015185528360c08211161561075457602083015186525b508673ffffffffffffffffffffffffffffffffffffffff1663f30dba938560405160240161078291906110f8565b6040516020818303038152906040529060e01b6020820180517bffffffffffffffffffffffffffffffffffffffffffffffffffffffff83818316178352505050506040516107d091906110d2565b600060405180830381855afa9150503d806000811461080b576040519150601f19603f3d011682016040523d82523d6000602084013e610810565b606091505b508093508194505050600060208301519050858a8a8151811061083657610835610ee5565b5b6020026020010151610100019062ffffff16908162ffffff1681525050848a8a8151811061086757610866610ee5565b5b602002602001015160c0019060020b908160020b81525050868a8a8151811061089357610892610ee5565b5b602002602001015160a0019073ffffffffffffffffffffffffffffffffffffffff16908173ffffffffffffffffffffffffffffffffffffffff16815250508773ffffffffffffffffffffffffffffffffffffffff1663d0c93a7c6040518163ffffffff1660e01b8152600401602060405180830381865afa15801561091c573d6000803e3d6000fd5b505050506040513d601f19601f82011682018060405250810190610940919061113f565b8a8a8151811061095357610952610ee5565b5b602002602001015160e0019060020b908160020b81525050808a8a8151811061097f5761097e610ee5565b5b60200260200101516101200190600f0b9081600f0b81525050505050505050505080806109ab906111a5565b9150506100be565b5080915050919050565b604051806101400160405280600073ffffffffffffffffffffffffffffffffffffffff168152602001600060ff168152602001600073ffffffffffffffffffffffffffffffffffffffff168152602001600060ff16815260200160006fffffffffffffffffffffffffffffffff168152602001600073ffffffffffffffffffffffffffffffffffffffff168152602001600060020b8152602001600060020b8152602001600062ffffff1681526020016000600f0b81525090565b6000604051905090565b600080fd5b600080fd5b600080fd5b6000601f19601f8301169050919050565b7f4e487b7100000000000000000000000000000000000000000000000000000000600052604160045260246000fd5b610ada82610a91565b810181811067ffffffffffffffff82111715610af957610af8610aa2565b5b80604052505050565b6000610b0c610a78565b9050610b188282610ad1565b919050565b600067ffffffffffffffff821115610b3857610b37610aa2565b5b602082029050602081019050919050565b600080fd5b600073ffffffffffffffffffffffffffffffffffffffff82169050919050565b6000610b7982610b4e565b9050919050565b610b8981610b6e565b8114610b9457600080fd5b50565b600081359050610ba681610b80565b92915050565b6000610bbf610bba84610b1d565b610b02565b90508083825260208201905060208402830185811115610be257610be1610b49565b5b835b81811015610c0b5780610bf78882610b97565b845260208401935050602081019050610be4565b5050509392505050565b600082601f830112610c2a57610c29610a8c565b5b8135610c3a848260208601610bac565b91505092915050565b600060208284031215610c5957610c58610a82565b5b600082013567ffffffffffffffff811115610c7757610c76610a87565b5b610c8384828501610c15565b91505092915050565b600081519050919050565b600082825260208201905092915050565b6000819050602082019050919050565b610cc181610b6e565b82525050565b600060ff82169050919050565b610cdd81610cc7565b82525050565b60006fffffffffffffffffffffffffffffffff82169050919050565b610d0881610ce3565b82525050565b610d1781610b4e565b82525050565b60008160020b9050919050565b610d3381610d1d565b82525050565b600062ffffff82169050919050565b610d5181610d39565b82525050565b600081600f0b9050919050565b610d6d81610d57565b82525050565b61014082016000820151610d8a6000850182610cb8565b506020820151610d9d6020850182610cd4565b506040820151610db06040850182610cb8565b506060820151610dc36060850182610cd4565b506080820151610dd66080850182610cff565b5060a0820151610de960a0850182610d0e565b5060c0820151610dfc60c0850182610d2a565b5060e0820151610e0f60e0850182610d2a565b50610100820151610e24610100850182610d48565b50610120820151610e39610120850182610d64565b50505050565b6000610e4b8383610d73565b6101408301905092915050565b6000602082019050919050565b6000610e7082610c8c565b610e7a8185610c97565b9350610e8583610ca8565b8060005b83811015610eb6578151610e9d8882610e3f565b9750610ea883610e58565b925050600181019050610e89565b5085935050505092915050565b60006020820190508181036000830152610edd8184610e65565b905092915050565b7f4e487b7100000000000000000000000000000000000000000000000000000000600052603260045260246000fd5b600081519050610f2381610b80565b92915050565b600060208284031215610f3f57610f3e610a82565b5b6000610f4d84828501610f14565b91505092915050565b610f5f81610cc7565b8114610f6a57600080fd5b50565b600081519050610f7c81610f56565b92915050565b600060208284031215610f9857610f97610a82565b5b6000610fa684828501610f6d565b91505092915050565b610fb881610ce3565b8114610fc357600080fd5b50565b600081519050610fd581610faf565b92915050565b600060208284031215610ff157610ff0610a82565b5b6000610fff84828501610fc6565b91505092915050565b61101181610d39565b811461101c57600080fd5b50565b60008151905061102e81611008565b92915050565b60006020828403121561104a57611049610a82565b5b60006110588482850161101f565b91505092915050565b600081519050919050565b600081905092915050565b60005b8381101561109557808201518184015260208101905061107a565b60008484015250505050565b60006110ac82611061565b6110b6818561106c565b93506110c6818560208601611077565b80840191505092915050565b60006110de82846110a1565b915081905092915050565b6110f281610d1d565b82525050565b600060208201905061110d60008301846110e9565b92915050565b61111c81610d1d565b811461112757600080fd5b50565b60008151905061113981611113565b92915050565b60006020828403121561115557611154610a82565b5b60006111638482850161112a565b91505092915050565b7f4e487b7100000000000000000000000000000000000000000000000000000000600052601160045260246000fd5b6000819050919050565b60006111b08261119b565b91507fffffffffffffffffffffffffffffffffffffffffffffffffffffffffffffffff82036111e2576111e161116c565b5b60018201905091905056fea164736f6c6343000813000a",
  "linkReferences": {},
  "deployedLinkReferences": {}
}