{"abi":[{"type":"function","name":"data_constructor","inputs":[{"name":"pools","type":"address[]","internalType":"address[]"}],"outputs":[{"name":"","type":"tuple[]","internalType":"struct GetUniswapV3TickDataBatchRequest.PoolData[]","components":[{"name":"tokenA","type":"address","internalType":"address"},{"name":"tokenADecimals","type":"uint8","internalType":"uint8"},{"name":"tokenB","type":"address","internalType":"address"},{"name":"tokenBDecimals","type":"uint8","internalType":"uint8"},{"name":"liquidity","type":"uint128","internalType":"uint128"},{"name":"sqrtPrice","type":"uint160","internalType":"uint160"},{"name":"tick","type":"int24","internalType":"int24"},{"name":"tickSpacing","type":"int24","internalType":"int24"},{"name":"fee","type":"uint24","internalType":"uint24"},{"name":"liquidityNet","type":"int128","internalType":"int128"}]}],"stateMutability":"view"},{"type":"function","name":"tick_constructor","inputs":[{"name":"pool","type":"address","internalType":"address"},{"name":"zeroForOne","type":"bool","internalType":"bool"},{"name":"currentTick","type":"int24","internalType":"int24"},{"name":"numTicks","type":"uint16","internalType":"uint16"},{"name":"tickSpacing","type":"int24","internalType":"int24"}],"outputs":[{"name":"","type":"tuple[]","internalType":"struct GetUniswapV3TickDataBatchRequest.TickData[]","components":[{"name":"initialized","type":"bool","internalType":"bool"},{"name":"tick","type":"int24","internalType":"int24"},{"name":"liquidityNet","type":"int128","internalType":"int128"}]},{"name":"","type":"uint64","internalType":"uint64"}],"stateMutability":"view"}],"bytecode":{"object":"0x60808060405234610016576115c0908161001c8239f35b600080fdfe6080604052600436101561001257600080fd5b60e0600035811c90816345ef83791461074f575063c5314b8c1461003557600080fd5b346103935760a07ffffffffffffffffffffffffffffffffffffffffffffffffffffffffffffffffc3601126103935773ffffffffffffffffffffffffffffffffffffffff6004351660043503610393576024351515602435036103935760443560020b604435036103935760643561ffff811681036103935760843560020b60843503610393576100cf60843561ffff831660010b611162565b6024351561073d5760020b60443560020b017fffffffffffffffffffffffffffffffffffffffffffffffffffffffffff8000008112627fffff8213176102bb57905b817ffffffffffffffffffffffffffffffffffffffffffffffffffffffffffff27618809160020b12610735575b50620d89e8808360020b1361072d575b50600161015d60443584611179565b60020b017fffffffffffffffffffffffffffffffffffffffffffffffffffffffffff8000008112627fffff8213176102bb5761019c90608435906111b3565b60020b906001820182116102bb577fffffffffffffffffffffffffffffffffffffffffffffffffffffffffffffffe06101f260016101db818601611037565b946101e96040519687610ff6565b01808552611037565b0136602084013760009061020a6084356044356111b3565b60020b9361021a608435826111b3565b60020b9460081d60010b946024356000146105ac57945b8060010b8660081d60010b81136103ac57604051907f5339c296000000000000000000000000000000000000000000000000000000008252600482015260208160248173ffffffffffffffffffffffffffffffffffffffff600435165afa9081156103a057600091610369575b50805b6102ea575b5060010b617fff81146102bb57600101610231565b7f4e487b7100000000000000000000000000000000000000000000000000000000600052601160045260246000fd5b61031460ff6102f88361123f565b16916001831b18916084359060020b8460081b60020b17611162565b60020b60443560020b8112158061035c575b610342575b5061ffff8416851461033d57806102a1565b6102a6565b61035561034e8761104f565b968861107c565b523861032b565b508360020b811315610326565b90506020813d602011610398575b8161038460209383610ff6565b8101031261039357513861029e565b600080fd5b3d9150610377565b6040513d6000823e3d90fd5b5050505091505b6103bc82611037565b906103ca6040519283610ff6565b8282527fffffffffffffffffffffffffffffffffffffffffffffffffffffffffffffffe06103f784611037565b0160005b81811061053e57505060005b838110610484575050604051906040820160408352815180915260609060208285019301916000905b82821061044d5767ffffffffffffffff8716602087015285850386f35b90919293602082600192604088518051151583528481015160020b858401520151600f0b6040820152019501920190929192610430565b80600080610495610533948661107c565b5160020b60405160208101917ff30dba930000000000000000000000000000000000000000000000000000000083526024820152602481526104d681610fda565b51906004355afa6104e5611104565b9015610538576040015160406104fb838761107c565b510190600f0b905261050d818461107c565b5160020b602061051d838761107c565b510152600161052c828661107c565b515261104f565b610407565b5061104f565b60405190606082019180831067ffffffffffffffff84111761057d576020926040526000815260008382015260006040820152828287010152016103fb565b7f4e487b7100000000000000000000000000000000000000000000000000000000600052604160045260246000fd5b945b8560081d60010b8160010b12610723576040517f5339c2960000000000000000000000000000000000000000000000000000000081528160010b600482015260208160248173ffffffffffffffffffffffffffffffffffffffff600435165afa9081156103a0576000916106f1575b50805b610677575b5060010b7fffffffffffffffffffffffffffffffffffffffffffffffffffffffffffff800081146102bb577fffffffffffffffffffffffffffffffffffffffffffffffffffffffffffffffff016105ae565b6106a36106838261123f565b60ff9260018483161b1892608435911660020b8460081b60020b17611162565b60020b8360020b811215806106e2575b6106cf575b5061ffff841685146106ca5780610620565b610625565b6106db61034e8761104f565b52386106b8565b5060443560020b8113156106b3565b90506020813d60201161071b575b8161070c60209383610ff6565b8101031261039357513861061d565b3d91506106ff565b50505091506103b3565b91503861014e565b91503861013e565b61074990604435611179565b90610111565b34610393576020807ffffffffffffffffffffffffffffffffffffffffffffffffffffffffffffffffc360112610393576004359067ffffffffffffffff8083116103935736602384011215610393578260040135916107ad83611037565b936107bb6040519586610ff6565b8385528185016024809560051b83010191368311610393578501905b828210610f92575050508351917fffffffffffffffffffffffffffffffffffffffffffffffffffffffffffffffe061082761081185611037565b9461081f6040519687610ff6565b808652611037565b019060005b828110610efb5750505060005b8451811015610e175773ffffffffffffffffffffffffffffffffffffffff9081610863828861107c565b5116916040517f0dfe168100000000000000000000000000000000000000000000000000000000908181528581600481885afa9081156103a057600091610dfa575b50826108b1858961107c565b51911690526040519081528481600481875afa9081156103a057600091610ddd575b50604051908582600481867f313ce5670000000000000000000000000000000000000000000000000000000095868352165afa9182156103a057600092610dbe575b5085610921858961107c565b510160ff8093169052604051907fd21220a7000000000000000000000000000000000000000000000000000000009182815287816004818a5afa9081156103a057600091610da1575b50846040610978888c61107c565b5101911690526040519182528682600481895afa9081156103a0578792600092610d6f575b5060049060405195869384928352165afa9182156103a057600092610d40575b5060606109ca848861107c565b5101911690526040517f1a6865020000000000000000000000000000000000000000000000000000000081528381600481865afa9081156103a057600091610cfa575b506fffffffffffffffffffffffffffffffff6080610a2b848861107c565b5101911690526040517fddca3f430000000000000000000000000000000000000000000000000000000081528381600481865afa9081156103a0578490600092610cbe575b5060049360008080604051858101907fda3c300d000000000000000000000000000000000000000000000000000000008252898152610aae81610fbe565b5190855afa83610abc611104565b610b6660405185808583017f3850c7bd0000000000000000000000000000000000000000000000000000000081528d8452610af684610fbe565b60405193610b0385610fda565b602585527f416464726573733a206c6f772d6c6576656c207374617469632063616c6c2066888601527f61696c6564000000000000000000000000000000000000000000000000000000604086015251908a5afa610b5f611104565b9088611468565b9260408451948481015187520151855260c080941116610cb3575b505081808b60405182888201927ff30dba930000000000000000000000000000000000000000000000000000000084528201528d8152610bc081610fda565b5190865afa5083610bcf611104565b01519462ffffff610100610be3898d61107c565b510191169052610bf3868a61107c565b510152600060a0610c04868a61107c565b510152604051948580927fd0c93a7c0000000000000000000000000000000000000000000000000000000082525afa80156103a057600090610c78575b610c73935088610c51848861107c565b51019060020b9052610120610c66838761107c565b510190600f0b905261104f565b610839565b50918381813d8311610cac575b610c8f8183610ff6565b810103126103935751918260020b830361039357610c7392610c41565b503d610c85565b01518552838d610b81565b809250813d8311610cf3575b610cd48183610ff6565b8101031261039357519162ffffff831683036103935791836004610a70565b503d610cca565b90508381813d8311610d39575b610d118183610ff6565b8101031261039357516fffffffffffffffffffffffffffffffff811681036103935788610a0d565b503d610d07565b610d61919250853d8711610d68575b610d598183610ff6565b8101906110eb565b90896109bd565b503d610d4f565b6004919250610d9390843d8611610d9a575b610d8b8183610ff6565b8101906110bf565b919061099d565b503d610d81565b610db89150883d8a11610d9a57610d8b8183610ff6565b8c61096a565b610dd6919250863d8811610d6857610d598183610ff6565b908a610915565b610df49150853d8711610d9a57610d8b8183610ff6565b896108d3565b610e119150863d8811610d9a57610d8b8183610ff6565b8a6108a5565b508491604051918083018184528251809152816040850193019160005b828110610e415785850386f35b9091929382610140600192875173ffffffffffffffffffffffffffffffffffffffff80825116835260ff8086840151168685015281604084015116604085015260609081840151169084015260806fffffffffffffffffffffffffffffffff81840151169084015260a09081830151169083015260c08082015190600291820b908401528b820151900b8b83015261010062ffffff81830151169083015261012080910151600f0b90820152019501910192919092610e34565b604051610140810181811084821117610f64579085929160405260008152600083820152600060408201526000606082015260006080820152600060a0820152600060c082015260008a820152600061010082015260006101208201528282880101520161082c565b877f4e487b710000000000000000000000000000000000000000000000000000000060005260416004526000fd5b813573ffffffffffffffffffffffffffffffffffffffff811681036103935781529083019083016107d7565b6040810190811067ffffffffffffffff82111761057d57604052565b6060810190811067ffffffffffffffff82111761057d57604052565b90601f7fffffffffffffffffffffffffffffffffffffffffffffffffffffffffffffffe0910116810190811067ffffffffffffffff82111761057d57604052565b67ffffffffffffffff811161057d5760051b60200190565b7fffffffffffffffffffffffffffffffffffffffffffffffffffffffffffffffff81146102bb5760010190565b80518210156110905760209160051b010190565b7f4e487b7100000000000000000000000000000000000000000000000000000000600052603260045260246000fd5b90816020910312610393575173ffffffffffffffffffffffffffffffffffffffff811681036103935790565b90816020910312610393575160ff811681036103935790565b3d1561115d573d9067ffffffffffffffff821161057d576040519161115160207fffffffffffffffffffffffffffffffffffffffffffffffffffffffffffffffe0601f8401160184610ff6565b82523d6000602084013e565b606090565b9060020b9060020b02908160020b9182036102bb57565b9060020b9060020b0390627fffff82137fffffffffffffffffffffffffffffffffffffffffffffffffffffffffff8000008312176102bb57565b60020b9060020b908115611210577fffffffffffffffffffffffffffffffffffffffffffffffffffffffffffffffff82147fffffffffffffffffffffffffffffffffffffffffffffffffffffffffff8000008214166102bb570590565b7f4e487b7100000000000000000000000000000000000000000000000000000000600052601260045260246000fd5b90600091600090801561140a57801990600182018092116113dd5716807001000000000000000000000000000000008110156113cf575b50680100000000000000008110156113b7575b64010000000081101561139f575b62010000811015611387575b61010081101561136f575b6010811015611357575b8060046002921015611311575b10156112ce5750565b909160ff60019116019060ff82116112e4575090565b807f4e487b7100000000000000000000000000000000000000000000000000000000602492526011600452fd5b60ff90821c94160160ff811161132a57600290936112c5565b6024827f4e487b710000000000000000000000000000000000000000000000000000000081526011600452fd5b60ff600491821c94160160ff811161132a57926112b8565b60ff600891821c94160160ff811161132a57926112ae565b60ff601091821c94160160ff811161132a57926112a3565b60ff602091821c94160160ff811161132a5792611297565b60ff604091821c94160160ff811161132a5792611289565b60809450841c905038611276565b6024837f4e487b710000000000000000000000000000000000000000000000000000000081526011600452fd5b60646040517f08c379a000000000000000000000000000000000000000000000000000000000815260206004820152600660248201527f78206973203000000000000000000000000000000000000000000000000000006044820152fd5b919290156114e3575081511561147c575090565b3b156114855790565b60646040517f08c379a000000000000000000000000000000000000000000000000000000000815260206004820152601d60248201527f416464726573733a2063616c6c20746f206e6f6e2d636f6e74726163740000006044820152fd5b8251909150156114f65750805190602001fd5b604051907f08c379a000000000000000000000000000000000000000000000000000000000825281602080600483015282519283602484015260005b848110611573575050507fffffffffffffffffffffffffffffffffffffffffffffffffffffffffffffffe0601f836000604480968601015201168101030190fd5b81810183015186820160440152859350820161153256fea26469706673582212202c115936d772e5b2b7d1a75732e71a234ef2968620f457f0ac064ae056d22e5264736f6c63430008130033","linkReferences":{}},"methodIdentifiers":{"data_constructor(address[])":"45ef8379","tick_constructor(address,bool,int24,uint16,int24)":"c5314b8c"},"id":1}