{"abi":[{"type":"constructor","inputs":[],"stateMutability":"nonpayable"},{"type":"receive","stateMutability":"payable"},{"type":"function","name":"PRICE_PRECISION","inputs":[],"outputs":[{"name":"","type":"uint256","internalType":"uint256"}],"stateMutability":"view"},{"type":"function","name":"USDG_PRECISION","inputs":[],"outputs":[{"name":"","type":"uint256","internalType":"uint256"}],"stateMutability":"view"},{"type":"function","name":"cancelDecreaseOrder","inputs":[{"name":"_orderIndex","type":"uint256","internalType":"uint256"}],"outputs":[],"stateMutability":"nonpayable"},{"type":"function","name":"cancelIncreaseOrder","inputs":[{"name":"_orderIndex","type":"uint256","internalType":"uint256"}],"outputs":[],"stateMutability":"nonpayable"},{"type":"function","name":"cancelMultiple","inputs":[{"name":"_swapOrderIndexes","type":"uint256[]","internalType":"uint256[]"},{"name":"_increaseOrderIndexes","type":"uint256[]","internalType":"uint256[]"},{"name":"_decreaseOrderIndexes","type":"uint256[]","internalType":"uint256[]"}],"outputs":[],"stateMutability":"nonpayable"},{"type":"function","name":"cancelSwapOrder","inputs":[{"name":"_orderIndex","type":"uint256","internalType":"uint256"}],"outputs":[],"stateMutability":"nonpayable"},{"type":"function","name":"createDecreaseOrder","inputs":[{"name":"_indexToken","type":"address","internalType":"address"},{"name":"_sizeDelta","type":"uint256","internalType":"uint256"},{"name":"_collateralToken","type":"address","internalType":"address"},{"name":"_collateralDelta","type":"uint256","internalType":"uint256"},{"name":"_isLong","type":"bool","internalType":"bool"},{"name":"_triggerPrice","type":"uint256","internalType":"uint256"},{"name":"_triggerAboveThreshold","type":"bool","internalType":"bool"}],"outputs":[],"stateMutability":"payable"},{"type":"function","name":"createIncreaseOrder","inputs":[{"name":"_path","type":"address[]","internalType":"address[]"},{"name":"_amountIn","type":"uint256","internalType":"uint256"},{"name":"_indexToken","type":"address","internalType":"address"},{"name":"_minOut","type":"uint256","internalType":"uint256"},{"name":"_sizeDelta","type":"uint256","internalType":"uint256"},{"name":"_collateralToken","type":"address","internalType":"address"},{"name":"_isLong","type":"bool","internalType":"bool"},{"name":"_triggerPrice","type":"uint256","internalType":"uint256"},{"name":"_triggerAboveThreshold","type":"bool","internalType":"bool"},{"name":"_executionFee","type":"uint256","internalType":"uint256"},{"name":"_shouldWrap","type":"bool","internalType":"bool"}],"outputs":[],"stateMutability":"payable"},{"type":"function","name":"createSwapOrder","inputs":[{"name":"_path","type":"address[]","internalType":"address[]"},{"name":"_amountIn","type":"uint256","internalType":"uint256"},{"name":"_minOut","type":"uint256","internalType":"uint256"},{"name":"_triggerRatio","type":"uint256","internalType":"uint256"},{"name":"_triggerAboveThreshold","type":"bool","internalType":"bool"},{"name":"_executionFee","type":"uint256","internalType":"uint256"},{"name":"_shouldWrap","type":"bool","internalType":"bool"},{"name":"_shouldUnwrap","type":"bool","internalType":"bool"}],"outputs":[],"stateMutability":"payable"},{"type":"function","name":"decreaseOrders","inputs":[{"name":"","type":"address","internalType":"address"},{"name":"","type":"uint256","internalType":"uint256"}],"outputs":[{"name":"account","type":"address","internalType":"address"},{"name":"collateralToken","type":"address","internalType":"address"},{"name":"collateralDelta","type":"uint256","internalType":"uint256"},{"name":"indexToken","type":"address","internalType":"address"},{"name":"sizeDelta","type":"uint256","internalType":"uint256"},{"name":"isLong","type":"bool","internalType":"bool"},{"name":"triggerPrice","type":"uint256","internalType":"uint256"},{"name":"triggerAboveThreshold","type":"bool","internalType":"bool"},{"name":"executionFee","type":"uint256","internalType":"uint256"}],"stateMutability":"view"},{"type":"function","name":"decreaseOrdersIndex","inputs":[{"name":"","type":"address","internalType":"address"}],"outputs":[{"name":"","type":"uint256","internalType":"uint256"}],"stateMutability":"view"},{"type":"function","name":"executeDecreaseOrder","inputs":[{"name":"_address","type":"address","internalType":"address"},{"name":"_orderIndex","type":"uint256","internalType":"uint256"},{"name":"_feeReceiver","type":"address","internalType":"address payable"}],"outputs":[],"stateMutability":"nonpayable"},{"type":"function","name":"executeIncreaseOrder","inputs":[{"name":"_address","type":"address","internalType":"address"},{"name":"_orderIndex","type":"uint256","internalType":"uint256"},{"name":"_feeReceiver","type":"address","internalType":"address payable"}],"outputs":[],"stateMutability":"nonpayable"},{"type":"function","name":"executeSwapOrder","inputs":[{"name":"_account","type":"address","internalType":"address"},{"name":"_orderIndex","type":"uint256","internalType":"uint256"},{"name":"_feeReceiver","type":"address","internalType":"address payable"}],"outputs":[],"stateMutability":"nonpayable"},{"type":"function","name":"getDecreaseOrder","inputs":[{"name":"_account","type":"address","internalType":"address"},{"name":"_orderIndex","type":"uint256","internalType":"uint256"}],"outputs":[{"name":"collateralToken","type":"address","internalType":"address"},{"name":"collateralDelta","type":"uint256","internalType":"uint256"},{"name":"indexToken","type":"address","internalType":"address"},{"name":"sizeDelta","type":"uint256","internalType":"uint256"},{"name":"isLong","type":"bool","internalType":"bool"},{"name":"triggerPrice","type":"uint256","internalType":"uint256"},{"name":"triggerAboveThreshold","type":"bool","internalType":"bool"},{"name":"executionFee","type":"uint256","internalType":"uint256"}],"stateMutability":"view"},{"type":"function","name":"getIncreaseOrder","inputs":[{"name":"_account","type":"address","internalType":"address"},{"name":"_orderIndex","type":"uint256","internalType":"uint256"}],"outputs":[{"name":"purchaseToken","type":"address","internalType":"address"},{"name":"purchaseTokenAmount","type":"uint256","internalType":"uint256"},{"name":"collateralToken","type":"address","internalType":"address"},{"name":"indexToken","type":"address","internalType":"address"},{"name":"sizeDelta","type":"uint256","internalType":"uint256"},{"name":"isLong","type":"bool","internalType":"bool"},{"name":"triggerPrice","type":"uint256","internalType":"uint256"},{"name":"triggerAboveThreshold","type":"bool","internalType":"bool"},{"name":"executionFee","type":"uint256","internalType":"uint256"}],"stateMutability":"view"},{"type":"function","name":"getSwapOrder","inputs":[{"name":"_account","type":"address","internalType":"address"},{"name":"_orderIndex","type":"uint256","internalType":"uint256"}],"outputs":[{"name":"path0","type":"address","internalType":"address"},{"name":"path1","type":"address","internalType":"address"},{"name":"path2","type":"address","internalType":"address"},{"name":"amountIn","type":"uint256","internalType":"uint256"},{"name":"minOut","type":"uint256","internalType":"uint256"},{"name":"triggerRatio","type":"uint256","internalType":"uint256"},{"name":"triggerAboveThreshold","type":"bool","internalType":"bool"},{"name":"shouldUnwrap","type":"bool","internalType":"bool"},{"name":"executionFee","type":"uint256","internalType":"uint256"}],"stateMutability":"view"},{"type":"function","name":"getUsdgMinPrice","inputs":[{"name":"_otherToken","type":"address","internalType":"address"}],"outputs":[{"name":"","type":"uint256","internalType":"uint256"}],"stateMutability":"view"},{"type":"function","name":"gov","inputs":[],"outputs":[{"name":"","type":"address","internalType":"address"}],"stateMutability":"view"},{"type":"function","name":"increaseOrders","inputs":[{"name":"","type":"address","internalType":"address"},{"name":"","type":"uint256","internalType":"uint256"}],"outputs":[{"name":"account","type":"address","internalType":"address"},{"name":"purchaseToken","type":"address","internalType":"address"},{"name":"purchaseTokenAmount","type":"uint256","internalType":"uint256"},{"name":"collateralToken","type":"address","internalType":"address"},{"name":"indexToken","type":"address","internalType":"address"},{"name":"sizeDelta","type":"uint256","internalType":"uint256"},{"name":"isLong","type":"bool","internalType":"bool"},{"name":"triggerPrice","type":"uint256","internalType":"uint256"},{"name":"triggerAboveThreshold","type":"bool","internalType":"bool"},{"name":"executionFee","type":"uint256","internalType":"uint256"}],"stateMutability":"view"},{"type":"function","name":"increaseOrdersIndex","inputs":[{"name":"","type":"address","internalType":"address"}],"outputs":[{"name":"","type":"uint256","internalType":"uint256"}],"stateMutability":"view"},{"type":"function","name":"initialize","inputs":[{"name":"_router","type":"address","internalType":"address"},{"name":"_vault","type":"address","internalType":"address"},{"name":"_weth","type":"address","internalType":"address"},{"name":"_usdg","type":"address","internalType":"address"},{"name":"_minExecutionFee","type":"uint256","internalType":"uint256"},{"name":"_minPurchaseTokenAmountUsd","type":"uint256","internalType":"uint256"}],"outputs":[],"stateMutability":"nonpayable"},{"type":"function","name":"isInitialized","inputs":[],"outputs":[{"name":"","type":"bool","internalType":"bool"}],"stateMutability":"view"},{"type":"function","name":"minExecutionFee","inputs":[],"outputs":[{"name":"","type":"uint256","internalType":"uint256"}],"stateMutability":"view"},{"type":"function","name":"minPurchaseTokenAmountUsd","inputs":[],"outputs":[{"name":"","type":"uint256","internalType":"uint256"}],"stateMutability":"view"},{"type":"function","name":"router","inputs":[],"outputs":[{"name":"","type":"address","internalType":"address"}],"stateMutability":"view"},{"type":"function","name":"setGov","inputs":[{"name":"_gov","type":"address","internalType":"address"}],"outputs":[],"stateMutability":"nonpayable"},{"type":"function","name":"setMinExecutionFee","inputs":[{"name":"_minExecutionFee","type":"uint256","internalType":"uint256"}],"outputs":[],"stateMutability":"nonpayable"},{"type":"function","name":"setMinPurchaseTokenAmountUsd","inputs":[{"name":"_minPurchaseTokenAmountUsd","type":"uint256","internalType":"uint256"}],"outputs":[],"stateMutability":"nonpayable"},{"type":"function","name":"swapOrders","inputs":[{"name":"","type":"address","internalType":"address"},{"name":"","type":"uint256","internalType":"uint256"}],"outputs":[{"name":"account","type":"address","internalType":"address"},{"name":"amountIn","type":"uint256","internalType":"uint256"},{"name":"minOut","type":"uint256","internalType":"uint256"},{"name":"triggerRatio","type":"uint256","internalType":"uint256"},{"name":"triggerAboveThreshold","type":"bool","internalType":"bool"},{"name":"shouldUnwrap","type":"bool","internalType":"bool"},{"name":"executionFee","type":"uint256","internalType":"uint256"}],"stateMutability":"view"},{"type":"function","name":"swapOrdersIndex","inputs":[{"name":"","type":"address","internalType":"address"}],"outputs":[{"name":"","type":"uint256","internalType":"uint256"}],"stateMutability":"view"},{"type":"function","name":"updateDecreaseOrder","inputs":[{"name":"_orderIndex","type":"uint256","internalType":"uint256"},{"name":"_collateralDelta","type":"uint256","internalType":"uint256"},{"name":"_sizeDelta","type":"uint256","internalType":"uint256"},{"name":"_triggerPrice","type":"uint256","internalType":"uint256"},{"name":"_triggerAboveThreshold","type":"bool","internalType":"bool"}],"outputs":[],"stateMutability":"nonpayable"},{"type":"function","name":"updateIncreaseOrder","inputs":[{"name":"_orderIndex","type":"uint256","internalType":"uint256"},{"name":"_sizeDelta","type":"uint256","internalType":"uint256"},{"name":"_triggerPrice","type":"uint256","internalType":"uint256"},{"name":"_triggerAboveThreshold","type":"bool","internalType":"bool"}],"outputs":[],"stateMutability":"nonpayable"},{"type":"function","name":"updateSwapOrder","inputs":[{"name":"_orderIndex","type":"uint256","internalType":"uint256"},{"name":"_minOut","type":"uint256","internalType":"uint256"},{"name":"_triggerRatio","type":"uint256","internalType":"uint256"},{"name":"_triggerAboveThreshold","type":"bool","internalType":"bool"}],"outputs":[],"stateMutability":"nonpayable"},{"type":"function","name":"usdg","inputs":[],"outputs":[{"name":"","type":"address","internalType":"address"}],"stateMutability":"view"},{"type":"function","name":"validatePositionOrderPrice","inputs":[{"name":"_triggerAboveThreshold","type":"bool","internalType":"bool"},{"name":"_triggerPrice","type":"uint256","internalType":"uint256"},{"name":"_indexToken","type":"address","internalType":"address"},{"name":"_maximizePrice","type":"bool","internalType":"bool"},{"name":"_raise","type":"bool","internalType":"bool"}],"outputs":[{"name":"","type":"uint256","internalType":"uint256"},{"name":"","type":"bool","internalType":"bool"}],"stateMutability":"view"},{"type":"function","name":"validateSwapOrderPriceWithTriggerAboveThreshold","inputs":[{"name":"_path","type":"address[]","internalType":"address[]"},{"name":"_triggerRatio","type":"uint256","internalType":"uint256"}],"outputs":[{"name":"","type":"bool","internalType":"bool"}],"stateMutability":"view"},{"type":"function","name":"vault","inputs":[],"outputs":[{"name":"","type":"address","internalType":"address"}],"stateMutability":"view"},{"type":"function","name":"weth","inputs":[],"outputs":[{"name":"","type":"address","internalType":"address"}],"stateMutability":"view"},{"type":"event","name":"CancelDecreaseOrder","inputs":[{"name":"account","type":"address","indexed":true,"internalType":"address"},{"name":"orderIndex","type":"uint256","indexed":false,"internalType":"uint256"},{"name":"collateralToken","type":"address","indexed":false,"internalType":"address"},{"name":"collateralDelta","type":"uint256","indexed":false,"internalType":"uint256"},{"name":"indexToken","type":"address","indexed":false,"internalType":"address"},{"name":"sizeDelta","type":"uint256","indexed":false,"internalType":"uint256"},{"name":"isLong","type":"bool","indexed":false,"internalType":"bool"},{"name":"triggerPrice","type":"uint256","indexed":false,"internalType":"uint256"},{"name":"triggerAboveThreshold","type":"bool","indexed":false,"internalType":"bool"},{"name":"executionFee","type":"uint256","indexed":false,"internalType":"uint256"}],"anonymous":false},{"type":"event","name":"CancelIncreaseOrder","inputs":[{"name":"account","type":"address","indexed":true,"internalType":"address"},{"name":"orderIndex","type":"uint256","indexed":false,"internalType":"uint256"},{"name":"purchaseToken","type":"address","indexed":false,"internalType":"address"},{"name":"purchaseTokenAmount","type":"uint256","indexed":false,"internalType":"uint256"},{"name":"collateralToken","type":"address","indexed":false,"internalType":"address"},{"name":"indexToken","type":"address","indexed":false,"internalType":"address"},{"name":"sizeDelta","type":"uint256","indexed":false,"internalType":"uint256"},{"name":"isLong","type":"bool","indexed":false,"internalType":"bool"},{"name":"triggerPrice","type":"uint256","indexed":false,"internalType":"uint256"},{"name":"triggerAboveThreshold","type":"bool","indexed":false,"internalType":"bool"},{"name":"executionFee","type":"uint256","indexed":false,"internalType":"uint256"}],"anonymous":false},{"type":"event","name":"CancelSwapOrder","inputs":[{"name":"account","type":"address","indexed":true,"internalType":"address"},{"name":"orderIndex","type":"uint256","indexed":false,"internalType":"uint256"},{"name":"path","type":"address[]","indexed":false,"internalType":"address[]"},{"name":"amountIn","type":"uint256","indexed":false,"internalType":"uint256"},{"name":"minOut","type":"uint256","indexed":false,"internalType":"uint256"},{"name":"triggerRatio","type":"uint256","indexed":false,"internalType":"uint256"},{"name":"triggerAboveThreshold","type":"bool","indexed":false,"internalType":"bool"},{"name":"shouldUnwrap","type":"bool","indexed":false,"internalType":"bool"},{"name":"executionFee","type":"uint256","indexed":false,"internalType":"uint256"}],"anonymous":false},{"type":"event","name":"CreateDecreaseOrder","inputs":[{"name":"account","type":"address","indexed":true,"internalType":"address"},{"name":"orderIndex","type":"uint256","indexed":false,"internalType":"uint256"},{"name":"collateralToken","type":"address","indexed":false,"internalType":"address"},{"name":"collateralDelta","type":"uint256","indexed":false,"internalType":"uint256"},{"name":"indexToken","type":"address","indexed":false,"internalType":"address"},{"name":"sizeDelta","type":"uint256","indexed":false,"internalType":"uint256"},{"name":"isLong","type":"bool","indexed":false,"internalType":"bool"},{"name":"triggerPrice","type":"uint256","indexed":false,"internalType":"uint256"},{"name":"triggerAboveThreshold","type":"bool","indexed":false,"internalType":"bool"},{"name":"executionFee","type":"uint256","indexed":false,"internalType":"uint256"}],"anonymous":false},{"type":"event","name":"CreateIncreaseOrder","inputs":[{"name":"account","type":"address","indexed":true,"internalType":"address"},{"name":"orderIndex","type":"uint256","indexed":false,"internalType":"uint256"},{"name":"purchaseToken","type":"address","indexed":false,"internalType":"address"},{"name":"purchaseTokenAmount","type":"uint256","indexed":false,"internalType":"uint256"},{"name":"collateralToken","type":"address","indexed":false,"internalType":"address"},{"name":"indexToken","type":"address","indexed":false,"internalType":"address"},{"name":"sizeDelta","type":"uint256","indexed":false,"internalType":"uint256"},{"name":"isLong","type":"bool","indexed":false,"internalType":"bool"},{"name":"triggerPrice","type":"uint256","indexed":false,"internalType":"uint256"},{"name":"triggerAboveThreshold","type":"bool","indexed":false,"internalType":"bool"},{"name":"executionFee","type":"uint256","indexed":false,"internalType":"uint256"}],"anonymous":false},{"type":"event","name":"CreateSwapOrder","inputs":[{"name":"account","type":"address","indexed":true,"internalType":"address"},{"name":"orderIndex","type":"uint256","indexed":false,"internalType":"uint256"},{"name":"path","type":"address[]","indexed":false,"internalType":"address[]"},{"name":"amountIn","type":"uint256","indexed":false,"internalType":"uint256"},{"name":"minOut","type":"uint256","indexed":false,"internalType":"uint256"},{"name":"triggerRatio","type":"uint256","indexed":false,"internalType":"uint256"},{"name":"triggerAboveThreshold","type":"bool","indexed":false,"internalType":"bool"},{"name":"shouldUnwrap","type":"bool","indexed":false,"internalType":"bool"},{"name":"executionFee","type":"uint256","indexed":false,"internalType":"uint256"}],"anonymous":false},{"type":"event","name":"ExecuteDecreaseOrder","inputs":[{"name":"account","type":"address","indexed":true,"internalType":"address"},{"name":"orderIndex","type":"uint256","indexed":false,"internalType":"uint256"},{"name":"collateralToken","type":"address","indexed":false,"internalType":"address"},{"name":"collateralDelta","type":"uint256","indexed":false,"internalType":"uint256"},{"name":"indexToken","type":"address","indexed":false,"internalType":"address"},{"name":"sizeDelta","type":"uint256","indexed":false,"internalType":"uint256"},{"name":"isLong","type":"bool","indexed":false,"internalType":"bool"},{"name":"triggerPrice","type":"uint256","indexed":false,"internalType":"uint256"},{"name":"triggerAboveThreshold","type":"bool","indexed":false,"internalType":"bool"},{"name":"executionFee","type":"uint256","indexed":false,"internalType":"uint256"},{"name":"executionPrice","type":"uint256","indexed":false,"internalType":"uint256"}],"anonymous":false},{"type":"event","name":"ExecuteIncreaseOrder","inputs":[{"name":"account","type":"address","indexed":true,"internalType":"address"},{"name":"orderIndex","type":"uint256","indexed":false,"internalType":"uint256"},{"name":"purchaseToken","type":"address","indexed":false,"internalType":"address"},{"name":"purchaseTokenAmount","type":"uint256","indexed":false,"internalType":"uint256"},{"name":"collateralToken","type":"address","indexed":false,"internalType":"address"},{"name":"indexToken","type":"address","indexed":false,"internalType":"address"},{"name":"sizeDelta","type":"uint256","indexed":false,"internalType":"uint256"},{"name":"isLong","type":"bool","indexed":false,"internalType":"bool"},{"name":"triggerPrice","type":"uint256","indexed":false,"internalType":"uint256"},{"name":"triggerAboveThreshold","type":"bool","indexed":false,"internalType":"bool"},{"name":"executionFee","type":"uint256","indexed":false,"internalType":"uint256"},{"name":"executionPrice","type":"uint256","indexed":false,"internalType":"uint256"}],"anonymous":false},{"type":"event","name":"ExecuteSwapOrder","inputs":[{"name":"account","type":"address","indexed":true,"internalType":"address"},{"name":"orderIndex","type":"uint256","indexed":false,"internalType":"uint256"},{"name":"path","type":"address[]","indexed":false,"internalType":"address[]"},{"name":"amountIn","type":"uint256","indexed":false,"internalType":"uint256"},{"name":"minOut","type":"uint256","indexed":false,"internalType":"uint256"},{"name":"amountOut","type":"uint256","indexed":false,"internalType":"uint256"},{"name":"triggerRatio","type":"uint256","indexed":false,"internalType":"uint256"},{"name":"triggerAboveThreshold","type":"bool","indexed":false,"internalType":"bool"},{"name":"shouldUnwrap","type":"bool","indexed":false,"internalType":"bool"},{"name":"executionFee","type":"uint256","indexed":false,"internalType":"uint256"}],"anonymous":false},{"type":"event","name":"Initialize","inputs":[{"name":"router","type":"address","indexed":false,"internalType":"address"},{"name":"vault","type":"address","indexed":false,"internalType":"address"},{"name":"weth","type":"address","indexed":false,"internalType":"address"},{"name":"usdg","type":"address","indexed":false,"internalType":"address"},{"name":"minExecutionFee","type":"uint256","indexed":false,"internalType":"uint256"},{"name":"minPurchaseTokenAmountUsd","type":"uint256","indexed":false,"internalType":"uint256"}],"anonymous":false},{"type":"event","name":"UpdateDecreaseOrder","inputs":[{"name":"account","type":"address","indexed":true,"internalType":"address"},{"name":"orderIndex","type":"uint256","indexed":false,"internalType":"uint256"},{"name":"collateralToken","type":"address","indexed":false,"internalType":"address"},{"name":"collateralDelta","type":"uint256","indexed":false,"internalType":"uint256"},{"name":"indexToken","type":"address","indexed":false,"internalType":"address"},{"name":"sizeDelta","type":"uint256","indexed":false,"internalType":"uint256"},{"name":"isLong","type":"bool","indexed":false,"internalType":"bool"},{"name":"triggerPrice","type":"uint256","indexed":false,"internalType":"uint256"},{"name":"triggerAboveThreshold","type":"bool","indexed":false,"internalType":"bool"}],"anonymous":false},{"type":"event","name":"UpdateGov","inputs":[{"name":"gov","type":"address","indexed":false,"internalType":"address"}],"anonymous":false},{"type":"event","name":"UpdateIncreaseOrder","inputs":[{"name":"account","type":"address","indexed":true,"internalType":"address"},{"name":"orderIndex","type":"uint256","indexed":false,"internalType":"uint256"},{"name":"collateralToken","type":"address","indexed":false,"internalType":"address"},{"name":"indexToken","type":"address","indexed":false,"internalType":"address"},{"name":"isLong","type":"bool","indexed":false,"internalType":"bool"},{"name":"sizeDelta","type":"uint256","indexed":false,"internalType":"uint256"},{"name":"triggerPrice","type":"uint256","indexed":false,"internalType":"uint256"},{"name":"triggerAboveThreshold","type":"bool","indexed":false,"internalType":"bool"}],"anonymous":false},{"type":"event","name":"UpdateMinExecutionFee","inputs":[{"name":"minExecutionFee","type":"uint256","indexed":false,"internalType":"uint256"}],"anonymous":false},{"type":"event","name":"UpdateMinPurchaseTokenAmountUsd","inputs":[{"name":"minPurchaseTokenAmountUsd","type":"uint256","indexed":false,"internalType":"uint256"}],"anonymous":false},{"type":"event","name":"UpdateSwapOrder","inputs":[{"name":"account","type":"address","indexed":true,"internalType":"address"},{"name":"ordexIndex","type":"uint256","indexed":false,"internalType":"uint256"},{"name":"path","type":"address[]","indexed":false,"internalType":"address[]"},{"name":"amountIn","type":"uint256","indexed":false,"internalType":"uint256"},{"name":"minOut","type":"uint256","indexed":false,"internalType":"uint256"},{"name":"triggerRatio","type":"uint256","indexed":false,"internalType":"uint256"},{"name":"triggerAboveThreshold","type":"bool","indexed":false,"internalType":"bool"},{"name":"shouldUnwrap","type":"bool","indexed":false,"internalType":"bool"},{"name":"executionFee","type":"uint256","indexed":false,"internalType":"uint256"}],"anonymous":false}],"bytecode":{"object":"0x6080604052600e805460ff1916905534801561001a57600080fd5b506001600055600780546001600160a01b03191633179055615457806100416000396000f3fe6080604052600436106102335760003560e01c80639e23de5c1161012e578063d38ab519116100ab578063f5b91b7b1161006f578063f5b91b7b14610f08578063f882ac0714610f1d578063f887ea4014610f47578063fbfa77cf14610f5c578063fc2cee6214610f7157610299565b8063d38ab51914610d11578063d3bab1d114610d54578063d566d0ca14610de8578063d7c41c7914610e1b578063f2d2e01b14610e7457610299565b8063c16cde8a116100f2578063c16cde8a14610b0d578063c4a1821b14610b5d578063c86b0f7d14610c0d578063cfad57a214610c4b578063d0d40cd614610c7e57610299565b80639e23de5c1461094f5780639e71b0f014610982578063a397ea54146109ac578063aec22455146109f0578063b142a4b014610a2357610299565b80633fc8cef3116101bc57806379221fa21161018057806379221fa2146106b6578063807c5600146107355780638de10c2e146108e757806395082d25146108fc5780639983ee1b1461091157610299565b80633fc8cef3146105e357806347e0bbd0146105f85780634a686d67146106225780634c54f0b01461063757806363ae2103146106a157610299565b806311d9444a1161020357806311d9444a146103db57806312d43a511461041e578063269ae6c21461044f5780632b7d62901461051a578063392e53cd146105ba57610299565b8062cf066b1461029e578063026032ee146102e357806307c7edc31461036e5780630d5cc938146103b157610299565b36610299576008546001600160a01b03163314610297576040805162461bcd60e51b815260206004820152601960248201527f4f72646572426f6f6b3a20696e76616c69642073656e64657200000000000000604482015290519081900360640190fd5b005b600080fd5b3480156102aa57600080fd5b506102d1600480360360208110156102c157600080fd5b50356001600160a01b0316610f9b565b60408051918252519081900360200190f35b3480156102ef57600080fd5b5061031c6004803603604081101561030657600080fd5b506001600160a01b038135169060200135610fad565b604080516001600160a01b03998a168152602081019890985295909716868601526060860193909352901515608085015260a0840152151560c083015260e08201929092529051908190036101000190f35b34801561037a57600080fd5b506102976004803603606081101561039157600080fd5b506001600160a01b03813581169160208101359160409091013516611080565b3480156103bd57600080fd5b50610297600480360360208110156103d457600080fd5b503561148b565b3480156103e757600080fd5b50610297600480360360608110156103fe57600080fd5b506001600160a01b0381358116916020810135916040909101351661151c565b34801561042a57600080fd5b506104336118cb565b604080516001600160a01b039092168252519081900360200190f35b610297600480360361010081101561046657600080fd5b810190602081018135600160201b81111561048057600080fd5b82018360208201111561049257600080fd5b803590602001918460208302840111600160201b831117156104b357600080fd5b91908080602002602001604051908101604052809392919081815260200183836020028082843760009201919091525092955050823593505050602081013590604081013590606081013515159060808101359060a081013515159060c0013515156118da565b34801561052657600080fd5b506105536004803603604081101561053d57600080fd5b506001600160a01b038135169060200135611c76565b604080516001600160a01b039b8c168152998b1660208b015289810198909852958916606089015293909716608087015260a0860191909152151560c085015260e08401949094529215156101008301526101208201929092529051908190036101400190f35b3480156105c657600080fd5b506105cf611ce8565b604080519115158252519081900360200190f35b3480156105ef57600080fd5b50610433611cf1565b34801561060457600080fd5b506102976004803603602081101561061b57600080fd5b5035611d00565b34801561062e57600080fd5b506102d161200a565b34801561064357600080fd5b50610688600480360360a081101561065a57600080fd5b5080351515906020810135906001600160a01b03604082013516906060810135151590608001351515612016565b6040805192835290151560208301528051918290030190f35b3480156106ad57600080fd5b506102d161217f565b3480156106c257600080fd5b506106ef600480360360408110156106d957600080fd5b506001600160a01b038135169060200135612185565b604080516001600160a01b039098168852602088019690965286860194909452606086019290925215156080850152151560a084015260c0830152519081900360e00190f35b34801561074157600080fd5b506102976004803603606081101561075857600080fd5b810190602081018135600160201b81111561077257600080fd5b82018360208201111561078457600080fd5b803590602001918460208302840111600160201b831117156107a557600080fd5b9190808060200260200160405190810160405280939291908181526020018383602002808284376000920191909152509295949360208101935035915050600160201b8111156107f457600080fd5b82018360208201111561080657600080fd5b803590602001918460208302840111600160201b8311171561082757600080fd5b9190808060200260200160405190810160405280939291908181526020018383602002808284376000920191909152509295949360208101935035915050600160201b81111561087657600080fd5b82018360208201111561088857600080fd5b803590602001918460208302840111600160201b831117156108a957600080fd5b9190808060200260200160405190810160405280939291908181526020018383602002808284376000920191909152509295506121d9945050505050565b3480156108f357600080fd5b506102d1612271565b34801561090857600080fd5b506102d1612277565b34801561091d57600080fd5b506102976004803603608081101561093457600080fd5b50803590602081013590604081013590606001351515612288565b34801561095b57600080fd5b506102d16004803603602081101561097257600080fd5b50356001600160a01b03166123e0565b34801561098e57600080fd5b50610297600480360360208110156109a557600080fd5b503561258a565b3480156109b857600080fd5b50610297600480360360a08110156109cf57600080fd5b508035906020810135906040810135906060810135906080013515156127fc565b3480156109fc57600080fd5b506102d160048036036020811015610a1357600080fd5b50356001600160a01b0316612964565b6102976004803603610160811015610a3a57600080fd5b810190602081018135600160201b811115610a5457600080fd5b820183602082011115610a6657600080fd5b803590602001918460208302840111600160201b83111715610a8757600080fd5b9190808060200260200160405190810160405280939291908181526020018383602002808284376000920191909152509295505082359350506001600160a01b036020830135811692604081013592506060810135916080820135169060a081013515159060c08101359060e08101351515906101008101359061012001351515612976565b610297600480360360e0811015610b2357600080fd5b506001600160a01b03813581169160208101359160408201351690606081013590608081013515159060a08101359060c001351515612d78565b348015610b6957600080fd5b506105cf60048036036040811015610b8057600080fd5b810190602081018135600160201b811115610b9a57600080fd5b820183602082011115610bac57600080fd5b803590602001918460208302840111600160201b83111715610bcd57600080fd5b9190808060200260200160405190810160405280939291908181526020018383602002808284376000920191909152509295505091359250612e29915050565b348015610c1957600080fd5b5061029760048036036080811015610c3057600080fd5b50803590602081013590604081013590606001351515613054565b348015610c5757600080fd5b5061029760048036036020811015610c6e57600080fd5b50356001600160a01b031661321d565b348015610c8a57600080fd5b50610cb760048036036040811015610ca157600080fd5b506001600160a01b0381351690602001356132c7565b604080516001600160a01b039a8b168152988a1660208a015296909816878701526060870194909452608086019290925260a0850152151560c0840152151560e08301526101008201929092529051908190036101200190f35b348015610d1d57600080fd5b5061029760048036036060811015610d3457600080fd5b506001600160a01b03813581169160208101359160409091013516613484565b348015610d6057600080fd5b50610d8d60048036036040811015610d7757600080fd5b506001600160a01b0381351690602001356138ed565b604080516001600160a01b039a8b1681526020810199909952968916888801529490971660608701526080860192909252151560a085015260c084015292151560e08301526101008201929092529051908190036101200190f35b348015610df457600080fd5b506102d160048036036020811015610e0b57600080fd5b50356001600160a01b03166139d3565b348015610e2757600080fd5b50610297600480360360c0811015610e3e57600080fd5b506001600160a01b0381358116916020810135821691604082013581169160608101359091169060808101359060a001356139e5565b348015610e8057600080fd5b50610ead60048036036040811015610e9757600080fd5b506001600160a01b038135169060200135613b54565b604080516001600160a01b039a8b168152988a1660208a0152888101979097529490971660608701526080860192909252151560a085015260c084015292151560e08301526101008201929092529051908190036101200190f35b348015610f1457600080fd5b50610433613bbe565b348015610f2957600080fd5b5061029760048036036020811015610f4057600080fd5b5035613bcd565b348015610f5357600080fd5b50610433613f0a565b348015610f6857600080fd5b50610433613f19565b348015610f7d57600080fd5b5061029760048036036020811015610f9457600080fd5b5035613f28565b60066020526000908152604090205481565b600080600080600080600080610fc1615083565b505050506001600160a01b03968716600090815260036020818152604080842099845298815291889020885161012081018a5281548b16815260018201548b1693810184905260028201549981018a9052918101549099166060820181905260048a01546080830181905260058b015460ff908116151560a0850181905260068d015460c0860181905260078e0154909216151560e086018190526008909d0154610100909501859052949c9a9b929a91995093975092955093509150565b600260005414156110c6576040805162461bcd60e51b815260206004820152601f6024820152600080516020615250833981519152604482015290519081900360640190fd5b60026000556110d36150cf565b6001600160a01b0380851660009081526005602090815260408083208784528252918290208251610100810184528154909416845260018101805484518185028101850190955280855291938584019390929083018282801561115f57602002820191906000526020600020905b81546001600160a01b03168152600190910190602001808311611141575b5050509183525050600282015460208201526003820154604082015260048201546060820152600582015460ff8082161515608084015261010090910416151560a082015260069091015460c09091015280519091506001600160a01b03166111fd576040805162461bcd60e51b815260206004820152601d6024820152600080516020615230833981519152604482015290519081900360640190fd5b8060a00151156112545761121981602001518260800151612e29565b6112545760405162461bcd60e51b81526004018080602001828103825260268152602001806153a46026913960400191505060405180910390fd5b6001600160a01b0384166000908152600560209081526040808320868452909152812080546001600160a01b0319168155906112936001830182615121565b50600060028201819055600382018190556004820181905560058201805461ffff191690556006909101819055600b54604083015160208401518051611306946001600160a01b0390941693906112e657fe5b60200260200101516001600160a01b0316613fb99092919063ffffffff16565b600854602082015180516000926001600160a01b03169190600019810190811061132c57fe5b60200260200101516001600160a01b031614801561134b57508160c001515b15611378576113638260200151836060015130614010565b9050611373818360000151614151565b611392565b61138f826020015183606001518460000151614010565b90505b6113a08260e0015184614151565b846001600160a01b03167f7e1fe496989eea92b738a562dbf9c0ae6aa6fcf3f1ef09e95ee4f7603721706b858460200151856040015186606001518688608001518960a001518a60c001518b60e00151604051808a8152602001806020018981526020018881526020018781526020018681526020018515158152602001841515815260200183815260200182810382528a818151815260200191508051906020019060200280838360005b8381101561146457818101518382015260200161144c565b505050509050019a505050505050505050505060405180910390a250506001600055505050565b6007546001600160a01b031633146114e1576040805162461bcd60e51b815260206004820152601460248201527327b93232b92137b7b59d103337b93134b23232b760611b604482015290519081900360640190fd5b600d8190556040805182815290517fe46d9daf6d25f7615efa1d0183b90ac6759d85014b598e409aadf0fd918d59a69181900360200190a150565b60026000541415611562576040805162461bcd60e51b815260206004820152601f6024820152600080516020615250833981519152604482015290519081900360640190fd5b600260005561156f615083565b506001600160a01b03808416600090815260036020818152604080842087855282529283902083516101208101855281548616808252600183015487169382019390935260028201549481019490945291820154909316606083015260048101546080830152600581015460ff908116151560a0840152600682015460c0840152600782015416151560e08301526008015461010082015290611647576040805162461bcd60e51b815260206004820152601d6024820152600080516020615230833981519152604482015290519081900360640190fd5b60006116688260e001518360c0015184606001518560a00151156001612016565b506001600160a01b0380871660009081526003602081815260408084208a8552825280842080546001600160a01b0319908116825560018201805482169055600282018690559381018054909416909355600480840185905560058401805460ff199081169091556006850186905560078501805490911690556008909301849055600a5488518984015160608b01518b85015160808d015160a08e01518751632662166b60e01b8152958c1699860199909952928a16602485015290891660448401526064830152608482015293151560a48501523060c4850152905195965092949290931692632662166b9260e48084019382900301818787803b15801561177157600080fd5b505af1158015611785573d6000803e3d6000fd5b505050506040513d602081101561179b57600080fd5b505160085460208501519192506001600160a01b03918216911614156117ce576117c9818460000151614151565b6117eb565b825160208401516117eb916001600160a01b039091169083613fb9565b6117fa83610100015185614151565b82600001516001600160a01b03167f9a382661d6573da86db000471303be6f0b2b1bb66089b08e3c16a85d7b6e94f88685602001518660400151876060015188608001518960a001518a60c001518b60e001518c61010001518c604051808b81526020018a6001600160a01b03168152602001898152602001886001600160a01b03168152602001878152602001861515815260200185815260200184151581526020018381526020018281526020019a505050505050505050505060405180910390a25050600160005550505050565b6007546001600160a01b031681565b60026000541415611920576040805162461bcd60e51b815260206004820152601f6024820152600080516020615250833981519152604482015290519081900360640190fd5b6002600081905588511480611936575087516003145b611987576040805162461bcd60e51b815260206004820152601f60248201527f4f72646572426f6f6b3a20696e76616c6964205f706174682e6c656e67746800604482015290519081900360640190fd5b8760018951038151811061199757fe5b60200260200101516001600160a01b0316886000815181106119b557fe5b60200260200101516001600160a01b03161415611a14576040805162461bcd60e51b815260206004820152601860248201527709ee4c8cae484deded67440d2dcecc2d8d2c840bee0c2e8d60431b604482015290519081900360640190fd5b60008711611a69576040805162461bcd60e51b815260206004820152601c60248201527f4f72646572426f6f6b3a20696e76616c6964205f616d6f756e74496e00000000604482015290519081900360640190fd5b600c54831015611aaa5760405162461bcd60e51b81526004018080602001828103825260258152602001806153386025913960400191505060405180910390fd5b611ab26141ce565b8115611b6d5760085488516001600160a01b03909116908990600090611ad457fe5b60200260200101516001600160a01b031614611b215760405162461bcd60e51b81526004018080602001828103825260258152602001806153136025913960400191505060405180910390fd5b611b2b8388614240565b3414611b685760405162461bcd60e51b815260040180806020018281038252602681526020018061537e6026913960400191505060405180910390fd5b611c57565b823414611bab5760405162461bcd60e51b815260040180806020018281038252602e8152602001806153f4602e913960400191505060405180910390fd5b600a5488516001600160a01b0390911690631b827878908a90600090611bcd57fe5b602002602001015133308b6040518563ffffffff1660e01b815260040180856001600160a01b03168152602001846001600160a01b03168152602001836001600160a01b03168152602001828152602001945050505050600060405180830381600087803b158015611c3e57600080fd5b505af1158015611c52573d6000803e3d6000fd5b505050505b611c67338989898989878a61429a565b50506001600055505050505050565b6001602081815260009384526040808520909152918352912080549181015460028201546003830154600484015460058501546006860154600787015460088801546009909801546001600160a01b03998a1699978816989697958616969490951694929360ff92831693919216908a565b600e5460ff1681565b6008546001600160a01b031681565b60026000541415611d46576040805162461bcd60e51b815260206004820152601f6024820152600080516020615250833981519152604482015290519081900360640190fd5b6002600055611d53615142565b5033600090815260016020818152604080842085855282529283902083516101408101855281546001600160a01b039081168083529483015481169382019390935260028201549481019490945260038101548216606085015260048101549091166080840152600581015460a0840152600681015460ff908116151560c0850152600782015460e0850152600882015416151561010084015260090154610120830152611e36576040805162461bcd60e51b815260206004820152601d6024820152600080516020615230833981519152604482015290519081900360640190fd5b3360009081526001602081815260408084208685528252832080546001600160a01b0319908116825592810180548416905560028101849055600381018054841690556004810180549093169092556005820183905560068201805460ff19908116909155600783018490556008808401805490921690915560099092019290925554908201516001600160a01b0390811691161415611efa57611ef5611eef826040015183610120015161424090919063ffffffff16565b33614151565b611f2f565b611f2033826040015183602001516001600160a01b0316613fb99092919063ffffffff16565b611f2f81610120015133614151565b80600001516001600160a01b03167fd500f34e0ec655b7614ae42e1d9c666d5e4dde909a1297829f8c5ecf00805d328383602001518460400151856060015186608001518760a001518860c001518960e001518a61010001518b6101200151604051808b81526020018a6001600160a01b03168152602001898152602001886001600160a01b03168152602001876001600160a01b03168152602001868152602001851515815260200184815260200183151581526020018281526020019a505050505050505050505060405180910390a250506001600055565b670de0b6b3a764000081565b60008060008461209e57600b54604080516340d3096b60e11b81526001600160a01b038981166004830152915191909216916381a612d6916024808301926020929190829003018186803b15801561206d57600080fd5b505afa158015612081573d6000803e3d6000fd5b505050506040513d602081101561209757600080fd5b5051612118565b600b5460408051637092736960e11b81526001600160a01b0389811660048301529151919092169163e124e6d2916024808301926020929190829003018186803b1580156120eb57600080fd5b505afa1580156120ff573d6000803e3d6000fd5b505050506040513d602081101561211557600080fd5b50515b90506000886121295787821061212d565b8782115b9050841561217157806121715760405162461bcd60e51b81526004018080602001828103825260268152602001806153a46026913960400191505060405180910390fd5b909890975095505050505050565b600c5481565b600560208181526000938452604080852090915291835291208054600282015460038301546004840154948401546006909401546001600160a01b03909316949193909260ff808316926101009004169087565b60005b8351811015612209576122018482815181106121f457fe5b6020026020010151613bcd565b6001016121dc565b5060005b825181101561223a5761223283828151811061222557fe5b6020026020010151611d00565b60010161220d565b5060005b815181101561226b5761226382828151811061225657fe5b602002602001015161258a565b60010161223e565b50505050565b600d5481565b6c0c9f2c9cd04674edea4000000081565b600260005414156122ce576040805162461bcd60e51b815260206004820152601f6024820152600080516020615250833981519152604482015290519081900360640190fd5b60026000908155338152600160209081526040808320878452909152902080546001600160a01b0316612336576040805162461bcd60e51b815260206004820152601d6024820152600080516020615230833981519152604482015290519081900360640190fd5b6007810183905560088101805483151560ff19909116811790915560058201859055600382015460048301546006840154604080518a81526001600160a01b039485166020820152929093168284015260ff16151560608201526080810187905260a0810186905260c08101929092525133917f0a0360dd5c354235bbf8d386ba3b24ef8134088e0785677de1504df219d9149a919081900360e00190a250506001600055505050565b600b5460408051632c668ec160e01b81526001600160a01b038481166004830152670de0b6b3a76400006024830152915160009384931691632c668ec1916044808301926020929190829003018186803b15801561243d57600080fd5b505afa158015612451573d6000803e3d6000fd5b505050506040513d602081101561246757600080fd5b5051600b54604080516340d3096b60e11b81526001600160a01b038781166004830152915193945060009391909216916381a612d6916024808301926020929190829003018186803b1580156124bc57600080fd5b505afa1580156124d0573d6000803e3d6000fd5b505050506040513d60208110156124e657600080fd5b5051600b54604080516323b95ceb60e21b81526001600160a01b03888116600483015291519394506000939190921691638ee573ac916024808301926020929190829003018186803b15801561253b57600080fd5b505afa15801561254f573d6000803e3d6000fd5b505050506040513d602081101561256557600080fd5b50519050612581600a82900a61257b85856144a9565b90614502565b95945050505050565b600260005414156125d0576040805162461bcd60e51b815260206004820152601f6024820152600080516020615250833981519152604482015290519081900360640190fd5b60026000556125dd615083565b5033600090815260036020818152604080842085855282529283902083516101208101855281546001600160a01b03908116808352600184015482169483019490945260028301549582019590955292810154909316606083015260048301546080830152600583015460ff908116151560a0840152600684015460c0840152600784015416151560e0830152600890920154610100820152906126b6576040805162461bcd60e51b815260206004820152601d6024820152600080516020615230833981519152604482015290519081900360640190fd5b336000818152600360208181526040808420878552909152822080546001600160a01b03199081168255600182018054821690556002820184905591810180549092169091556004810182905560058101805460ff199081169091556006820183905560078201805490911690556008015561010082015161273791614151565b80600001516001600160a01b03167f1154174c82984656b028c8021671988f60a346497e56fe02554761184f82a0758383602001518460400151856060015186608001518760a001518860c001518960e001518a6101000151604051808a8152602001896001600160a01b03168152602001888152602001876001600160a01b0316815260200186815260200185151581526020018481526020018315158152602001828152602001995050505050505050505060405180910390a250506001600055565b60026000541415612842576040805162461bcd60e51b815260206004820152601f6024820152600080516020615250833981519152604482015290519081900360640190fd5b60026000908155338152600360209081526040808320888452909152902080546001600160a01b03166128aa576040805162461bcd60e51b815260206004820152601d6024820152600080516020615230833981519152604482015290519081900360640190fd5b6006810183905560078101805483151560ff1990911681179091556004820185905560028201869055600182015460038301546005840154604080518b81526001600160a01b0394851660208201528082018b90529290931660608301526080820188905260ff16151560a082015260c0810186905260e08101929092525133917f75781255bc71c83f89f29e5a2599f2c174a562d2cd8f2e818a47f132e728049891908190036101000190a25050600160005550505050565b60026020526000908152604090205481565b600260005414156129bc576040805162461bcd60e51b815260206004820152601f6024820152600080516020615250833981519152604482015290519081900360640190fd5b60026000556129c96141ce565b600c54821015612a0a5760405162461bcd60e51b81526004018080602001828103825260258152602001806153386025913960400191505060405180910390fd5b8015612ac5576008548b516001600160a01b03909116908c90600090612a2c57fe5b60200260200101516001600160a01b031614612a795760405162461bcd60e51b81526004018080602001828103825260258152602001806153136025913960400191505060405180910390fd5b612a83828b614240565b3414612ac05760405162461bcd60e51b815260040180806020018281038252602681526020018061537e6026913960400191505060405180910390fd5b612baf565b813414612b035760405162461bcd60e51b815260040180806020018281038252602e8152602001806153f4602e913960400191505060405180910390fd5b600a548b516001600160a01b0390911690631b827878908d90600090612b2557fe5b602002602001015133308e6040518563ffffffff1660e01b815260040180856001600160a01b03168152602001846001600160a01b03168152602001836001600160a01b03168152602001828152602001945050505050600060405180830381600087803b158015612b9657600080fd5b505af1158015612baa573d6000803e3d6000fd5b505050505b60008b60018d510381518110612bc157fe5b60200260200101519050600060018d511115612c8657816001600160a01b03168d600081518110612bee57fe5b60200260200101516001600160a01b03161415612c4d576040805162461bcd60e51b815260206004820152601860248201527709ee4c8cae484deded67440d2dcecc2d8d2c840bee0c2e8d60431b604482015290519081900360640190fd5b612c74600b60009054906101000a90046001600160a01b03168d8f6000815181106112e657fe5b612c7f8d8b30614010565b9050612c89565b508a5b600b5460408051630a48d5a960e01b81526001600160a01b0385811660048301526024820185905291516000939290921691630a48d5a991604480820192602092909190829003018186803b158015612ce157600080fd5b505afa158015612cf5573d6000803e3d6000fd5b505050506040513d6020811015612d0b57600080fd5b5051600d54909150811015612d515760405162461bcd60e51b81526004018080602001828103825260228152602001806152706022913960400191505060405180910390fd5b50612d643383838b8f8e8d8d8d8d614544565b505060016000555050505050505050505050565b60026000541415612dbe576040805162461bcd60e51b815260206004820152601f6024820152600080516020615250833981519152604482015290519081900360640190fd5b6002600055612dcb6141ce565b600c543411612e0b5760405162461bcd60e51b81526004018080602001828103825260258152602001806153386025913960400191505060405180910390fd5b612e1b3386868a8a888888614817565b505060016000555050505050565b6000825160021480612e3c575082516003145b612e8d576040805162461bcd60e51b815260206004820152601f60248201527f4f72646572426f6f6b3a20696e76616c6964205f706174682e6c656e67746800604482015290519081900360640190fd5b600083600081518110612e9c57fe5b60200260200101519050600084600186510381518110612eb857fe5b602090810291909101015160095490915060009081906001600160a01b0385811691161415612f0557612efe87600181518110612ef157fe5b60200260200101516123e0565b9150612f81565b600b54604080516340d3096b60e11b81526001600160a01b038781166004830152915191909216916381a612d6916024808301926020929190829003018186803b158015612f5257600080fd5b505afa158015612f66573d6000803e3d6000fd5b505050506040513d6020811015612f7c57600080fd5b505191505b6009546001600160a01b0384811691161415612fab57506c0c9f2c9cd04674edea40000000613027565b600b5460408051637092736960e11b81526001600160a01b0386811660048301529151919092169163e124e6d2916024808301926020929190829003018186803b158015612ff857600080fd5b505afa15801561300c573d6000803e3d6000fd5b505050506040513d602081101561302257600080fd5b505190505b60006130448361257b846c0c9f2c9cd04674edea400000006144a9565b8710955050505050505b92915050565b6002600054141561309a576040805162461bcd60e51b815260206004820152601f6024820152600080516020615250833981519152604482015290519081900360640190fd5b60026000908155338152600560209081526040808320878452909152902080546001600160a01b0316613102576040805162461bcd60e51b815260206004820152601d6024820152600080516020615230833981519152604482015290519081900360640190fd5b838160030181905550828160040181905550818160050160006101000a81548160ff021916908315150217905550336001600160a01b03167fa7f9f4a25eb76f5ec01b1a429d95d6a00833f0f137c88827c58799a1c1ff0dfe868360010184600201548888888860050160019054906101000a900460ff16896006015460405180898152602001806020018881526020018781526020018681526020018515158152602001841515815260200183815260200182810382528981815481526020019150805480156131fc57602002820191906000526020600020905b81546001600160a01b031681526001909101906020018083116131de575b5050995050505050505050505060405180910390a250506001600055505050565b6007546001600160a01b03163314613273576040805162461bcd60e51b815260206004820152601460248201527327b93232b92137b7b59d103337b93134b23232b760611b604482015290519081900360640190fd5b600780546001600160a01b0383166001600160a01b0319909116811790915560408051918252517fe24c39186e9137521953beaa8446e71f55b8f12296984f9d4273ceb1af728d909181900360200190a150565b60008060008060008060008060006132dd6150cf565b6001600160a01b03808d1660009081526005602090815260408083208f84528252918290208251610100810184528154909416845260018101805484518185028101850190955280855291938584019390929083018282801561336957602002820191906000526020600020905b81546001600160a01b0316815260019091019060200180831161334b575b505050918352505060028201546020808301919091526003830154604083015260048301546060830152600583015460ff8082161515608085015261010090910416151560a083015260069092015460c090910152810151519091506133d05760006133ea565b80602001516000815181106133e157fe5b60200260200101515b6001826020015151116133fe576000613418565b816020015160018151811061340f57fe5b60200260200101515b60028360200151511161342c576000613446565b826020015160028151811061343d57fe5b60200260200101515b8360400151846060015185608001518660a001518760c001518860e00151995099509950995099509950995099509950509295985092959850929598565b600260005414156134ca576040805162461bcd60e51b815260206004820152601f6024820152600080516020615250833981519152604482015290519081900360640190fd5b60026000556134d7615142565b506001600160a01b038084166000908152600160208181526040808420878552825292839020835161014081018552815486168082529382015486169281019290925260028101549382019390935260038301548416606082015260048301549093166080840152600582015460a0840152600682015460ff908116151560c0850152600783015460e085015260088301541615156101008401526009909101546101208301526135bd576040805162461bcd60e51b815260206004820152601d6024820152600080516020615230833981519152604482015290519081900360640190fd5b60006135de8261010001518360e0015184608001518560c001516001612016565b506001600160a01b0380871660009081526001602081815260408084208a8552825280842080546001600160a01b0319908116825593810180548516905560028101859055600381018054851690556004810180549094169093556005830184905560068301805460ff19908116909155600784018590556008840180549091169055600990920192909255600b549086015191860151939450613686938316921690613fb9565b81606001516001600160a01b031682602001516001600160a01b03161461375e5760408051600280825260608083018452926020830190803683370190505090508260200151816000815181106136d957fe5b60200260200101906001600160a01b031690816001600160a01b03168152505082606001518160018151811061370b57fe5b60200260200101906001600160a01b031690816001600160a01b031681525050600061373982600030614010565b600b54606086015191925061375b916001600160a01b03908116911683613fb9565b50505b600a5482516060840151608085015160a086015160c087015160408051630f8ee8bb60e11b81526001600160a01b03968716600482015294861660248601529285166044850152606484019190915215156084830152519190921691631f1dd1769160a480830192600092919082900301818387803b1580156137e057600080fd5b505af11580156137f4573d6000803e3d6000fd5b5050505061380782610120015184614151565b81600001516001600160a01b03167f7fb1c74d1ea6aa1c9c585e17ce8274c8ff98745e85e7459b73f87d784494f58e8584602001518560400151866060015187608001518860a001518960c001518a60e001518b61010001518c61012001518c604051808c81526020018b6001600160a01b031681526020018a8152602001896001600160a01b03168152602001886001600160a01b03168152602001878152602001861515815260200185815260200184151581526020018381526020018281526020019b50505050505050505050505060405180910390a250506001600055505050565b6000806000806000806000806000613903615142565b505050506001600160a01b0397881660009081526001602081815260408084209a845299815291899020895161014081018b5281548c168152918101548b1692820183905260028101549982018a905260038101548b16606083018190526004820154909b1660808301819052600582015460a08401819052600683015460ff908116151560c08601819052600785015460e08701819052600886015490921615156101008701819052600990950154610120909601869052959e9c9d9c929b5090995093975092955093509150565b60046020526000908152604090205481565b6007546001600160a01b03163314613a3b576040805162461bcd60e51b815260206004820152601460248201527327b93232b92137b7b59d103337b93134b23232b760611b604482015290519081900360640190fd5b600e5460ff1615613a93576040805162461bcd60e51b815260206004820152601e60248201527f4f72646572426f6f6b3a20616c726561647920696e697469616c697a65640000604482015290519081900360640190fd5b600e805460ff19166001179055600a80546001600160a01b038089166001600160a01b03199283168117909355600b8054898316908416811790915560088054898416908516811790915560098054938916939094168317909355600c869055600d8590556040805194855260208501919091528381019290925260608301526080820184905260a08201839052517fcfb7ef8749fafc8da2af1ba3d025479ffc4e58f7dc420113e112512a3bda59639181900360c00190a1505050505050565b600360208181526000938452604080852090915291835291208054600182015460028301549383015460048401546005850154600686015460078701546008909701546001600160a01b039687169895871697959690941694929360ff9283169391929091169089565b6009546001600160a01b031681565b60026000541415613c13576040805162461bcd60e51b815260206004820152601f6024820152600080516020615250833981519152604482015290519081900360640190fd5b6002600055613c206150cf565b33600090815260056020908152604080832085845282529182902082516101008101845281546001600160a01b0316815260018201805485518186028101860190965280865291949293858101939290830182828015613ca957602002820191906000526020600020905b81546001600160a01b03168152600190910190602001808311613c8b575b5050509183525050600282015460208201526003820154604082015260048201546060820152600582015460ff8082161515608084015261010090910416151560a082015260069091015460c09091015280519091506001600160a01b0316613d47576040805162461bcd60e51b815260206004820152601d6024820152600080516020615230833981519152604482015290519081900360640190fd5b336000908152600560209081526040808320858452909152812080546001600160a01b031916815590613d7d6001830182615121565b50600060028201819055600382018190556004820181905560058201805461ffff191690556006909101819055600854602083015180516001600160a01b03909216929091613dc857fe5b60200260200101516001600160a01b03161415613e0257613dfd611eef82604001518360e0015161424090919063ffffffff16565b613e2a565b613e1c33826040015183602001516000815181106112e657fe5b613e2a8160e0015133614151565b336001600160a01b03167fefd66d4f9c2f880c70aedeb5b26a44fb474cea07e5d6c533f2d27c303d5d94538383602001518460400151856060015186608001518760a001518860c001518960e00151604051808981526020018060200188815260200187815260200186815260200185151581526020018415158152602001838152602001828103825289818151815260200191508051906020019060200280838360005b83811015613ee7578181015183820152602001613ecf565b50505050905001995050505050505050505060405180910390a250506001600055565b600a546001600160a01b031681565b600b546001600160a01b031681565b6007546001600160a01b03163314613f7e576040805162461bcd60e51b815260206004820152601460248201527327b93232b92137b7b59d103337b93134b23232b760611b604482015290519081900360640190fd5b600c8190556040805182815290517fbde5eafdc37b81830d70124cddccaaa6d034e71dda3c8fc18a959ca76a7cbcfc9181900360200190a150565b604080516001600160a01b038416602482015260448082018490528251808303909101815260649091019091526020810180516001600160e01b031663a9059cbb60e01b17905261400b908490614a8d565b505050565b6000835160021415614057576140508460008151811061402c57fe5b60200260200101518560018151811061404157fe5b60200260200101518585614b3e565b905061414a565b8351600314156140fd5760006140988560008151811061407357fe5b60200260200101518660018151811061408857fe5b6020026020010151600030614b3e565b90506140c1600b60009054906101000a90046001600160a01b031682876001815181106112e657fe5b6140f5856001815181106140d157fe5b6020026020010151866002815181106140e657fe5b60200260200101518686614b3e565b91505061414a565b6040805162461bcd60e51b815260206004820152601f60248201527f4f72646572426f6f6b3a20696e76616c6964205f706174682e6c656e67746800604482015290519081900360640190fd5b9392505050565b60085460408051632e1a7d4d60e01b81526004810185905290516001600160a01b0390921691632e1a7d4d9160248082019260009290919082900301818387803b15801561419e57600080fd5b505af11580156141b2573d6000803e3d6000fd5b506141ca925050506001600160a01b03821683614d1d565b5050565b341561423e57600860009054906101000a90046001600160a01b03166001600160a01b031663d0e30db0346040518263ffffffff1660e01b81526004016000604051808303818588803b15801561422457600080fd5b505af1158015614238573d6000803e3d6000fd5b50505050505b565b60008282018381101561414a576040805162461bcd60e51b815260206004820152601b60248201527f536166654d6174683a206164646974696f6e206f766572666c6f770000000000604482015290519081900360640190fd5b6001600160a01b0388166000908152600660205260409020546142bb6150cf565b6040518061010001604052808b6001600160a01b031681526020018a81526020018981526020018881526020018781526020018615158152602001851515815260200184815250905061431860018361424090919063ffffffff16565b6001600160a01b038b8116600090815260066020908152604080832094909455600581528382208683528152929020835181546001600160a01b03191692169190911781558282015180518493614376926001850192910190615196565b5060408201518160020155606082015181600301556080820151816004015560a08201518160050160006101000a81548160ff02191690831515021790555060c08201518160050160016101000a81548160ff02191690831515021790555060e08201518160060155905050896001600160a01b03167fdf06bb56ffc4029dc0b62b68bb5bbadea93a38b530cefc9b81afb742a6555d88838b8b8b8b8b8b8b604051808981526020018060200188815260200187815260200186815260200185151581526020018415158152602001838152602001828103825289818151815260200191508051906020019060200280838360005b8381101561448357818101518382015260200161446b565b50505050905001995050505050505050505060405180910390a250505050505050505050565b6000826144b85750600061304e565b828202828482816144c557fe5b041461414a5760405162461bcd60e51b815260040180806020018281038252602181526020018061535d6021913960400191505060405180910390fd5b600061414a83836040518060400160405280601a81526020017f536166654d6174683a206469766973696f6e206279207a65726f000000000000815250614e02565b3360009081526002602052604090205461455c615142565b6040518061014001604052808d6001600160a01b031681526020018c6001600160a01b031681526020018b81526020018a6001600160a01b03168152602001896001600160a01b03168152602001888152602001871515815260200186815260200185151581526020018481525090506145e060018361424090919063ffffffff16565b600260008e6001600160a01b03166001600160a01b031681526020019081526020016000208190555080600160008e6001600160a01b03166001600160a01b03168152602001908152602001600020600084815260200190815260200160002060008201518160000160006101000a8154816001600160a01b0302191690836001600160a01b0316021790555060208201518160010160006101000a8154816001600160a01b0302191690836001600160a01b031602179055506040820151816002015560608201518160030160006101000a8154816001600160a01b0302191690836001600160a01b0316021790555060808201518160040160006101000a8154816001600160a01b0302191690836001600160a01b0316021790555060a0820151816005015560c08201518160060160006101000a81548160ff02191690831515021790555060e082015181600701556101008201518160080160006101000a81548160ff02191690831515021790555061012082015181600901559050508b6001600160a01b03167fb27b9afe3043b93788c40cfc3cc73f5d928a2e40f3ba01820b246426de8fa1b9838d8d8d8d8d8d8d8d8d604051808b81526020018a6001600160a01b03168152602001898152602001886001600160a01b03168152602001876001600160a01b03168152602001868152602001851515815260200184815260200183151581526020018281526020019a505050505050505050505060405180910390a2505050505050505050505050565b6001600160a01b038816600090815260046020526040902054614838615083565b5060408051610120810182526001600160a01b03808c1682528a8116602083015291810189905290871660608201526080810186905284151560a082015260c0810184905282151560e082015234610100820152614897826001614240565b600460008c6001600160a01b03166001600160a01b031681526020019081526020016000208190555080600360008c6001600160a01b03166001600160a01b03168152602001908152602001600020600084815260200190815260200160002060008201518160000160006101000a8154816001600160a01b0302191690836001600160a01b0316021790555060208201518160010160006101000a8154816001600160a01b0302191690836001600160a01b031602179055506040820151816002015560608201518160030160006101000a8154816001600160a01b0302191690836001600160a01b031602179055506080820151816004015560a08201518160050160006101000a81548160ff02191690831515021790555060c0820151816006015560e08201518160070160006101000a81548160ff0219169083151502179055506101008201518160080155905050896001600160a01b03167f48ee333d2a65cc45fdb83bc012920d89181c3377390cd239d2b63f2bef67a02d838b8b8b8b8b8b8b34604051808a8152602001896001600160a01b03168152602001888152602001876001600160a01b0316815260200186815260200185151581526020018481526020018315158152602001828152602001995050505050505050505060405180910390a250505050505050505050565b6060614ae2826040518060400160405280602081526020017f5361666545524332303a206c6f772d6c6576656c2063616c6c206661696c6564815250856001600160a01b0316614ea49092919063ffffffff16565b80519091501561400b57808060200190516020811015614b0157600080fd5b505161400b5760405162461bcd60e51b815260040180806020018281038252602a8152602001806153ca602a913960400191505060405180910390fd5b60095460009081906001600160a01b0386811691161415614be357600b546040805163817bb85760e01b81526001600160a01b03898116600483015286811660248301529151919092169163817bb8579160448083019260209291908290030181600087803b158015614bb057600080fd5b505af1158015614bc4573d6000803e3d6000fd5b505050506040513d6020811015614bda57600080fd5b50519050614cde565b6009546001600160a01b0387811691161415614c5057600b5460408051630711e61960e41b81526001600160a01b03888116600483015286811660248301529151919092169163711e61909160448083019260209291908290030181600087803b158015614bb057600080fd5b600b5460408051634998b10960e11b81526001600160a01b038981166004830152888116602483015286811660448301529151919092169163933162129160648083019260209291908290030181600087803b158015614caf57600080fd5b505af1158015614cc3573d6000803e3d6000fd5b505050506040513d6020811015614cd957600080fd5b505190505b838110156125815760405162461bcd60e51b81526004018080602001828103825260218152602001806152f26021913960400191505060405180910390fd5b80471015614d72576040805162461bcd60e51b815260206004820152601d60248201527f416464726573733a20696e73756666696369656e742062616c616e6365000000604482015290519081900360640190fd5b6040516000906001600160a01b0384169083908381818185875af1925050503d8060008114614dbd576040519150601f19603f3d011682016040523d82523d6000602084013e614dc2565b606091505b505090508061400b5760405162461bcd60e51b815260040180806020018281038252603a815260200180615292603a913960400191505060405180910390fd5b60008183614e8e5760405162461bcd60e51b81526004018080602001828103825283818151815260200191508051906020019080838360005b83811015614e53578181015183820152602001614e3b565b50505050905090810190601f168015614e805780820380516001836020036101000a031916815260200191505b509250505060405180910390fd5b506000838581614e9a57fe5b0495945050505050565b6060614eb38484600085614ebb565b949350505050565b606082471015614efc5760405162461bcd60e51b81526004018080602001828103825260268152602001806152cc6026913960400191505060405180910390fd5b614f0585615017565b614f56576040805162461bcd60e51b815260206004820152601d60248201527f416464726573733a2063616c6c20746f206e6f6e2d636f6e7472616374000000604482015290519081900360640190fd5b60006060866001600160a01b031685876040518082805190602001908083835b60208310614f955780518252601f199092019160209182019101614f76565b6001836020036101000a03801982511681845116808217855250505050505090500191505060006040518083038185875af1925050503d8060008114614ff7576040519150601f19603f3d011682016040523d82523d6000602084013e614ffc565b606091505b509150915061500c82828661501d565b979650505050505050565b3b151590565b6060831561502c57508161414a565b82511561503c5782518084602001fd5b60405162461bcd60e51b8152602060048201818152845160248401528451859391928392604401919085019080838360008315614e53578181015183820152602001614e3b565b6040805161012081018252600080825260208201819052918101829052606081018290526080810182905260a0810182905260c0810182905260e0810182905261010081019190915290565b60405180610100016040528060006001600160a01b0316815260200160608152602001600081526020016000815260200160008152602001600015158152602001600015158152602001600081525090565b508054600082559060005260206000209081019061513f91906151fb565b50565b6040805161014081018252600080825260208201819052918101829052606081018290526080810182905260a0810182905260c0810182905260e08101829052610100810182905261012081019190915290565b8280548282559060005260206000209081019282156151eb579160200282015b828111156151eb57825182546001600160a01b0319166001600160a01b039091161782556020909201916001909101906151b6565b506151f7929150615210565b5090565b5b808211156151f757600081556001016151fc565b5b808211156151f75780546001600160a01b031916815560010161521156fe4f72646572426f6f6b3a206e6f6e2d6578697374656e74206f726465720000005265656e7472616e637947756172643a207265656e7472616e742063616c6c004f72646572426f6f6b3a20696e73756666696369656e7420636f6c6c61746572616c416464726573733a20756e61626c6520746f2073656e642076616c75652c20726563697069656e74206d61792068617665207265766572746564416464726573733a20696e73756666696369656e742062616c616e636520666f722063616c6c4f72646572426f6f6b3a20696e73756666696369656e7420616d6f756e744f75744f72646572426f6f6b3a206f6e6c79207765746820636f756c6420626520777261707065644f72646572426f6f6b3a20696e73756666696369656e7420657865637574696f6e20666565536166654d6174683a206d756c7469706c69636174696f6e206f766572666c6f774f72646572426f6f6b3a20696e636f72726563742076616c7565207472616e736665727265644f72646572426f6f6b3a20696e76616c696420707269636520666f7220657865637574696f6e5361666545524332303a204552433230206f7065726174696f6e20646964206e6f7420737563636565644f72646572426f6f6b3a20696e636f727265637420657865637574696f6e20666565207472616e73666572726564a2646970667358221220de8a61a1ae4acf99185a3111f727da1a2ff63a520f460bdcaa64326f405c3f9864736f6c634300060c0033","linkReferences":{}},"methodIdentifiers":{"PRICE_PRECISION()":"95082d25","USDG_PRECISION()":"4a686d67","cancelDecreaseOrder(uint256)":"9e71b0f0","cancelIncreaseOrder(uint256)":"47e0bbd0","cancelMultiple(uint256[],uint256[],uint256[])":"807c5600","cancelSwapOrder(uint256)":"f882ac07","createDecreaseOrder(address,uint256,address,uint256,bool,uint256,bool)":"c16cde8a","createIncreaseOrder(address[],uint256,address,uint256,uint256,address,bool,uint256,bool,uint256,bool)":"b142a4b0","createSwapOrder(address[],uint256,uint256,uint256,bool,uint256,bool,bool)":"269ae6c2","decreaseOrders(address,uint256)":"f2d2e01b","decreaseOrdersIndex(address)":"d566d0ca","executeDecreaseOrder(address,uint256,address)":"11d9444a","executeIncreaseOrder(address,uint256,address)":"d38ab519","executeSwapOrder(address,uint256,address)":"07c7edc3","getDecreaseOrder(address,uint256)":"026032ee","getIncreaseOrder(address,uint256)":"d3bab1d1","getSwapOrder(address,uint256)":"d0d40cd6","getUsdgMinPrice(address)":"9e23de5c","gov()":"12d43a51","increaseOrders(address,uint256)":"2b7d6290","increaseOrdersIndex(address)":"aec22455","initialize(address,address,address,address,uint256,uint256)":"d7c41c79","isInitialized()":"392e53cd","minExecutionFee()":"63ae2103","minPurchaseTokenAmountUsd()":"8de10c2e","router()":"f887ea40","setGov(address)":"cfad57a2","setMinExecutionFee(uint256)":"fc2cee62","setMinPurchaseTokenAmountUsd(uint256)":"0d5cc938","swapOrders(address,uint256)":"79221fa2","swapOrdersIndex(address)":"00cf066b","updateDecreaseOrder(uint256,uint256,uint256,uint256,bool)":"a397ea54","updateIncreaseOrder(uint256,uint256,uint256,bool)":"9983ee1b","updateSwapOrder(uint256,uint256,uint256,bool)":"c86b0f7d","usdg()":"f5b91b7b","validatePositionOrderPrice(bool,uint256,address,bool,bool)":"4c54f0b0","validateSwapOrderPriceWithTriggerAboveThreshold(address[],uint256)":"c4a1821b","vault()":"fbfa77cf","weth()":"3fc8cef3"},"id":15}