{"abi":[{"type":"constructor","inputs":[],"stateMutability":"nonpayable"},{"type":"function","name":"BASIS_POINTS_DIVISOR","inputs":[],"outputs":[{"name":"","type":"uint256","internalType":"uint256"}],"stateMutability":"view"},{"type":"function","name":"FUNDING_RATE_PRECISION","inputs":[],"outputs":[{"name":"","type":"uint256","internalType":"uint256"}],"stateMutability":"view"},{"type":"function","name":"MAX_FEE_BASIS_POINTS","inputs":[],"outputs":[{"name":"","type":"uint256","internalType":"uint256"}],"stateMutability":"view"},{"type":"function","name":"MAX_FUNDING_RATE_FACTOR","inputs":[],"outputs":[{"name":"","type":"uint256","internalType":"uint256"}],"stateMutability":"view"},{"type":"function","name":"MAX_LIQUIDATION_FEE_USD","inputs":[],"outputs":[{"name":"","type":"uint256","internalType":"uint256"}],"stateMutability":"view"},{"type":"function","name":"MIN_FUNDING_RATE_INTERVAL","inputs":[],"outputs":[{"name":"","type":"uint256","internalType":"uint256"}],"stateMutability":"view"},{"type":"function","name":"MIN_LEVERAGE","inputs":[],"outputs":[{"name":"","type":"uint256","internalType":"uint256"}],"stateMutability":"view"},{"type":"function","name":"PRICE_PRECISION","inputs":[],"outputs":[{"name":"","type":"uint256","internalType":"uint256"}],"stateMutability":"view"},{"type":"function","name":"USDG_DECIMALS","inputs":[],"outputs":[{"name":"","type":"uint256","internalType":"uint256"}],"stateMutability":"view"},{"type":"function","name":"addRouter","inputs":[{"name":"_router","type":"address","internalType":"address"}],"outputs":[],"stateMutability":"nonpayable"},{"type":"function","name":"adjustForDecimals","inputs":[{"name":"_amount","type":"uint256","internalType":"uint256"},{"name":"_tokenDiv","type":"address","internalType":"address"},{"name":"_tokenMul","type":"address","internalType":"address"}],"outputs":[{"name":"","type":"uint256","internalType":"uint256"}],"stateMutability":"view"},{"type":"function","name":"allWhitelistedTokens","inputs":[{"name":"","type":"uint256","internalType":"uint256"}],"outputs":[{"name":"","type":"address","internalType":"address"}],"stateMutability":"view"},{"type":"function","name":"allWhitelistedTokensLength","inputs":[],"outputs":[{"name":"","type":"uint256","internalType":"uint256"}],"stateMutability":"view"},{"type":"function","name":"approvedRouters","inputs":[{"name":"","type":"address","internalType":"address"},{"name":"","type":"address","internalType":"address"}],"outputs":[{"name":"","type":"bool","internalType":"bool"}],"stateMutability":"view"},{"type":"function","name":"bufferAmounts","inputs":[{"name":"","type":"address","internalType":"address"}],"outputs":[{"name":"","type":"uint256","internalType":"uint256"}],"stateMutability":"view"},{"type":"function","name":"buyUSDG","inputs":[{"name":"_token","type":"address","internalType":"address"},{"name":"_receiver","type":"address","internalType":"address"}],"outputs":[{"name":"","type":"uint256","internalType":"uint256"}],"stateMutability":"nonpayable"},{"type":"function","name":"clearTokenConfig","inputs":[{"name":"_token","type":"address","internalType":"address"}],"outputs":[],"stateMutability":"nonpayable"},{"type":"function","name":"cumulativeFundingRates","inputs":[{"name":"","type":"address","internalType":"address"}],"outputs":[{"name":"","type":"uint256","internalType":"uint256"}],"stateMutability":"view"},{"type":"function","name":"decreasePosition","inputs":[{"name":"_account","type":"address","internalType":"address"},{"name":"_collateralToken","type":"address","internalType":"address"},{"name":"_indexToken","type":"address","internalType":"address"},{"name":"_collateralDelta","type":"uint256","internalType":"uint256"},{"name":"_sizeDelta","type":"uint256","internalType":"uint256"},{"name":"_isLong","type":"bool","internalType":"bool"},{"name":"_receiver","type":"address","internalType":"address"}],"outputs":[{"name":"","type":"uint256","internalType":"uint256"}],"stateMutability":"nonpayable"},{"type":"function","name":"directPoolDeposit","inputs":[{"name":"_token","type":"address","internalType":"address"}],"outputs":[],"stateMutability":"nonpayable"},{"type":"function","name":"errorController","inputs":[],"outputs":[{"name":"","type":"address","internalType":"address"}],"stateMutability":"view"},{"type":"function","name":"errors","inputs":[{"name":"","type":"uint256","internalType":"uint256"}],"outputs":[{"name":"","type":"string","internalType":"string"}],"stateMutability":"view"},{"type":"function","name":"feeReserves","inputs":[{"name":"","type":"address","internalType":"address"}],"outputs":[{"name":"","type":"uint256","internalType":"uint256"}],"stateMutability":"view"},{"type":"function","name":"fundingInterval","inputs":[],"outputs":[{"name":"","type":"uint256","internalType":"uint256"}],"stateMutability":"view"},{"type":"function","name":"fundingRateFactor","inputs":[],"outputs":[{"name":"","type":"uint256","internalType":"uint256"}],"stateMutability":"view"},{"type":"function","name":"getDelta","inputs":[{"name":"_indexToken","type":"address","internalType":"address"},{"name":"_size","type":"uint256","internalType":"uint256"},{"name":"_averagePrice","type":"uint256","internalType":"uint256"},{"name":"_isLong","type":"bool","internalType":"bool"},{"name":"_lastIncreasedTime","type":"uint256","internalType":"uint256"}],"outputs":[{"name":"","type":"bool","internalType":"bool"},{"name":"","type":"uint256","internalType":"uint256"}],"stateMutability":"view"},{"type":"function","name":"getEntryFundingRate","inputs":[{"name":"_collateralToken","type":"address","internalType":"address"},{"name":"_indexToken","type":"address","internalType":"address"},{"name":"_isLong","type":"bool","internalType":"bool"}],"outputs":[{"name":"","type":"uint256","internalType":"uint256"}],"stateMutability":"view"},{"type":"function","name":"getFeeBasisPoints","inputs":[{"name":"_token","type":"address","internalType":"address"},{"name":"_usdgDelta","type":"uint256","internalType":"uint256"},{"name":"_feeBasisPoints","type":"uint256","internalType":"uint256"},{"name":"_taxBasisPoints","type":"uint256","internalType":"uint256"},{"name":"_increment","type":"bool","internalType":"bool"}],"outputs":[{"name":"","type":"uint256","internalType":"uint256"}],"stateMutability":"view"},{"type":"function","name":"getFundingFee","inputs":[{"name":"_account","type":"address","internalType":"address"},{"name":"_collateralToken","type":"address","internalType":"address"},{"name":"_indexToken","type":"address","internalType":"address"},{"name":"_isLong","type":"bool","internalType":"bool"},{"name":"_size","type":"uint256","internalType":"uint256"},{"name":"_entryFundingRate","type":"uint256","internalType":"uint256"}],"outputs":[{"name":"","type":"uint256","internalType":"uint256"}],"stateMutability":"view"},{"type":"function","name":"getGlobalShortDelta","inputs":[{"name":"_token","type":"address","internalType":"address"}],"outputs":[{"name":"","type":"bool","internalType":"bool"},{"name":"","type":"uint256","internalType":"uint256"}],"stateMutability":"view"},{"type":"function","name":"getMaxPrice","inputs":[{"name":"_token","type":"address","internalType":"address"}],"outputs":[{"name":"","type":"uint256","internalType":"uint256"}],"stateMutability":"view"},{"type":"function","name":"getMinPrice","inputs":[{"name":"_token","type":"address","internalType":"address"}],"outputs":[{"name":"","type":"uint256","internalType":"uint256"}],"stateMutability":"view"},{"type":"function","name":"getNextAveragePrice","inputs":[{"name":"_indexToken","type":"address","internalType":"address"},{"name":"_size","type":"uint256","internalType":"uint256"},{"name":"_averagePrice","type":"uint256","internalType":"uint256"},{"name":"_isLong","type":"bool","internalType":"bool"},{"name":"_nextPrice","type":"uint256","internalType":"uint256"},{"name":"_sizeDelta","type":"uint256","internalType":"uint256"},{"name":"_lastIncreasedTime","type":"uint256","internalType":"uint256"}],"outputs":[{"name":"","type":"uint256","internalType":"uint256"}],"stateMutability":"view"},{"type":"function","name":"getNextFundingRate","inputs":[{"name":"_token","type":"address","internalType":"address"}],"outputs":[{"name":"","type":"uint256","internalType":"uint256"}],"stateMutability":"view"},{"type":"function","name":"getNextGlobalShortAveragePrice","inputs":[{"name":"_indexToken","type":"address","internalType":"address"},{"name":"_nextPrice","type":"uint256","internalType":"uint256"},{"name":"_sizeDelta","type":"uint256","internalType":"uint256"}],"outputs":[{"name":"","type":"uint256","internalType":"uint256"}],"stateMutability":"view"},{"type":"function","name":"getPosition","inputs":[{"name":"_account","type":"address","internalType":"address"},{"name":"_collateralToken","type":"address","internalType":"address"},{"name":"_indexToken","type":"address","internalType":"address"},{"name":"_isLong","type":"bool","internalType":"bool"}],"outputs":[{"name":"","type":"uint256","internalType":"uint256"},{"name":"","type":"uint256","internalType":"uint256"},{"name":"","type":"uint256","internalType":"uint256"},{"name":"","type":"uint256","internalType":"uint256"},{"name":"","type":"uint256","internalType":"uint256"},{"name":"","type":"uint256","internalType":"uint256"},{"name":"","type":"bool","internalType":"bool"},{"name":"","type":"uint256","internalType":"uint256"}],"stateMutability":"view"},{"type":"function","name":"getPositionDelta","inputs":[{"name":"_account","type":"address","internalType":"address"},{"name":"_collateralToken","type":"address","internalType":"address"},{"name":"_indexToken","type":"address","internalType":"address"},{"name":"_isLong","type":"bool","internalType":"bool"}],"outputs":[{"name":"","type":"bool","internalType":"bool"},{"name":"","type":"uint256","internalType":"uint256"}],"stateMutability":"view"},{"type":"function","name":"getPositionFee","inputs":[{"name":"_account","type":"address","internalType":"address"},{"name":"_collateralToken","type":"address","internalType":"address"},{"name":"_indexToken","type":"address","internalType":"address"},{"name":"_isLong","type":"bool","internalType":"bool"},{"name":"_sizeDelta","type":"uint256","internalType":"uint256"}],"outputs":[{"name":"","type":"uint256","internalType":"uint256"}],"stateMutability":"view"},{"type":"function","name":"getPositionKey","inputs":[{"name":"_account","type":"address","internalType":"address"},{"name":"_collateralToken","type":"address","internalType":"address"},{"name":"_indexToken","type":"address","internalType":"address"},{"name":"_isLong","type":"bool","internalType":"bool"}],"outputs":[{"name":"","type":"bytes32","internalType":"bytes32"}],"stateMutability":"pure"},{"type":"function","name":"getPositionLeverage","inputs":[{"name":"_account","type":"address","internalType":"address"},{"name":"_collateralToken","type":"address","internalType":"address"},{"name":"_indexToken","type":"address","internalType":"address"},{"name":"_isLong","type":"bool","internalType":"bool"}],"outputs":[{"name":"","type":"uint256","internalType":"uint256"}],"stateMutability":"view"},{"type":"function","name":"getRedemptionAmount","inputs":[{"name":"_token","type":"address","internalType":"address"},{"name":"_usdgAmount","type":"uint256","internalType":"uint256"}],"outputs":[{"name":"","type":"uint256","internalType":"uint256"}],"stateMutability":"view"},{"type":"function","name":"getRedemptionCollateral","inputs":[{"name":"_token","type":"address","internalType":"address"}],"outputs":[{"name":"","type":"uint256","internalType":"uint256"}],"stateMutability":"view"},{"type":"function","name":"getRedemptionCollateralUsd","inputs":[{"name":"_token","type":"address","internalType":"address"}],"outputs":[{"name":"","type":"uint256","internalType":"uint256"}],"stateMutability":"view"},{"type":"function","name":"getTargetUsdgAmount","inputs":[{"name":"_token","type":"address","internalType":"address"}],"outputs":[{"name":"","type":"uint256","internalType":"uint256"}],"stateMutability":"view"},{"type":"function","name":"getUtilisation","inputs":[{"name":"_token","type":"address","internalType":"address"}],"outputs":[{"name":"","type":"uint256","internalType":"uint256"}],"stateMutability":"view"},{"type":"function","name":"globalShortAveragePrices","inputs":[{"name":"","type":"address","internalType":"address"}],"outputs":[{"name":"","type":"uint256","internalType":"uint256"}],"stateMutability":"view"},{"type":"function","name":"globalShortSizes","inputs":[{"name":"","type":"address","internalType":"address"}],"outputs":[{"name":"","type":"uint256","internalType":"uint256"}],"stateMutability":"view"},{"type":"function","name":"gov","inputs":[],"outputs":[{"name":"","type":"address","internalType":"address"}],"stateMutability":"view"},{"type":"function","name":"guaranteedUsd","inputs":[{"name":"","type":"address","internalType":"address"}],"outputs":[{"name":"","type":"uint256","internalType":"uint256"}],"stateMutability":"view"},{"type":"function","name":"hasDynamicFees","inputs":[],"outputs":[{"name":"","type":"bool","internalType":"bool"}],"stateMutability":"view"},{"type":"function","name":"inManagerMode","inputs":[],"outputs":[{"name":"","type":"bool","internalType":"bool"}],"stateMutability":"view"},{"type":"function","name":"inPrivateLiquidationMode","inputs":[],"outputs":[{"name":"","type":"bool","internalType":"bool"}],"stateMutability":"view"},{"type":"function","name":"includeAmmPrice","inputs":[],"outputs":[{"name":"","type":"bool","internalType":"bool"}],"stateMutability":"view"},{"type":"function","name":"increasePosition","inputs":[{"name":"_account","type":"address","internalType":"address"},{"name":"_collateralToken","type":"address","internalType":"address"},{"name":"_indexToken","type":"address","internalType":"address"},{"name":"_sizeDelta","type":"uint256","internalType":"uint256"},{"name":"_isLong","type":"bool","internalType":"bool"}],"outputs":[],"stateMutability":"nonpayable"},{"type":"function","name":"initialize","inputs":[{"name":"_router","type":"address","internalType":"address"},{"name":"_usdg","type":"address","internalType":"address"},{"name":"_priceFeed","type":"address","internalType":"address"},{"name":"_liquidationFeeUsd","type":"uint256","internalType":"uint256"},{"name":"_fundingRateFactor","type":"uint256","internalType":"uint256"},{"name":"_stableFundingRateFactor","type":"uint256","internalType":"uint256"}],"outputs":[],"stateMutability":"nonpayable"},{"type":"function","name":"isInitialized","inputs":[],"outputs":[{"name":"","type":"bool","internalType":"bool"}],"stateMutability":"view"},{"type":"function","name":"isLeverageEnabled","inputs":[],"outputs":[{"name":"","type":"bool","internalType":"bool"}],"stateMutability":"view"},{"type":"function","name":"isLiquidator","inputs":[{"name":"","type":"address","internalType":"address"}],"outputs":[{"name":"","type":"bool","internalType":"bool"}],"stateMutability":"view"},{"type":"function","name":"isManager","inputs":[{"name":"","type":"address","internalType":"address"}],"outputs":[{"name":"","type":"bool","internalType":"bool"}],"stateMutability":"view"},{"type":"function","name":"isSwapEnabled","inputs":[],"outputs":[{"name":"","type":"bool","internalType":"bool"}],"stateMutability":"view"},{"type":"function","name":"lastFundingTimes","inputs":[{"name":"","type":"address","internalType":"address"}],"outputs":[{"name":"","type":"uint256","internalType":"uint256"}],"stateMutability":"view"},{"type":"function","name":"liquidatePosition","inputs":[{"name":"_account","type":"address","internalType":"address"},{"name":"_collateralToken","type":"address","internalType":"address"},{"name":"_indexToken","type":"address","internalType":"address"},{"name":"_isLong","type":"bool","internalType":"bool"},{"name":"_feeReceiver","type":"address","internalType":"address"}],"outputs":[],"stateMutability":"nonpayable"},{"type":"function","name":"liquidationFeeUsd","inputs":[],"outputs":[{"name":"","type":"uint256","internalType":"uint256"}],"stateMutability":"view"},{"type":"function","name":"marginFeeBasisPoints","inputs":[],"outputs":[{"name":"","type":"uint256","internalType":"uint256"}],"stateMutability":"view"},{"type":"function","name":"maxGasPrice","inputs":[],"outputs":[{"name":"","type":"uint256","internalType":"uint256"}],"stateMutability":"view"},{"type":"function","name":"maxGlobalShortSizes","inputs":[{"name":"","type":"address","internalType":"address"}],"outputs":[{"name":"","type":"uint256","internalType":"uint256"}],"stateMutability":"view"},{"type":"function","name":"maxLeverage","inputs":[],"outputs":[{"name":"","type":"uint256","internalType":"uint256"}],"stateMutability":"view"},{"type":"function","name":"maxUsdgAmounts","inputs":[{"name":"","type":"address","internalType":"address"}],"outputs":[{"name":"","type":"uint256","internalType":"uint256"}],"stateMutability":"view"},{"type":"function","name":"minProfitBasisPoints","inputs":[{"name":"","type":"address","internalType":"address"}],"outputs":[{"name":"","type":"uint256","internalType":"uint256"}],"stateMutability":"view"},{"type":"function","name":"minProfitTime","inputs":[],"outputs":[{"name":"","type":"uint256","internalType":"uint256"}],"stateMutability":"view"},{"type":"function","name":"mintBurnFeeBasisPoints","inputs":[],"outputs":[{"name":"","type":"uint256","internalType":"uint256"}],"stateMutability":"view"},{"type":"function","name":"poolAmounts","inputs":[{"name":"","type":"address","internalType":"address"}],"outputs":[{"name":"","type":"uint256","internalType":"uint256"}],"stateMutability":"view"},{"type":"function","name":"positions","inputs":[{"name":"","type":"bytes32","internalType":"bytes32"}],"outputs":[{"name":"size","type":"uint256","internalType":"uint256"},{"name":"collateral","type":"uint256","internalType":"uint256"},{"name":"averagePrice","type":"uint256","internalType":"uint256"},{"name":"entryFundingRate","type":"uint256","internalType":"uint256"},{"name":"reserveAmount","type":"uint256","internalType":"uint256"},{"name":"realisedPnl","type":"int256","internalType":"int256"},{"name":"lastIncreasedTime","type":"uint256","internalType":"uint256"}],"stateMutability":"view"},{"type":"function","name":"priceFeed","inputs":[],"outputs":[{"name":"","type":"address","internalType":"address"}],"stateMutability":"view"},{"type":"function","name":"removeRouter","inputs":[{"name":"_router","type":"address","internalType":"address"}],"outputs":[],"stateMutability":"nonpayable"},{"type":"function","name":"reservedAmounts","inputs":[{"name":"","type":"address","internalType":"address"}],"outputs":[{"name":"","type":"uint256","internalType":"uint256"}],"stateMutability":"view"},{"type":"function","name":"router","inputs":[],"outputs":[{"name":"","type":"address","internalType":"address"}],"stateMutability":"view"},{"type":"function","name":"sellUSDG","inputs":[{"name":"_token","type":"address","internalType":"address"},{"name":"_receiver","type":"address","internalType":"address"}],"outputs":[{"name":"","type":"uint256","internalType":"uint256"}],"stateMutability":"nonpayable"},{"type":"function","name":"setBufferAmount","inputs":[{"name":"_token","type":"address","internalType":"address"},{"name":"_amount","type":"uint256","internalType":"uint256"}],"outputs":[],"stateMutability":"nonpayable"},{"type":"function","name":"setError","inputs":[{"name":"_errorCode","type":"uint256","internalType":"uint256"},{"name":"_error","type":"string","internalType":"string"}],"outputs":[],"stateMutability":"nonpayable"},{"type":"function","name":"setErrorController","inputs":[{"name":"_errorController","type":"address","internalType":"address"}],"outputs":[],"stateMutability":"nonpayable"},{"type":"function","name":"setFees","inputs":[{"name":"_taxBasisPoints","type":"uint256","internalType":"uint256"},{"name":"_stableTaxBasisPoints","type":"uint256","internalType":"uint256"},{"name":"_mintBurnFeeBasisPoints","type":"uint256","internalType":"uint256"},{"name":"_swapFeeBasisPoints","type":"uint256","internalType":"uint256"},{"name":"_stableSwapFeeBasisPoints","type":"uint256","internalType":"uint256"},{"name":"_marginFeeBasisPoints","type":"uint256","internalType":"uint256"},{"name":"_liquidationFeeUsd","type":"uint256","internalType":"uint256"},{"name":"_minProfitTime","type":"uint256","internalType":"uint256"},{"name":"_hasDynamicFees","type":"bool","internalType":"bool"}],"outputs":[],"stateMutability":"nonpayable"},{"type":"function","name":"setFundingRate","inputs":[{"name":"_fundingInterval","type":"uint256","internalType":"uint256"},{"name":"_fundingRateFactor","type":"uint256","internalType":"uint256"},{"name":"_stableFundingRateFactor","type":"uint256","internalType":"uint256"}],"outputs":[],"stateMutability":"nonpayable"},{"type":"function","name":"setGov","inputs":[{"name":"_gov","type":"address","internalType":"address"}],"outputs":[],"stateMutability":"nonpayable"},{"type":"function","name":"setInManagerMode","inputs":[{"name":"_inManagerMode","type":"bool","internalType":"bool"}],"outputs":[],"stateMutability":"nonpayable"},{"type":"function","name":"setInPrivateLiquidationMode","inputs":[{"name":"_inPrivateLiquidationMode","type":"bool","internalType":"bool"}],"outputs":[],"stateMutability":"nonpayable"},{"type":"function","name":"setIsLeverageEnabled","inputs":[{"name":"_isLeverageEnabled","type":"bool","internalType":"bool"}],"outputs":[],"stateMutability":"nonpayable"},{"type":"function","name":"setIsSwapEnabled","inputs":[{"name":"_isSwapEnabled","type":"bool","internalType":"bool"}],"outputs":[],"stateMutability":"nonpayable"},{"type":"function","name":"setLiquidator","inputs":[{"name":"_liquidator","type":"address","internalType":"address"},{"name":"_isActive","type":"bool","internalType":"bool"}],"outputs":[],"stateMutability":"nonpayable"},{"type":"function","name":"setManager","inputs":[{"name":"_manager","type":"address","internalType":"address"},{"name":"_isManager","type":"bool","internalType":"bool"}],"outputs":[],"stateMutability":"nonpayable"},{"type":"function","name":"setMaxGasPrice","inputs":[{"name":"_maxGasPrice","type":"uint256","internalType":"uint256"}],"outputs":[],"stateMutability":"nonpayable"},{"type":"function","name":"setMaxGlobalShortSize","inputs":[{"name":"_token","type":"address","internalType":"address"},{"name":"_amount","type":"uint256","internalType":"uint256"}],"outputs":[],"stateMutability":"nonpayable"},{"type":"function","name":"setMaxLeverage","inputs":[{"name":"_maxLeverage","type":"uint256","internalType":"uint256"}],"outputs":[],"stateMutability":"nonpayable"},{"type":"function","name":"setPriceFeed","inputs":[{"name":"_priceFeed","type":"address","internalType":"address"}],"outputs":[],"stateMutability":"nonpayable"},{"type":"function","name":"setTokenConfig","inputs":[{"name":"_token","type":"address","internalType":"address"},{"name":"_tokenDecimals","type":"uint256","internalType":"uint256"},{"name":"_tokenWeight","type":"uint256","internalType":"uint256"},{"name":"_minProfitBps","type":"uint256","internalType":"uint256"},{"name":"_maxUsdgAmount","type":"uint256","internalType":"uint256"},{"name":"_isStable","type":"bool","internalType":"bool"},{"name":"_isShortable","type":"bool","internalType":"bool"}],"outputs":[],"stateMutability":"nonpayable"},{"type":"function","name":"setUsdgAmount","inputs":[{"name":"_token","type":"address","internalType":"address"},{"name":"_amount","type":"uint256","internalType":"uint256"}],"outputs":[],"stateMutability":"nonpayable"},{"type":"function","name":"setVaultUtils","inputs":[{"name":"_vaultUtils","type":"address","internalType":"contract IVaultUtils"}],"outputs":[],"stateMutability":"nonpayable"},{"type":"function","name":"shortableTokens","inputs":[{"name":"","type":"address","internalType":"address"}],"outputs":[{"name":"","type":"bool","internalType":"bool"}],"stateMutability":"view"},{"type":"function","name":"stableFundingRateFactor","inputs":[],"outputs":[{"name":"","type":"uint256","internalType":"uint256"}],"stateMutability":"view"},{"type":"function","name":"stableSwapFeeBasisPoints","inputs":[],"outputs":[{"name":"","type":"uint256","internalType":"uint256"}],"stateMutability":"view"},{"type":"function","name":"stableTaxBasisPoints","inputs":[],"outputs":[{"name":"","type":"uint256","internalType":"uint256"}],"stateMutability":"view"},{"type":"function","name":"stableTokens","inputs":[{"name":"","type":"address","internalType":"address"}],"outputs":[{"name":"","type":"bool","internalType":"bool"}],"stateMutability":"view"},{"type":"function","name":"swap","inputs":[{"name":"_tokenIn","type":"address","internalType":"address"},{"name":"_tokenOut","type":"address","internalType":"address"},{"name":"_receiver","type":"address","internalType":"address"}],"outputs":[{"name":"","type":"uint256","internalType":"uint256"}],"stateMutability":"nonpayable"},{"type":"function","name":"swapFeeBasisPoints","inputs":[],"outputs":[{"name":"","type":"uint256","internalType":"uint256"}],"stateMutability":"view"},{"type":"function","name":"taxBasisPoints","inputs":[],"outputs":[{"name":"","type":"uint256","internalType":"uint256"}],"stateMutability":"view"},{"type":"function","name":"tokenBalances","inputs":[{"name":"","type":"address","internalType":"address"}],"outputs":[{"name":"","type":"uint256","internalType":"uint256"}],"stateMutability":"view"},{"type":"function","name":"tokenDecimals","inputs":[{"name":"","type":"address","internalType":"address"}],"outputs":[{"name":"","type":"uint256","internalType":"uint256"}],"stateMutability":"view"},{"type":"function","name":"tokenToUsdMin","inputs":[{"name":"_token","type":"address","internalType":"address"},{"name":"_tokenAmount","type":"uint256","internalType":"uint256"}],"outputs":[{"name":"","type":"uint256","internalType":"uint256"}],"stateMutability":"view"},{"type":"function","name":"tokenWeights","inputs":[{"name":"","type":"address","internalType":"address"}],"outputs":[{"name":"","type":"uint256","internalType":"uint256"}],"stateMutability":"view"},{"type":"function","name":"totalTokenWeights","inputs":[],"outputs":[{"name":"","type":"uint256","internalType":"uint256"}],"stateMutability":"view"},{"type":"function","name":"updateCumulativeFundingRate","inputs":[{"name":"_collateralToken","type":"address","internalType":"address"},{"name":"_indexToken","type":"address","internalType":"address"}],"outputs":[],"stateMutability":"nonpayable"},{"type":"function","name":"upgradeVault","inputs":[{"name":"_newVault","type":"address","internalType":"address"},{"name":"_token","type":"address","internalType":"address"},{"name":"_amount","type":"uint256","internalType":"uint256"}],"outputs":[],"stateMutability":"nonpayable"},{"type":"function","name":"usdToToken","inputs":[{"name":"_token","type":"address","internalType":"address"},{"name":"_usdAmount","type":"uint256","internalType":"uint256"},{"name":"_price","type":"uint256","internalType":"uint256"}],"outputs":[{"name":"","type":"uint256","internalType":"uint256"}],"stateMutability":"view"},{"type":"function","name":"usdToTokenMax","inputs":[{"name":"_token","type":"address","internalType":"address"},{"name":"_usdAmount","type":"uint256","internalType":"uint256"}],"outputs":[{"name":"","type":"uint256","internalType":"uint256"}],"stateMutability":"view"},{"type":"function","name":"usdToTokenMin","inputs":[{"name":"_token","type":"address","internalType":"address"},{"name":"_usdAmount","type":"uint256","internalType":"uint256"}],"outputs":[{"name":"","type":"uint256","internalType":"uint256"}],"stateMutability":"view"},{"type":"function","name":"usdg","inputs":[],"outputs":[{"name":"","type":"address","internalType":"address"}],"stateMutability":"view"},{"type":"function","name":"usdgAmounts","inputs":[{"name":"","type":"address","internalType":"address"}],"outputs":[{"name":"","type":"uint256","internalType":"uint256"}],"stateMutability":"view"},{"type":"function","name":"useSwapPricing","inputs":[],"outputs":[{"name":"","type":"bool","internalType":"bool"}],"stateMutability":"view"},{"type":"function","name":"validateLiquidation","inputs":[{"name":"_account","type":"address","internalType":"address"},{"name":"_collateralToken","type":"address","internalType":"address"},{"name":"_indexToken","type":"address","internalType":"address"},{"name":"_isLong","type":"bool","internalType":"bool"},{"name":"_raise","type":"bool","internalType":"bool"}],"outputs":[{"name":"","type":"uint256","internalType":"uint256"},{"name":"","type":"uint256","internalType":"uint256"}],"stateMutability":"view"},{"type":"function","name":"vaultUtils","inputs":[],"outputs":[{"name":"","type":"address","internalType":"contract IVaultUtils"}],"stateMutability":"view"},{"type":"function","name":"whitelistedTokenCount","inputs":[],"outputs":[{"name":"","type":"uint256","internalType":"uint256"}],"stateMutability":"view"},{"type":"function","name":"whitelistedTokens","inputs":[{"name":"","type":"address","internalType":"address"}],"outputs":[{"name":"","type":"bool","internalType":"bool"}],"stateMutability":"view"},{"type":"function","name":"withdrawFees","inputs":[{"name":"_token","type":"address","internalType":"address"},{"name":"_receiver","type":"address","internalType":"address"}],"outputs":[{"name":"","type":"uint256","internalType":"uint256"}],"stateMutability":"nonpayable"},{"type":"event","name":"BuyUSDG","inputs":[{"name":"account","type":"address","indexed":false,"internalType":"address"},{"name":"token","type":"address","indexed":false,"internalType":"address"},{"name":"tokenAmount","type":"uint256","indexed":false,"internalType":"uint256"},{"name":"usdgAmount","type":"uint256","indexed":false,"internalType":"uint256"},{"name":"feeBasisPoints","type":"uint256","indexed":false,"internalType":"uint256"}],"anonymous":false},{"type":"event","name":"ClosePosition","inputs":[{"name":"key","type":"bytes32","indexed":false,"internalType":"bytes32"},{"name":"size","type":"uint256","indexed":false,"internalType":"uint256"},{"name":"collateral","type":"uint256","indexed":false,"internalType":"uint256"},{"name":"averagePrice","type":"uint256","indexed":false,"internalType":"uint256"},{"name":"entryFundingRate","type":"uint256","indexed":false,"internalType":"uint256"},{"name":"reserveAmount","type":"uint256","indexed":false,"internalType":"uint256"},{"name":"realisedPnl","type":"int256","indexed":false,"internalType":"int256"}],"anonymous":false},{"type":"event","name":"CollectMarginFees","inputs":[{"name":"token","type":"address","indexed":false,"internalType":"address"},{"name":"feeUsd","type":"uint256","indexed":false,"internalType":"uint256"},{"name":"feeTokens","type":"uint256","indexed":false,"internalType":"uint256"}],"anonymous":false},{"type":"event","name":"CollectSwapFees","inputs":[{"name":"token","type":"address","indexed":false,"internalType":"address"},{"name":"feeUsd","type":"uint256","indexed":false,"internalType":"uint256"},{"name":"feeTokens","type":"uint256","indexed":false,"internalType":"uint256"}],"anonymous":false},{"type":"event","name":"DecreaseGuaranteedUsd","inputs":[{"name":"token","type":"address","indexed":false,"internalType":"address"},{"name":"amount","type":"uint256","indexed":false,"internalType":"uint256"}],"anonymous":false},{"type":"event","name":"DecreasePoolAmount","inputs":[{"name":"token","type":"address","indexed":false,"internalType":"address"},{"name":"amount","type":"uint256","indexed":false,"internalType":"uint256"}],"anonymous":false},{"type":"event","name":"DecreasePosition","inputs":[{"name":"key","type":"bytes32","indexed":false,"internalType":"bytes32"},{"name":"account","type":"address","indexed":false,"internalType":"address"},{"name":"collateralToken","type":"address","indexed":false,"internalType":"address"},{"name":"indexToken","type":"address","indexed":false,"internalType":"address"},{"name":"collateralDelta","type":"uint256","indexed":false,"internalType":"uint256"},{"name":"sizeDelta","type":"uint256","indexed":false,"internalType":"uint256"},{"name":"isLong","type":"bool","indexed":false,"internalType":"bool"},{"name":"price","type":"uint256","indexed":false,"internalType":"uint256"},{"name":"fee","type":"uint256","indexed":false,"internalType":"uint256"}],"anonymous":false},{"type":"event","name":"DecreaseReservedAmount","inputs":[{"name":"token","type":"address","indexed":false,"internalType":"address"},{"name":"amount","type":"uint256","indexed":false,"internalType":"uint256"}],"anonymous":false},{"type":"event","name":"DecreaseUsdgAmount","inputs":[{"name":"token","type":"address","indexed":false,"internalType":"address"},{"name":"amount","type":"uint256","indexed":false,"internalType":"uint256"}],"anonymous":false},{"type":"event","name":"DirectPoolDeposit","inputs":[{"name":"token","type":"address","indexed":false,"internalType":"address"},{"name":"amount","type":"uint256","indexed":false,"internalType":"uint256"}],"anonymous":false},{"type":"event","name":"IncreaseGuaranteedUsd","inputs":[{"name":"token","type":"address","indexed":false,"internalType":"address"},{"name":"amount","type":"uint256","indexed":false,"internalType":"uint256"}],"anonymous":false},{"type":"event","name":"IncreasePoolAmount","inputs":[{"name":"token","type":"address","indexed":false,"internalType":"address"},{"name":"amount","type":"uint256","indexed":false,"internalType":"uint256"}],"anonymous":false},{"type":"event","name":"IncreasePosition","inputs":[{"name":"key","type":"bytes32","indexed":false,"internalType":"bytes32"},{"name":"account","type":"address","indexed":false,"internalType":"address"},{"name":"collateralToken","type":"address","indexed":false,"internalType":"address"},{"name":"indexToken","type":"address","indexed":false,"internalType":"address"},{"name":"collateralDelta","type":"uint256","indexed":false,"internalType":"uint256"},{"name":"sizeDelta","type":"uint256","indexed":false,"internalType":"uint256"},{"name":"isLong","type":"bool","indexed":false,"internalType":"bool"},{"name":"price","type":"uint256","indexed":false,"internalType":"uint256"},{"name":"fee","type":"uint256","indexed":false,"internalType":"uint256"}],"anonymous":false},{"type":"event","name":"IncreaseReservedAmount","inputs":[{"name":"token","type":"address","indexed":false,"internalType":"address"},{"name":"amount","type":"uint256","indexed":false,"internalType":"uint256"}],"anonymous":false},{"type":"event","name":"IncreaseUsdgAmount","inputs":[{"name":"token","type":"address","indexed":false,"internalType":"address"},{"name":"amount","type":"uint256","indexed":false,"internalType":"uint256"}],"anonymous":false},{"type":"event","name":"LiquidatePosition","inputs":[{"name":"key","type":"bytes32","indexed":false,"internalType":"bytes32"},{"name":"account","type":"address","indexed":false,"internalType":"address"},{"name":"collateralToken","type":"address","indexed":false,"internalType":"address"},{"name":"indexToken","type":"address","indexed":false,"internalType":"address"},{"name":"isLong","type":"bool","indexed":false,"internalType":"bool"},{"name":"size","type":"uint256","indexed":false,"internalType":"uint256"},{"name":"collateral","type":"uint256","indexed":false,"internalType":"uint256"},{"name":"reserveAmount","type":"uint256","indexed":false,"internalType":"uint256"},{"name":"realisedPnl","type":"int256","indexed":false,"internalType":"int256"},{"name":"markPrice","type":"uint256","indexed":false,"internalType":"uint256"}],"anonymous":false},{"type":"event","name":"SellUSDG","inputs":[{"name":"account","type":"address","indexed":false,"internalType":"address"},{"name":"token","type":"address","indexed":false,"internalType":"address"},{"name":"usdgAmount","type":"uint256","indexed":false,"internalType":"uint256"},{"name":"tokenAmount","type":"uint256","indexed":false,"internalType":"uint256"},{"name":"feeBasisPoints","type":"uint256","indexed":false,"internalType":"uint256"}],"anonymous":false},{"type":"event","name":"Swap","inputs":[{"name":"account","type":"address","indexed":false,"internalType":"address"},{"name":"tokenIn","type":"address","indexed":false,"internalType":"address"},{"name":"tokenOut","type":"address","indexed":false,"internalType":"address"},{"name":"amountIn","type":"uint256","indexed":false,"internalType":"uint256"},{"name":"amountOut","type":"uint256","indexed":false,"internalType":"uint256"},{"name":"amountOutAfterFees","type":"uint256","indexed":false,"internalType":"uint256"},{"name":"feeBasisPoints","type":"uint256","indexed":false,"internalType":"uint256"}],"anonymous":false},{"type":"event","name":"UpdateFundingRate","inputs":[{"name":"token","type":"address","indexed":false,"internalType":"address"},{"name":"fundingRate","type":"uint256","indexed":false,"internalType":"uint256"}],"anonymous":false},{"type":"event","name":"UpdatePnl","inputs":[{"name":"key","type":"bytes32","indexed":false,"internalType":"bytes32"},{"name":"hasProfit","type":"bool","indexed":false,"internalType":"bool"},{"name":"delta","type":"uint256","indexed":false,"internalType":"uint256"}],"anonymous":false},{"type":"event","name":"UpdatePosition","inputs":[{"name":"key","type":"bytes32","indexed":false,"internalType":"bytes32"},{"name":"size","type":"uint256","indexed":false,"internalType":"uint256"},{"name":"collateral","type":"uint256","indexed":false,"internalType":"uint256"},{"name":"averagePrice","type":"uint256","indexed":false,"internalType":"uint256"},{"name":"entryFundingRate","type":"uint256","indexed":false,"internalType":"uint256"},{"name":"reserveAmount","type":"uint256","indexed":false,"internalType":"uint256"},{"name":"realisedPnl","type":"int256","indexed":false,"internalType":"int256"},{"name":"markPrice","type":"uint256","indexed":false,"internalType":"uint256"}],"anonymous":false}],"bytecode":{"object":"0x60806040526001805462ff00001961ff00199091166101001716620100001781556207a1206008556032600a9081556014600b55601e600c819055600d556004600e55600f556011805460ff199081169091556170806012556016805463ffffff0019921690921716905534801561007657600080fd5b506001600055600680546001600160a01b031916331790556160fb806200009e6000396000f3fe608060405234801561001057600080fd5b50600436106107595760003560e01c80638585f4d2116103c9578063c7e074c3116101ff578063df73a26711610125578063f3ae2415116100b8578063fbfded6d11610087578063fbfded6d14611820578063fce28c101461184e578063fdaf6ac314611856578063fed1a6061461189a57610759565b8063f3ae2415146117b8578063f5b91b7b146117de578063f887ea40146117e6578063fa12dbc0146117ee57610759565b8063efa10a6e116100f4578063efa10a6e14611719578063f07456ce14611745578063f07bbf771461176b578063f25552781461178a57610759565b8063df73a267146116a8578063e124e6d2146116b0578063e468baf0146116d6578063e67f59a7146116f357610759565b8063d8f897c31161019d578063db3555fb1161016c578063db3555fb146115e6578063db97495f1461160c578063dc8f5fac14611658578063de2ea9481461166057610759565b8063d8f897c314611548578063d9ac42251461156e578063da76524c14611576578063daf9c210146115c057610759565b8063d2fa635e116101d9578063d2fa635e14611483578063d3127e63146114a0578063d54d5a9f146114bd578063d66b000d1461151c57610759565b8063c7e074c3146113e7578063cea0c32814611427578063cfad57a21461145d57610759565b80639f392eb3116102ef578063ae3302c211610282578063b364accb11610251578063b364accb1461136d578063c3c7b9e914611393578063c4f718bf146113b9578063c65bc7b1146113c157610759565b8063ae3302c2146112ff578063b06423f314611307578063b136ca491461130f578063b1cc53ab1461133557610759565b8063a93acac2116102be578063a93acac214611285578063ab08c1c6146112ab578063ab2f3ad4146112b3578063ad1e4f8d146112d957610759565b80639f392eb31461121b578063a22f239214611223578063a42ab3d21461122b578063a5e90eee1461125757610759565b80638f7b8404116103675780639698d25a116103365780639698d25a1461118f5780639849e412146111b55780639899cd02146111bd5780639d7432ca146111e957610759565b80638f7b8404146111215780639060b1ca14611147578063933162121461114f57806395082d251461118757610759565b80638a27d468116103a35780638a27d468146110ac5780638a39735a146107da5780638a78daa8146110d55780638ee573ac146110fb57610759565b80638585f4d214611052578063870d917c1461107e57806388b1fbdf1461108657610759565b80634453a3741161059e57806360922199116104c4578063724e78da116104575780637c2eb9f7116104265780637c2eb9f714610f8b578063817bb85714610faa57806381a612d614610fd857806382a0849014610ffe57610759565b8063724e78da14610f0d578063728cdbca14610f33578063741bef1a14610f7b5780637a210a2b14610f8357610759565b80636ae0b154116104935780636ae0b15414610e8b5780636be6026b14610eb157806371089f4d14610eb9578063711e619014610edf57610759565b80636092219914610e2757806362287a3214610e555780636274980314610e5d5780636abbe0c814610e8357610759565b80634d47b3041161053c578063529a356f1161050b578063529a356f14610d7557806352f55eed14610d9b5780635c07eaab14610dc15780635f7bc11914610e0157610759565b80634d47b30414610cb4578063514ea4bf14610cbc57806351723e8214610d11578063523fba7f14610d4f57610759565b806348f35cbb1161057857806348f35cbb14610bfd5780634a3f088d14610c055780634a993ee914610c865780634befe2ca14610cac57610759565b80634453a37414610b3257806345a6f37014610b6057806348d91abf14610bb957610759565b806329ff961511610683578063392e53cd116106215780633e72a262116105f05780633e72a26214610a7f57806340eb380214610a875780634215287314610ad857806342b60b0314610b0c57610759565b8063392e53cd146109fb5780633a05dcc114610a035780633c5a6e3514610a295780633de39c1114610a7757610759565b806330455ede1161065d57806330455ede146109cc578063318bc689146109eb57806334c1557d146107da578063351a964d146109f357610759565b806329ff96151461093c5780632c668ec1146109625780632d4b05761461098e57610759565b8063134ca63b116106fb5780631ce9cb8f116106ca5780631ce9cb8f1461085857806324b0c04d1461087e57806324ca984e1461089f57806328e67be5146108c557610759565b8063134ca63b14610806578063174d26941461080e578063181e210e146108165780631aa4ace51461083257610759565b80630a48d5a9116107375780630a48d5a9146107a657806310eb56c2146107d2578063126082cf146107da57806312d43a51146107e257610759565b806304fef1db1461075e57806307c58752146107965780630842b0761461079e575b600080fd5b6107846004803603602081101561077457600080fd5b50356001600160a01b031661192c565b60408051918252519081900360200190f35b61078461198f565b6107846119a1565b610784600480360360408110156107bc57600080fd5b506001600160a01b0381351690602001356119a7565b6107846119fa565b610784611a00565b6107ea611a06565b604080516001600160a01b039092168252519081900360200190f35b610784611a15565b610784611a1b565b61081e611a21565b604080519115158252519081900360200190f35b6107846004803603602081101561084857600080fd5b50356001600160a01b0316611a31565b6107846004803603602081101561086e57600080fd5b50356001600160a01b0316611a43565b61089d6004803603602081101561089457600080fd5b50351515611a55565b005b61089d600480360360208110156108b557600080fd5b50356001600160a01b0316611a79565b61089d600480360360408110156108db57600080fd5b813591908101906040810160208201356401000000008111156108fd57600080fd5b82018360208201111561090f57600080fd5b8035906020019184600183028401116401000000008311171561093157600080fd5b509092509050611aaa565b6107846004803603602081101561095257600080fd5b50356001600160a01b0316611b28565b6107846004803603604081101561097857600080fd5b506001600160a01b038135169060200135611b3c565b610784600480360360808110156109a457600080fd5b506001600160a01b038135811691602081013582169160408201351690606001351515611b82565b61089d600480360360208110156109e257600080fd5b50351515611bdd565b610784611bff565b61081e611c05565b61081e611c13565b61078460048036036020811015610a1957600080fd5b50356001600160a01b0316611c1c565b61089d600480360360e0811015610a3f57600080fd5b506001600160a01b038135169060208101359060408101359060608101359060808101359060a081013515159060c001351515611cdc565b610784611e1e565b61081e611e24565b61089d6004803603610120811015610a9e57600080fd5b5080359060208101359060408101359060608101359060808101359060a08101359060c08101359060e08101359061010001351515611e33565b61078460048036036060811015610aee57600080fd5b508035906001600160a01b0360208201358116916040013516611eee565b61081e60048036036020811015610b2257600080fd5b50356001600160a01b0316611f90565b61089d60048036036040811015610b4857600080fd5b506001600160a01b0381351690602001351515611fa5565b610b9e60048036036080811015610b7657600080fd5b506001600160a01b038135811691602081013582169160408201351690606001351515611fd8565b60408051921515835260208301919091528051918290030190f35b61089d600480360360a0811015610bcf57600080fd5b506001600160a01b038135811691602081013582169160408201351690606081013590608001351515612076565b6107ea6124b5565b610c4360048036036080811015610c1b57600080fd5b506001600160a01b0381358116916020810135821691604082013516906060013515156124c4565b604080519889526020890197909752878701959095526060870193909352608086019190915260a0850152151560c084015260e083015251908190036101000190f35b61078460048036036020811015610c9c57600080fd5b50356001600160a01b03166125ba565b6107846125cc565b6107846125d2565b610cd960048036036020811015610cd257600080fd5b50356125d8565b604080519788526020880196909652868601949094526060860192909252608085015260a084015260c0830152519081900360e00190f35b61078460048036036080811015610d2757600080fd5b506001600160a01b038135811691602081013582169160408201351690606001351515612615565b61078460048036036020811015610d6557600080fd5b50356001600160a01b03166126bb565b61081e60048036036020811015610d8b57600080fd5b50356001600160a01b03166126cd565b61078460048036036020811015610db157600080fd5b50356001600160a01b03166126e2565b610b9e600480360360a0811015610dd757600080fd5b506001600160a01b03813516906020810135906040810135906060810135151590608001356126f4565b61089d60048036036020811015610e1757600080fd5b50356001600160a01b03166127ec565b61081e60048036036040811015610e3d57600080fd5b506001600160a01b03813581169160200135166128cf565b6107846128ef565b61078460048036036020811015610e7357600080fd5b50356001600160a01b03166128f5565b6107ea612907565b61089d60048036036020811015610ea157600080fd5b50356001600160a01b031661291d565b61078461294b565b61089d60048036036020811015610ecf57600080fd5b50356001600160a01b0316612952565b61078460048036036040811015610ef557600080fd5b506001600160a01b0381358116916020013516612986565b61089d60048036036020811015610f2357600080fd5b50356001600160a01b0316612c1a565b61089d600480360360c0811015610f4957600080fd5b506001600160a01b03813581169160208101358216916040820135169060608101359060808101359060a00135612c44565b6107ea612cbb565b610784612cca565b61089d60048036036020811015610fa157600080fd5b50351515612cd0565b61078460048036036040811015610fc057600080fd5b506001600160a01b0381358116916020013516612cf4565b61078460048036036020811015610fee57600080fd5b50356001600160a01b0316612fc6565b610784600480360360e081101561101457600080fd5b506001600160a01b0381358116916020810135821691604082013581169160608101359160808201359160a081013515159160c09091013516613071565b61089d6004803603604081101561106857600080fd5b506001600160a01b0381351690602001356130ef565b610784613113565b6107846004803603602081101561109c57600080fd5b50356001600160a01b0316613118565b61089d600480360360608110156110c257600080fd5b508035906020810135906040013561312a565b610784600480360360208110156110eb57600080fd5b50356001600160a01b0316613170565b6107846004803603602081101561111157600080fd5b50356001600160a01b0316613182565b61089d6004803603602081101561113757600080fd5b50356001600160a01b0316613194565b61081e6131be565b6107846004803603606081101561116557600080fd5b506001600160a01b0381358116916020810135821691604090910135166131cd565b6107846134b6565b610784600480360360208110156111a557600080fd5b50356001600160a01b03166134c7565b6107846134d9565b610784600480360360408110156111d357600080fd5b506001600160a01b0381351690602001356134df565b610784600480360360608110156111ff57600080fd5b506001600160a01b038135169060208101359060400135613501565b61081e6135aa565b6107846135b3565b6107846004803603604081101561124157600080fd5b506001600160a01b0381351690602001356135b9565b61089d6004803603604081101561126d57600080fd5b506001600160a01b03813516906020013515156135d6565b6107846004803603602081101561129b57600080fd5b50356001600160a01b0316613609565b61081e613707565b610784600480360360208110156112c957600080fd5b50356001600160a01b0316613710565b610784600480360360208110156112ef57600080fd5b50356001600160a01b0316613722565b610784613734565b61081e61373a565b6107846004803603602081101561132557600080fd5b50356001600160a01b0316613748565b6107846004803603606081101561134b57600080fd5b506001600160a01b0381358116916020810135909116906040013515156137e9565b610b9e6004803603602081101561138357600080fd5b50356001600160a01b0316613884565b610784600480360360208110156113a957600080fd5b50356001600160a01b031661391c565b61078461392e565b610784600480360360208110156113d757600080fd5b50356001600160a01b0316613934565b610784600480360360a08110156113fd57600080fd5b506001600160a01b0381351690602081013590604081013590606081013590608001351515613946565b61089d6004803603606081101561143d57600080fd5b506001600160a01b038135811691602081013590911690604001356139f0565b61089d6004803603602081101561147357600080fd5b50356001600160a01b0316613a11565b61089d6004803603602081101561149957600080fd5b5035613a3b565b61089d600480360360208110156114b657600080fd5b5035613a48565b611503600480360360a08110156114d357600080fd5b506001600160a01b0381358116916020810135821691604082013516906060810135151590608001351515613a64565b6040805192835260208301919091528051918290030190f35b61089d6004803603604081101561153257600080fd5b506001600160a01b038135169060200135613b1b565b6107846004803603602081101561155e57600080fd5b50356001600160a01b0316613b74565b610784613b86565b610784600480360360c081101561158c57600080fd5b506001600160a01b038135811691602081013582169160408201351690606081013515159060808101359060a00135613b8c565b61081e600480360360208110156115d657600080fd5b50356001600160a01b0316613c40565b61081e600480360360208110156115fc57600080fd5b50356001600160a01b0316613c55565b610784600480360360e081101561162257600080fd5b506001600160a01b0381351690602081013590604081013590606081013515159060808101359060a08101359060c00135613c69565b610784613cfa565b61089d600480360360a081101561167657600080fd5b506001600160a01b03813581169160208101358216916040820135811691606081013515159160809091013516613d00565b6107846140d8565b610784600480360360208110156116c657600080fd5b50356001600160a01b03166140de565b6107ea600480360360208110156116ec57600080fd5b5035614156565b61089d6004803603602081101561170957600080fd5b50356001600160a01b031661417d565b61089d6004803603604081101561172f57600080fd5b506001600160a01b038135169060200135614250565b6107846004803603602081101561175b57600080fd5b50356001600160a01b0316614274565b61089d6004803603602081101561178157600080fd5b50351515614286565b610784600480360360408110156117a057600080fd5b506001600160a01b03813581169160200135166142ac565b61081e600480360360208110156117ce57600080fd5b50356001600160a01b0316614302565b6107ea614317565b6107ea614326565b6107846004803603606081101561180457600080fd5b506001600160a01b038135169060208101359060400135614335565b61089d6004803603604081101561183657600080fd5b506001600160a01b038135811691602001351661436f565b610784614548565b610784600480360360a081101561186c57600080fd5b506001600160a01b03813581169160208101358216916040820135169060608101351515906080013561454e565b6118b7600480360360208110156118b057600080fd5b50356145c4565b6040805160208082528351818301528351919283929083019185019080838360005b838110156118f15781810151838201526020016118d9565b50505050905090810190601f16801561191e5780820380516001836020036101000a031916815260200191505b509250505060405180910390f35b6001600160a01b0381166000908152602560205260408120548061195457600091505061198a565b6001600160a01b03831660009081526026602052604090205461198690829061198090620f424061465f565b906146b8565b9150505b919050565b6d04ee2d6d415b85acef810000000081565b601b5490565b6000816119b6575060006119f4565b60006119c184612fc6565b6001600160a01b0385166000908152601d60205260409020549091506119ef600a82900a611980868561465f565b925050505b92915050565b600b5481565b61271081565b6006546001600160a01b031681565b60145481565b60095481565b6016546301000000900460ff1681565b60236020526000908152604090205481565b602c6020526000908152604090205481565b611a5d6146fa565b60168054911515620100000262ff000019909216919091179055565b3360009081526018602090815260408083206001600160a01b0394909416835292905220805460ff19166001179055565b6002546001600160a01b03163314611b09576040805162461bcd60e51b815260206004820152601e60248201527f5661756c743a20696e76616c6964206572726f72436f6e74726f6c6c65720000604482015290519081900360640190fd5b6000838152603060205260409020611b22908383615f8a565b50505050565b60006119f482611b3784613748565b6119a7565b600080611b48846140de565b90506000611b6782611980866c0c9f2c9cd04674edea4000000061465f565b6005549091506119ef9082906001600160a01b031687611eee565b604080516bffffffffffffffffffffffff19606096871b811660208084019190915295871b811660348301529390951b9092166048850152151560f81b605c8401528051603d818503018152605d9093019052815191012090565b611be56146fa565b600180549115156101000261ff0019909216919091179055565b600f5481565b600154610100900460ff1681565b60015460ff1681565b600080600560009054906101000a90046001600160a01b03166001600160a01b03166318160ddd6040518163ffffffff1660e01b815260040160206040518083038186803b158015611c6d57600080fd5b505afa158015611c81573d6000803e3d6000fd5b505050506040513d6020811015611c9757600080fd5b5051905080611caa57600091505061198a565b6001600160a01b038316600090815260226020526040902054601554611cd490611980838561465f565b949350505050565b611ce46146fa565b6001600160a01b0387166000908152601c602052604090205460ff16611d6157600754611d12906001614715565b600755601b80546001810182556000919091527f3ad8aa4f87544323a9d1e5dd902f40c356527a7955687113db5f9a85ad579dc10180546001600160a01b0319166001600160a01b0389161790555b6015546001600160a01b038816600090815260226020526040902054611d8890829061476f565b6001600160a01b0389166000908152601c602090815260408083208054600160ff1991821617909155601d83528184208c9055602283528184208b9055601e83528184208a905560248352818420899055601f83528184208054821689151517905591805290912080549091168415151790559050611e078187614715565b601555611e13886140de565b505050505050505050565b60175481565b60015462010000900460ff1681565b611e3b6146fa565b611e4b6101f48a111560036147b1565b611e5b6101f489111560046147b1565b611e6b6101f488111560056147b1565b611e7b6101f487111560066147b1565b611e8b6101f486111560076147b1565b611e9b6101f485111560086147b1565b611eb76d04ee2d6d415b85acef810000000084111560096147b1565b600a98909855600b96909655600c94909455600d92909255600e55600f556009556010556011805460ff1916911515919091179055565b60055460009081906001600160a01b03858116911614611f26576001600160a01b0384166000908152601d6020526040902054611f29565b60125b6005549091506000906001600160a01b03858116911614611f62576001600160a01b0384166000908152601d6020526040902054611f65565b60125b9050611f8482600a0a61198083600a0a8961465f90919063ffffffff16565b925050505b9392505050565b601f6020526000908152604090205460ff1681565b611fad6146fa565b6001600160a01b03919091166000908152601960205260409020805460ff1916911515919091179055565b6000806000611fe987878787611b82565b9050611ff3616008565b506000818152602b6020908152604091829020825160e081018452815480825260018301549382019390935260028201549381018490526003820154606082015260048201546080820152600582015460a082015260069091015460c08201819052909261206792899290919089906126f4565b93509350505094509492505050565b600260005414156120bc576040805162461bcd60e51b815260206004820152601f602482015260008051602061605b833981519152604482015290519081900360640190fd5b60026000556001546120d89062010000900460ff16601c6147b1565b6120e061485d565b6120e985614879565b6120f48484836148dc565b60015460408051634eae147d60e11b81526001600160a01b038881166004830152878116602483015286811660448301526064820186905284151560848301529151630100000090930490911691639d5c28fa9160a480820192600092909190829003018186803b15801561216857600080fd5b505afa15801561217c573d6000803e3d6000fd5b5050505061218a848461436f565b600061219886868685611b82565b6000818152602b60205260408120919250836121bc576121b786612fc6565b6121c5565b6121c5866140de565b82549091506121d657600282018190555b8154158015906121e65750600085115b1561220c57612206868360000154846002015487858a8860060154613c69565b60028301555b6000612225898989888a886000015489600301546149f1565b9050600061223289614abf565b905060006122408a836119a7565b60018601549091506122529082614715565b6001860181905561226790841115601d6147b1565b6001850154612276908461476f565b60018601556122868a8a896137e9565b600386015584546122979089614715565b8086554260068701556122ad901515601e6147b1565b6122bf85600001548660010154614b6c565b6122cd8b8b8b8a6001613a64565b505060006122db8b8a6135b9565b60048701549091506122ed9082614715565b60048701556122fc8b82614b90565b8715612341576123158b6123108b87614715565b614c30565b61231f8b83614caf565b6123298b84614d2e565b61233c8b6123378d876134df565b614e46565b6123ad565b6001600160a01b038a166000908152602d602052604090205461237e576001600160a01b038a166000908152602e602052604090208590556123a3565b6123898a868b613501565b6001600160a01b038b166000908152602e60205260409020555b6123ad8a8a614f1c565b604080518881526001600160a01b03808f166020830152808e16828401528c1660608201526080810184905260a081018b905289151560c082015260e08101879052610100810186905290517f2fe68525253654c21998f35787a8d0f361905ef647c854092430ab65f2f15022918190036101200190a1855460018701546002880154600389015460048a015460058b0154604080518e81526020810197909752868101959095526060860193909352608085019190915260a084015260c083015260e08201879052517f20853733b590dce729d9f4628682ebd9a34d2354e72679e66f43a008fc03b773918190036101000190a15050600160005550505050505050505050565b6002546001600160a01b031681565b60008060008060008060008060006124de8d8d8d8d611b82565b90506124e8616008565b602b60008381526020019081526020016000206040518060e001604052908160008201548152602001600182015481526020016002820154815260200160038201548152602001600482015481526020016005820154815260200160068201548152505090506000808260a0015113612568578160a0015160000361256e565b8160a001515b9050816000015182602001518360400151846060015185608001518560008860a0015112158860c001519a509a509a509a509a509a509a509a5050505094995094995094999196509450565b60276020526000908152604090205481565b6101f481565b600c5481565b602b602052600090815260409020805460018201546002830154600384015460048501546005860154600690960154949593949293919290919087565b60008061262486868686611b82565b905061262e616008565b506000818152602b6020908152604091829020825160e0810184528154815260018201549281018390526002820154938101939093526003810154606084015260048101546080840152600581015460a08401526006015460c083015261269890151560256147b1565b602081015181516126b091906119809061271061465f565b979650505050505050565b60216020526000908152604090205481565b60196020526000908152604090205460ff1681565b60256020526000908152604090205481565b6000806127056000861160266147b1565b60008461271a57612715886140de565b612723565b61272388612fc6565b9050600081871161273d57612738828861476f565b612747565b612747878361476f565b90506000612759886119808b8561465f565b90506000871561276c5750878311612771565b508288115b60006127886010548961471590919063ffffffff16565b42116127ac576001600160a01b038c166000908152601e60205260409020546127af565b60005b90508180156127d257506127c38b8261465f565b6127cf8461271061465f565b11155b156127dc57600092505b509a909950975050505050505050565b60026000541415612832576040805162461bcd60e51b815260206004820152601f602482015260008051602061605b833981519152604482015290519081900360640190fd5b600260009081556001600160a01b0382168152601c602052604090205461285d9060ff16600e6147b1565b600061286882614abf565b905061287860008211600f6147b1565b6128828282614d2e565b604080516001600160a01b03841681526020810183905281517fa5a389190ebf6170a133bda5c769b77f4d6715b8aa172ec0ddf8473d0b4944bd929181900390910190a150506001600055565b601860209081526000928352604080842090915290825290205460ff1681565b60075481565b602e6020526000908152604090205481565b600154630100000090046001600160a01b031681565b3360009081526018602090815260408083206001600160a01b0394909416835292905220805460ff19169055565b620f424081565b61295a6146fa565b600180546001600160a01b039092166301000000026301000000600160b81b0319909216919091179055565b6000600260005414156129ce576040805162461bcd60e51b815260206004820152601f602482015260008051602061605b833981519152604482015290519081900360640190fd5b60026000556129db614fd7565b6001600160a01b0383166000908152601c6020526040902054612a029060ff1660136147b1565b6016805461ff001916610100179055600554600090612a29906001600160a01b0316614abf565b9050612a396000821160146147b1565b612a43848561436f565b6000612a4f8583611b3c565b9050612a5f6000821160156147b1565b612a698583615006565b612a738582614e46565b60055460408051632770a7eb60e21b81523060048201526024810185905290516001600160a01b0390921691639dc29fac9160448082019260009290919082900301818387803b158015612ac657600080fd5b505af1158015612ada573d6000803e3d6000fd5b5050600554612af492506001600160a01b031690506150e8565b6001546040805163eb0835bf60e01b81526001600160a01b038881166004830152602482018690529151600093630100000090049092169163eb0835bf91604480820192602092909190829003018186803b158015612b5257600080fd5b505afa158015612b66573d6000803e3d6000fd5b505050506040513d6020811015612b7c57600080fd5b505190506000612b8d878484615183565b9050612b9d6000821160166147b1565b612ba887828861524b565b604080516001600160a01b03808916825289166020820152808201869052606081018390526080810184905290517fd732b7828fa6cee72c285eac756fc66a7477e3dc22e22e7c432f1c265d40b4839181900360a00190a16016805461ff001916905560016000559695505050505050565b612c226146fa565b600480546001600160a01b0319166001600160a01b0392909216919091179055565b612c4c6146fa565b60018054612c609160ff90911615906147b1565b6001805460ff191681179055600380546001600160a01b03199081166001600160a01b039889161790915560058054821696881696909617909555600480549095169390951692909217909255600991909155601355601455565b6004546001600160a01b031681565b600a5481565b612cd86146fa565b60018054911515620100000262ff000019909216919091179055565b600060026000541415612d3c576040805162461bcd60e51b815260206004820152601f602482015260008051602061605b833981519152604482015290519081900360640190fd5b6002600055612d49614fd7565b6001600160a01b0383166000908152601c6020526040902054612d709060ff1660106147b1565b6016805461ff0019166101001790556000612d8a84614abf565b9050612d9a6000821160116147b1565b612da4848561436f565b6000612daf85612fc6565b90506000612dce6c0c9f2c9cd04674edea40000000611980858561465f565b600554909150612dea90829088906001600160a01b0316611eee565b9050612dfa6000821160126147b1565b6001546040805163256f6ee360e11b81526001600160a01b0389811660048301526024820185905291516000936301000000900490921691634adeddc691604480820192602092909190829003018186803b158015612e5857600080fd5b505afa158015612e6c573d6000803e3d6000fd5b505050506040513d6020811015612e8257600080fd5b505190506000612e93888684615183565b90506000612eb26c0c9f2c9cd04674edea40000000611980848861465f565b600554909150612ece9082908b906001600160a01b0316611eee565b9050612eda89826152f2565b612ee48983614d2e565b600554604080516340c10f1960e01b81526001600160a01b038b8116600483015260248201859052915191909216916340c10f1991604480830192600092919082900301818387803b158015612f3957600080fd5b505af1158015612f4d573d6000803e3d6000fd5b5050604080516001600160a01b03808d1682528d1660208201528082018a9052606081018590526080810187905290517fab4c77c74cd32c85f35416cf03e7ce9e2d4387f7b7f2c1f4bf53daaecf8ea72d93509081900360a0019150a16016805461ff0019169055600160005598975050505050505050565b60048054601654604080516317e1d38560e11b81526001600160a01b038681169582019590955260006024820181905260ff80851615156044840152610100909404909316151560648201529051919390921691632fc3a70a916084808301926020929190829003018186803b15801561303f57600080fd5b505afa158015613053573d6000803e3d6000fd5b505050506040513d602081101561306957600080fd5b505192915050565b6000600260005414156130b9576040805162461bcd60e51b815260206004820152601f602482015260008051602061605b833981519152604482015290519081900360640190fd5b60026000556130c661485d565b6130cf88614879565b6130de888888888888886153b0565b600160005598975050505050505050565b6130f76146fa565b6001600160a01b03909116600090815260276020526040902055565b601281565b601e6020526000908152604090205481565b6131326146fa565b613142610e10841015600a6147b1565b613152612710831115600b6147b1565b613162612710821115600c6147b1565b601292909255601355601455565b602d6020526000908152604090205481565b601d6020526000908152604090205481565b61319c6146fa565b600280546001600160a01b0319166001600160a01b0392909216919091179055565b60165462010000900460ff1681565b600060026000541415613215576040805162461bcd60e51b815260206004820152601f602482015260008051602061605b833981519152604482015290519081900360640190fd5b600260005560015461323090610100900460ff1660176147b1565b6001600160a01b0384166000908152601c60205260409020546132579060ff1660186147b1565b6001600160a01b0383166000908152601c602052604090205461327e9060ff1660196147b1565b61329e836001600160a01b0316856001600160a01b03161415601a6147b1565b6016805461ff0019166101001790556132b7848061436f565b6132c1838461436f565b60006132cc85614abf565b90506132dc60008211601b6147b1565b60006132e786612fc6565b905060006132f4866140de565b9050600061330682611980868661465f565b9050613313818989611eee565b905060006133326c0c9f2c9cd04674edea40000000611980878761465f565b60055490915061334e9082908b906001600160a01b0316611eee565b60015460408051636d099c0b60e11b81526001600160a01b038d811660048301528c8116602483015260448201859052915193945060009363010000009093049091169163da13381691606480820192602092909190829003018186803b1580156133b857600080fd5b505afa1580156133cc573d6000803e3d6000fd5b505050506040513d60208110156133e257600080fd5b5051905060006133f38a8584615183565b90506133ff8b846152f2565b6134098a84615006565b6134138b88614d2e565b61341d8a85614e46565b6134268a615873565b6134318a828b61524b565b604080516001600160a01b03808c168252808e1660208301528c1681830152606081018990526080810186905260a0810183905260c0810184905290517f0874b2d545cb271cdbda4e093020c452328b24af12382ed62c4d00f5c26709db9181900360e00190a16016805461ff001916905560016000559a9950505050505050505050565b6c0c9f2c9cd04674edea4000000081565b602f6020526000908152604090205481565b60125481565b6000816134ee575060006119f4565b611f8983836134fc866140de565b614335565b6001600160a01b0383166000908152602d6020908152604080832054602e9092528220548285821161353c57613537868361476f565b613546565b613546828761476f565b9050600061355883611980868561465f565b905086831160006135698689614715565b90506000826135815761357c8285614715565b61358b565b61358b828561476f565b905061359b816119808c8561465f565b9b9a5050505050505050505050565b60115460ff1681565b600d5481565b6000816135c8575060006119f4565b611f8983836134fc86612fc6565b6135de6146fa565b6001600160a01b03919091166000908152601a60205260409020805460ff1916911515919091179055565b6012546001600160a01b0382166000908152602a60205260408120549091429161363291614715565b11156136405750600061198a565b6012546001600160a01b0383166000908152602a6020526040812054909161366d9161198090429061476f565b6001600160a01b038416600090815260256020526040902054909150806136995760009250505061198a565b6001600160a01b0384166000908152601f602052604081205460ff166136c1576013546136c5565b6014545b6001600160a01b0386166000908152602660205260409020549091506136fe9083906119809086906136f890869061465f565b9061465f565b95945050505050565b60165460ff1681565b60226020526000908152604090205481565b60246020526000908152604090205481565b60085481565b601654610100900460ff1681565b6001600160a01b0381166000908152601f602052604081205460ff161561378857506001600160a01b03811660009081526025602052604090205461198a565b6001600160a01b0382166000908152602860205260408120546137ac9084906134df565b6001600160a01b038416600090815260266020908152604080832054602590925290912054919250611986916137e3908490614715565b9061476f565b6001546040805163b1cc53ab60e01b81526001600160a01b038681166004830152858116602483015284151560448301529151600093630100000090049092169163b1cc53ab91606480820192602092909190829003018186803b15801561385057600080fd5b505afa158015613864573d6000803e3d6000fd5b505050506040513d602081101561387a57600080fd5b5051949350505050565b6001600160a01b0381166000908152602d60205260408120548190806138b1576000809250925050613917565b60006138bc856140de565b6001600160a01b0386166000908152602e60205260408120549192508282116138ee576138e9838361476f565b6138f8565b6138f8828461476f565b9050600061390a83611980878561465f565b9390921195509193505050505b915091565b60266020526000908152604090205481565b60135481565b60296020526000908152604090205481565b6001546040805163c7e074c360e01b81526001600160a01b03888116600483015260248201889052604482018790526064820186905284151560848301529151600093630100000090049092169163c7e074c39160a480820192602092909190829003018186803b1580156139ba57600080fd5b505afa1580156139ce573d6000803e3d6000fd5b505050506040513d60208110156139e457600080fd5b50519695505050505050565b6139f86146fa565b613a0c6001600160a01b03831684836158eb565b505050565b613a196146fa565b600680546001600160a01b0319166001600160a01b0392909216919091179055565b613a436146fa565b601755565b613a506146fa565b613a5f612710821160026147b1565b600855565b6001546040805163d54d5a9f60e01b81526001600160a01b03888116600483015287811660248301528681166044830152851515606483015284151560848301528251600094859463010000009091049092169263d54d5a9f9260a4808301939192829003018186803b158015613ada57600080fd5b505afa158015613aee573d6000803e3d6000fd5b505050506040513d6040811015613b0457600080fd5b508051602090910151909890975095505050505050565b613b236146fa565b6001600160a01b03821660009081526023602052604090205480821115613b5d57613b5783613b52848461476f565b6152f2565b50613b70565b613a0c83613b6b838561476f565b615006565b5050565b602a6020526000908152604090205481565b60105481565b6001546040805163369d949360e21b81526001600160a01b0389811660048301528881166024830152878116604483015286151560648301526084820186905260a482018590529151600093630100000090049092169163da76524c9160c480820192602092909190829003018186803b158015613c0957600080fd5b505afa158015613c1d573d6000803e3d6000fd5b505050506040513d6020811015613c3357600080fd5b5051979650505050505050565b601c6020526000908152604090205460ff1681565b602080526000908152604090205460ff1681565b6000806000613c7b8a8a8a8a886126f4565b90925090506000613c8c8a87614715565b905060008815613cbb5783613caa57613ca5828461476f565b613cb4565b613cb48284614715565b9050613cdc565b83613ccf57613cca8284614715565b613cd9565b613cd9828461476f565b90505b613cea816119808a8561465f565b9c9b505050505050505050505050565b60155481565b60026000541415613d46576040805162461bcd60e51b815260206004820152601f602482015260008051602061605b833981519152604482015290519081900360640190fd5b60026000556016546301000000900460ff1615613d7b5733600090815260196020526040902054613d7b9060ff1660226147b1565b6016805460ff19169055613d8f848461436f565b6000613d9d86868686611b82565b9050613da7616008565b506000818152602b6020908152604091829020825160e08101845281548082526001830154938201939093526002820154938101939093526003810154606084015260048101546080840152600581015460a08401526006015460c0830152613e1390151560236147b1565b600080613e24898989896000613a64565b91509150613e37826000141560246147b1565b8160021415613e6c57613e54898989600087600001518b8f6153b0565b50506016805460ff19166001179055506140cc915050565b6000613e7889836134df565b6001600160a01b038a166000908152602c6020526040902054909150613e9e9082614715565b6001600160a01b038a166000818152602c602090815260409182902093909355805191825291810184905280820183905290517f5d0c0019d3d45fadeb74eff9d2c9924d146d000ac6bcf3c28bf0ac3c9baa011a9181900360600190a1613f0989856080015161593d565b8615613f385760208401518451613f2a918b91613f259161476f565b614caf565b613f38896123378b856134df565b600087613f4d57613f48896140de565b613f56565b613f5689612fc6565b90507f2e1f85a64a2f22cf2f0c42584e7c919ed4abe8d53675cff0f62bf1e95a1c676f868c8c8c8c8a600001518b602001518c608001518d60a001518a604051808b81526020018a6001600160a01b03168152602001896001600160a01b03168152602001886001600160a01b0316815260200187151581526020018681526020018581526020018481526020018381526020018281526020019a505050505050505050505060405180910390a1871580156140155750846020015183105b1561404357602085015160009061402c908561476f565b90506140418b61403c8d846134df565b614d2e565b505b87614056576140568986600001516159f4565b6000868152602b602052604081208181556001810182905560028101829055600381018290556004810182905560058101829055600601556009546140a2908b906123379082906134df565b6140b88a6140b28c6009546134df565b8961524b565b50506016805460ff19166001179055505050505b50506001600055505050565b600e5481565b60048054601654604080516317e1d38560e11b81526001600160a01b03868116958201959095526001602482015260ff80841615156044830152610100909304909216151560648301525160009390921691632fc3a70a91608480820192602092909190829003018186803b15801561303f57600080fd5b601b818154811061416357fe5b6000918252602090912001546001600160a01b0316905081565b6141856146fa565b6001600160a01b0381166000908152601c60205260409020546141ac9060ff16600d6147b1565b6001600160a01b0381166000908152602260205260409020546015546141d19161476f565b6015556001600160a01b0381166000908152601c60209081526040808320805460ff19908116909155601d835281842084905560228352818420849055601e835281842084905560248352818420849055601f83528184208054821690559180529091208054909116905560075461424a90600161476f565b60075550565b6142586146fa565b6001600160a01b039091166000908152602f6020526040902055565b60286020526000908152604090205481565b61428e6146fa565b6016805491151563010000000263ff00000019909216919091179055565b60006142b66146fa565b6001600160a01b0383166000908152602c6020526040902054806142de5760009150506119f4565b6001600160a01b0384166000908152602c6020526040812055611f8984828561524b565b601a6020526000908152604090205460ff1681565b6005546001600160a01b031681565b6003546001600160a01b031681565b60008261434457506000611f89565b6001600160a01b0384166000908152601d60205260409020546136fe8361198086600a85900a61465f565b6001546040805163fbfded6d60e01b81526001600160a01b03858116600483015284811660248301529151600093630100000090049092169163fbfded6d9160448082019260209290919082900301818787803b1580156143cf57600080fd5b505af11580156143e3573d6000803e3d6000fd5b505050506040513d60208110156143f957600080fd5b50519050806144085750613b70565b6001600160a01b0383166000908152602a602052604090205461445557601254614436906136f842826146b8565b6001600160a01b0384166000908152602a602052604090205550613b70565b6012546001600160a01b0384166000908152602a6020526040902054429161447d9190614715565b11156144895750613b70565b600061449484613609565b6001600160a01b0385166000908152602960205260409020549091506144ba9082614715565b6001600160a01b0385166000908152602960205260409020556012546144e4906136f842826146b8565b6001600160a01b0385166000818152602a602090815260408083209490945560298152908390205483519283529082015281517fa146fc154e1913322e9817d49f0d5c37466c24326e15de10e739a948be815eab929181900390910190a150505050565b610e1081565b6001546040805163fdaf6ac360e01b81526001600160a01b038881166004830152878116602483015286811660448301528515156064830152608482018590529151600093630100000090049092169163fdaf6ac39160a480820192602092909190829003018186803b1580156139ba57600080fd5b60306020908152600091825260409182902080548351601f6002600019610100600186161502019093169290920491820184900484028101840190945280845290918301828280156146575780601f1061462c57610100808354040283529160200191614657565b820191906000526020600020905b81548152906001019060200180831161463a57829003601f168201915b505050505081565b60008261466e575060006119f4565b8282028284828161467b57fe5b0414611f895760405162461bcd60e51b815260040180806020018281038252602181526020018061607b6021913960400191505060405180910390fd5b6000611f8983836040518060400160405280601a81526020017f536166654d6174683a206469766973696f6e206279207a65726f000000000000815250615a5c565b600654614713906001600160a01b0316331460356147b1565b565b600082820183811015611f89576040805162461bcd60e51b815260206004820152601b60248201527f536166654d6174683a206164646974696f6e206f766572666c6f770000000000604482015290519081900360640190fd5b6000611f8983836040518060400160405280601e81526020017f536166654d6174683a207375627472616374696f6e206f766572666c6f770000815250615afe565b600081815260306020526040902082613a0c5760405162461bcd60e51b815260206004820190815282546002600019610100600184161502019091160460248301819052909182916044909101908490801561484e5780601f106148235761010080835404028352916020019161484e565b820191906000526020600020905b81548152906001019060200180831161483157829003601f168201915b50509250505060405180910390fd5b60175461486957614713565b6147136017543a111560376147b1565b336001600160a01b038216141561488f576148d9565b6003546001600160a01b03163314156148a7576148d9565b6001600160a01b03811660009081526018602090815260408083203384529091529020546148d99060ff1660296147b1565b50565b801561495557614901826001600160a01b0316846001600160a01b031614602a6147b1565b6001600160a01b0383166000908152601c60205260409020546149289060ff16602b6147b1565b6001600160a01b0383166000908152601f60205260409020546149509060ff1615602c6147b1565b613a0c565b6001600160a01b0383166000908152601c602052604090205461497c9060ff16602d6147b1565b6001600160a01b0383166000908152601f60205260409020546149a39060ff16602e6147b1565b6001600160a01b0382166000908152601f60205260409020546149cb9060ff1615602f6147b1565b6001600160a01b0382166000908152602080526040902054613a0c9060ff1660306147b1565b600080614a01898989898961454e565b90506000614a138a8a8a8a8989613b8c565b9050614a1f8282614715565b91506000614a2d8a846134df565b6001600160a01b038b166000908152602c6020526040902054909150614a539082614715565b6001600160a01b038b166000818152602c602090815260409182902093909355805191825291810185905280820183905290517f5d0c0019d3d45fadeb74eff9d2c9924d146d000ac6bcf3c28bf0ac3c9baa011a9181900360600190a150909998505050505050505050565b6001600160a01b03811660008181526021602090815260408083205481516370a0823160e01b8152306004820152915193949093859391926370a08231926024808301939192829003018186803b158015614b1957600080fd5b505afa158015614b2d573d6000803e3d6000fd5b505050506040513d6020811015614b4357600080fd5b50516001600160a01b03851660009081526021602052604090208190559050611cd4818361476f565b81614b8257614b7d811560276147b1565b613b70565b613b708183101560286147b1565b6001600160a01b038216600090815260266020526040902054614bb39082614715565b6001600160a01b038316600090815260266020818152604080842085905560258252909220549152614be891111560346147b1565b604080516001600160a01b03841681526020810183905281517faa5649d82f5462be9d19b0f2b31a59b2259950a6076550bac9f3a1c07db9f66d929181900390910190a15050565b6001600160a01b038216600090815260286020526040902054614c539082614715565b6001600160a01b03831660008181526028602090815260409182902093909355805191825291810183905281517fd9d4761f75e0d0103b5cbeab941eeb443d7a56a35b5baf2a0787c03f03f4e474929181900390910190a15050565b6001600160a01b038216600090815260286020526040902054614cd2908261476f565b6001600160a01b03831660008181526028602090815260409182902093909355805191825291810183905281517f34e07158b9db50df5613e591c44ea2ebc82834eff4a4dc3a46e000e608261d68929181900390910190a15050565b6001600160a01b038216600090815260256020526040902054614d519082614715565b6001600160a01b03831660008181526025602090815260408083209490945583516370a0823160e01b8152306004820152935191936370a082319260248083019392829003018186803b158015614da757600080fd5b505afa158015614dbb573d6000803e3d6000fd5b505050506040513d6020811015614dd157600080fd5b50516001600160a01b038416600090815260256020526040902054909150614dfd9082101560316147b1565b604080516001600160a01b03851681526020810184905281517f976177fbe09a15e5e43f848844963a42b41ef919ef17ff21a17a5421de8f4737929181900390910190a1505050565b604080518082018252601a81527f5661756c743a20706f6f6c416d6f756e742065786365656465640000000000006020808301919091526001600160a01b038516600090815260259091529190912054614ea1918390615afe565b6001600160a01b03831660009081526025602090815260408083208490556026909152902054614ed491101560326147b1565b604080516001600160a01b03841681526020810183905281517f112726233fbeaeed0f5b1dba5cb0b2b81883dee49fb35ff99fd98ed9f6d31eb0929181900390910190a15050565b6001600160a01b0382166000908152602d6020526040902054614f3f9082614715565b6001600160a01b0383166000908152602d6020908152604080832093909355602f905220548015613a0c576001600160a01b0383166000908152602d6020526040902054811015613a0c576040805162461bcd60e51b815260206004820152601a60248201527f5661756c743a206d61782073686f727473206578636565646564000000000000604482015290519081900360640190fd5b60165462010000900460ff161561471357336000908152601a60205260409020546147139060ff1660366147b1565b6001600160a01b038216600090815260236020526040902054818111615081576001600160a01b0383166000818152602360209081526040808320929092558151928352820183905280517fe1e812596aac93a06ecc4ca627014d18e30f5c33b825160cc9d5c0ba61e452279281900390910190a150613b70565b61508b818361476f565b6001600160a01b03841660008181526023602090815260409182902093909355805191825291810184905281517fe1e812596aac93a06ecc4ca627014d18e30f5c33b825160cc9d5c0ba61e45227929181900390910190a1505050565b6000816001600160a01b03166370a08231306040518263ffffffff1660e01b815260040180826001600160a01b0316815260200191505060206040518083038186803b15801561513757600080fd5b505afa15801561514b573d6000803e3d6000fd5b505050506040513d602081101561516157600080fd5b50516001600160a01b0390921660009081526021602052604090209190915550565b6000806151a0612710611980615199828761476f565b879061465f565b905060006151ae858361476f565b6001600160a01b0387166000908152602c60205260409020549091506151d49082614715565b6001600160a01b0387166000908152602c60205260409020557f47cd9dda0e50ce30bcaaacd0488452b596221c07ac402a581cfae4d3933cac2b8661521981846119a7565b604080516001600160a01b0390931683526020830191909152818101849052519081900360600190a150949350505050565b61525f6001600160a01b03841682846158eb565b604080516370a0823160e01b815230600482015290516001600160a01b038516916370a08231916024808301926020929190829003018186803b1580156152a557600080fd5b505afa1580156152b9573d6000803e3d6000fd5b505050506040513d60208110156152cf57600080fd5b50516001600160a01b039093166000908152602160205260409020929092555050565b6001600160a01b0382166000908152602360205260409020546153159082614715565b6001600160a01b0383166000908152602360209081526040808320939093556024905220548015615367576001600160a01b0383166000908152602360205260409020546153679082101560336147b1565b604080516001600160a01b03851681526020810184905281517f64243679a443432e2293343b77d411ff6144370404618f00ca0d2025d9ca9882929181900390910190a1505050565b600154604080516381d11a2360e01b81526001600160a01b038a8116600483015289811660248301528881166044830152606482018890526084820187905285151560a483015284811660c4830152915160009363010000009004909216916381d11a239160e4808201928692909190829003018186803b15801561543457600080fd5b505afa158015615448573d6000803e3d6000fd5b50505050615456878761436f565b600061546489898987611b82565b6000818152602b60205260409020805491925090615485901515601f6147b1565b615497868260000154101560206147b1565b6154a9878260010154101560216147b1565b6001810154815460048301546000916154c691611980908b61465f565b60048401549091506154d8908261476f565b60048401556154e78b8261593d565b506000806154f98d8d8d8d8d8d615b58565b85549193509150891461569d576155118c8c8a6137e9565b60038501558354615522908a61476f565b80855560018501546155349190614b6c565b6155428d8d8d8b6001613a64565b5050871561556f576155658c61231086600101548661476f90919063ffffffff16565b61556f8c8a614caf565b6000886155845761557f8c6140de565b61558d565b61558d8c612fc6565b90507f93d75d64d1f84fc6f430a64fc578bdd4c1e090e90ea2d51773e626d19de56d30868f8f8f8f8f8f886155c28c8c61476f565b60408051998a526001600160a01b0398891660208b015296881689880152949096166060880152608087019290925260a0860152151560c085015260e084019290925261010083019190915251908190036101200190a18454600186015460028701546003880154600489015460058a0154604080518d81526020810197909752868101959095526060860193909352608085019190915260a084015260c083015260e08201839052517f20853733b590dce729d9f4628682ebd9a34d2354e72679e66f43a008fc03b773918190036101000190a150615811565b87156156b7576156ad8c84614c30565b6156b78c8a614caf565b6000886156cc576156c78c6140de565b6156d5565b6156d58c612fc6565b90507f93d75d64d1f84fc6f430a64fc578bdd4c1e090e90ea2d51773e626d19de56d30868f8f8f8f8f8f8861570a8c8c61476f565b60408051998a526001600160a01b0398891660208b015296881689880152949096166060880152608087019290925260a0860152151560c085015260e084019290925261010083019190915251908190036101200190a18454600186015460028701546003880154600489015460058a0154604080518d81526020810197909752868101959095526060860193909352608085019190915260a084015260c0830152517f73af1d417d82c240fdb6d319b34ad884487c6bf2845d98980cc52ad9171cb4559181900360e00190a1506000858152602b602052604081208181556001810182905560028101829055600381018290556004810182905560058101829055600601555b87615820576158208b8a6159f4565b811561586057871561583a5761583a8c6123378e856134df565b60006158468d836134df565b90506158538d828a61524b565b95506126b0945050505050565b5060009c9b505050505050505050505050565b6001600160a01b03811660009081526027602090815260408083205460259092529091205410156148d9576040805162461bcd60e51b815260206004820152601a60248201527f5661756c743a20706f6f6c416d6f756e74203c20627566666572000000000000604482015290519081900360640190fd5b604080516001600160a01b038416602482015260448082018490528251808303909101815260649091019091526020810180516001600160e01b031663a9059cbb60e01b179052613a0c908490615d52565b604080518082018252601b81527f5661756c743a20696e73756666696369656e74207265736572766500000000006020808301919091526001600160a01b038516600090815260269091529190912054615998918390615afe565b6001600160a01b03831660008181526026602090815260409182902093909355805191825291810183905281517f533cb5ed32be6a90284e96b5747a1bfc2d38fdb5768a6b5f67ff7d62144ed67b929181900390910190a15050565b6001600160a01b0382166000908152602d602052604090205480821115615a3457506001600160a01b0382166000908152602d6020526040812055613b70565b615a3e818361476f565b6001600160a01b0384166000908152602d6020526040902055505050565b60008183615ae85760405162461bcd60e51b81526004018080602001828103825283818151815260200191508051906020019080838360005b83811015615aad578181015183820152602001615a95565b50505050905090810190601f168015615ada5780820380516001836020036101000a031916815260200191505b509250505060405180910390fd5b506000838581615af457fe5b0495945050505050565b60008184841115615b505760405162461bcd60e51b8152602060048201818152835160248401528351909283926044909101919085019080838360008315615aad578181015183820152602001615a95565b505050900390565b6000806000615b6989898987611b82565b6000818152602b60205260408120805460038201549394509092615b96918d918d918d918b918d916149f1565b9050600080600080615bb78d876000015488600201548d8a600601546126f4565b87549195508593509150615bcf906119808d8461465f565b925050506000828015615be25750600082115b15615c125750600584018054820190558088615c12576000615c048e846134df565b9050615c108e82614e46565b505b82158015615c205750600082115b15615c64576001850154615c34908361476f565b600186015588615c58576000615c4a8e846134df565b9050615c568e82614d2e565b505b60058501805483900390555b8a15615c8c57615c74818c614715565b6001860154909150615c86908c61476f565b60018601555b84548a1415615caf576001850154615ca5908290614715565b6000600187015590505b8084811115615cc957615cc2828661476f565b9050615cfd565b6001860154615cd8908661476f565b60018701558915615cfd576000615cef8f876134df565b9050615cfb8f82614e46565b505b60408051888152851515602082015280820185905290517f3ff41bdde87755b687ae83d0221a232b6be51a803330ed9661c1b5d0105e0d8a9181900360600190a1909e909d509b505050505050505050505050565b6060615da7826040518060400160405280602081526020017f5361666545524332303a206c6f772d6c6576656c2063616c6c206661696c6564815250856001600160a01b0316615e039092919063ffffffff16565b805190915015613a0c57808060200190516020811015615dc657600080fd5b5051613a0c5760405162461bcd60e51b815260040180806020018281038252602a81526020018061609c602a913960400191505060405180910390fd5b6060611cd4848460008585615e1785615f1e565b615e68576040805162461bcd60e51b815260206004820152601d60248201527f416464726573733a2063616c6c20746f206e6f6e2d636f6e7472616374000000604482015290519081900360640190fd5b60006060866001600160a01b031685876040518082805190602001908083835b60208310615ea75780518252601f199092019160209182019101615e88565b6001836020036101000a03801982511681845116808217855250505050505090500191505060006040518083038185875af1925050503d8060008114615f09576040519150601f19603f3d011682016040523d82523d6000602084013e615f0e565b606091505b50915091506126b0828286615f24565b3b151590565b60608315615f33575081611f89565b825115615f435782518084602001fd5b60405162461bcd60e51b8152602060048201818152845160248401528451859391928392604401919085019080838360008315615aad578181015183820152602001615a95565b828054600181600116156101000203166002900490600052602060002090601f016020900481019282601f10615fcb5782800160ff19823516178555615ff8565b82800160010185558215615ff8579182015b82811115615ff8578235825591602001919060010190615fdd565b50616004929150616045565b5090565b6040518060e00160405280600081526020016000815260200160008152602001600081526020016000815260200160008152602001600081525090565b5b80821115616004576000815560010161604656fe5265656e7472616e637947756172643a207265656e7472616e742063616c6c00536166654d6174683a206d756c7469706c69636174696f6e206f766572666c6f775361666545524332303a204552433230206f7065726174696f6e20646964206e6f742073756363656564a264697066735822122059b22890aa7a3b52e25adc460bfb0000b64e1ae3da1f38c46a17057f5ba83b1d64736f6c634300060c0033","linkReferences":{}},"methodIdentifiers":{"BASIS_POINTS_DIVISOR()":"126082cf","FUNDING_RATE_PRECISION()":"6be6026b","MAX_FEE_BASIS_POINTS()":"4befe2ca","MAX_FUNDING_RATE_FACTOR()":"8a39735a","MAX_LIQUIDATION_FEE_USD()":"07c58752","MIN_FUNDING_RATE_INTERVAL()":"fce28c10","MIN_LEVERAGE()":"34c1557d","PRICE_PRECISION()":"95082d25","USDG_DECIMALS()":"870d917c","addRouter(address)":"24ca984e","adjustForDecimals(uint256,address,address)":"42152873","allWhitelistedTokens(uint256)":"e468baf0","allWhitelistedTokensLength()":"0842b076","approvedRouters(address,address)":"60922199","bufferAmounts(address)":"4a993ee9","buyUSDG(address,address)":"817bb857","clearTokenConfig(address)":"e67f59a7","cumulativeFundingRates(address)":"c65bc7b1","decreasePosition(address,address,address,uint256,uint256,bool,address)":"82a08490","directPoolDeposit(address)":"5f7bc119","errorController()":"48f35cbb","errors(uint256)":"fed1a606","feeReserves(address)":"1ce9cb8f","fundingInterval()":"9849e412","fundingRateFactor()":"c4f718bf","getDelta(address,uint256,uint256,bool,uint256)":"5c07eaab","getEntryFundingRate(address,address,bool)":"b1cc53ab","getFeeBasisPoints(address,uint256,uint256,uint256,bool)":"c7e074c3","getFundingFee(address,address,address,bool,uint256,uint256)":"da76524c","getGlobalShortDelta(address)":"b364accb","getMaxPrice(address)":"e124e6d2","getMinPrice(address)":"81a612d6","getNextAveragePrice(address,uint256,uint256,bool,uint256,uint256,uint256)":"db97495f","getNextFundingRate(address)":"a93acac2","getNextGlobalShortAveragePrice(address,uint256,uint256)":"9d7432ca","getPosition(address,address,address,bool)":"4a3f088d","getPositionDelta(address,address,address,bool)":"45a6f370","getPositionFee(address,address,address,bool,uint256)":"fdaf6ac3","getPositionKey(address,address,address,bool)":"2d4b0576","getPositionLeverage(address,address,address,bool)":"51723e82","getRedemptionAmount(address,uint256)":"2c668ec1","getRedemptionCollateral(address)":"b136ca49","getRedemptionCollateralUsd(address)":"29ff9615","getTargetUsdgAmount(address)":"3a05dcc1","getUtilisation(address)":"04fef1db","globalShortAveragePrices(address)":"62749803","globalShortSizes(address)":"8a78daa8","gov()":"12d43a51","guaranteedUsd(address)":"f07456ce","hasDynamicFees()":"9f392eb3","inManagerMode()":"9060b1ca","inPrivateLiquidationMode()":"181e210e","includeAmmPrice()":"ab08c1c6","increasePosition(address,address,address,uint256,bool)":"48d91abf","initialize(address,address,address,uint256,uint256,uint256)":"728cdbca","isInitialized()":"392e53cd","isLeverageEnabled()":"3e72a262","isLiquidator(address)":"529a356f","isManager(address)":"f3ae2415","isSwapEnabled()":"351a964d","lastFundingTimes(address)":"d8f897c3","liquidatePosition(address,address,address,bool,address)":"de2ea948","liquidationFeeUsd()":"174d2694","marginFeeBasisPoints()":"318bc689","maxGasPrice()":"3de39c11","maxGlobalShortSizes(address)":"9698d25a","maxLeverage()":"ae3302c2","maxUsdgAmounts(address)":"ad1e4f8d","minProfitBasisPoints(address)":"88b1fbdf","minProfitTime()":"d9ac4225","mintBurnFeeBasisPoints()":"4d47b304","poolAmounts(address)":"52f55eed","positions(bytes32)":"514ea4bf","priceFeed()":"741bef1a","removeRouter(address)":"6ae0b154","reservedAmounts(address)":"c3c7b9e9","router()":"f887ea40","sellUSDG(address,address)":"711e6190","setBufferAmount(address,uint256)":"8585f4d2","setError(uint256,string)":"28e67be5","setErrorController(address)":"8f7b8404","setFees(uint256,uint256,uint256,uint256,uint256,uint256,uint256,uint256,bool)":"40eb3802","setFundingRate(uint256,uint256,uint256)":"8a27d468","setGov(address)":"cfad57a2","setInManagerMode(bool)":"24b0c04d","setInPrivateLiquidationMode(bool)":"f07bbf77","setIsLeverageEnabled(bool)":"7c2eb9f7","setIsSwapEnabled(bool)":"30455ede","setLiquidator(address,bool)":"4453a374","setManager(address,bool)":"a5e90eee","setMaxGasPrice(uint256)":"d2fa635e","setMaxGlobalShortSize(address,uint256)":"efa10a6e","setMaxLeverage(uint256)":"d3127e63","setPriceFeed(address)":"724e78da","setTokenConfig(address,uint256,uint256,uint256,uint256,bool,bool)":"3c5a6e35","setUsdgAmount(address,uint256)":"d66b000d","setVaultUtils(address)":"71089f4d","shortableTokens(address)":"db3555fb","stableFundingRateFactor()":"134ca63b","stableSwapFeeBasisPoints()":"df73a267","stableTaxBasisPoints()":"10eb56c2","stableTokens(address)":"42b60b03","swap(address,address,address)":"93316212","swapFeeBasisPoints()":"a22f2392","taxBasisPoints()":"7a210a2b","tokenBalances(address)":"523fba7f","tokenDecimals(address)":"8ee573ac","tokenToUsdMin(address,uint256)":"0a48d5a9","tokenWeights(address)":"ab2f3ad4","totalTokenWeights()":"dc8f5fac","updateCumulativeFundingRate(address,address)":"fbfded6d","upgradeVault(address,address,uint256)":"cea0c328","usdToToken(address,uint256,uint256)":"fa12dbc0","usdToTokenMax(address,uint256)":"a42ab3d2","usdToTokenMin(address,uint256)":"9899cd02","usdg()":"f5b91b7b","usdgAmounts(address)":"1aa4ace5","useSwapPricing()":"b06423f3","validateLiquidation(address,address,address,bool,bool)":"d54d5a9f","vaultUtils()":"6abbe0c8","whitelistedTokenCount()":"62287a32","whitelistedTokens(address)":"daf9c210","withdrawFees(address,address)":"f2555278"},"id":21}