{"abi":[{"type":"function","name":"data_constructor","inputs":[{"name":"pools","type":"address[]","internalType":"address[]"}],"outputs":[{"name":"","type":"tuple[]","internalType":"struct GetUniswapV2PoolDataBatchRequest.PoolData[]","components":[{"name":"tokenA","type":"address","internalType":"address"},{"name":"tokenADecimals","type":"uint8","internalType":"uint8"},{"name":"tokenB","type":"address","internalType":"address"},{"name":"tokenBDecimals","type":"uint8","internalType":"uint8"},{"name":"reserve0","type":"uint112","internalType":"uint112"},{"name":"reserve1","type":"uint112","internalType":"uint112"}]}],"stateMutability":"view"}],"bytecode":{"object":"0x6080806040523461001657610770908161001c8239f35b600080fdfe6040608081526004908136101561001557600080fd5b6000803560e01c6345ef83791461002b57600080fd5b3461060757602092837ffffffffffffffffffffffffffffffffffffffffffffffffffffffffffffffffc3601126106035780359267ffffffffffffffff948585116105ff57366023860112156105ff5784830135956100898761067a565b956100968451978861060a565b8787528287016024809960051b830101913683116105fb578901905b8282106105cb575050508551907fffffffffffffffffffffffffffffffffffffffffffffffffffffffffffffffe06101016100ec8461067a565b936100f98751958661060a565b80855261067a565b0190865b82811061055e57505050845b86518110156104bb5773ffffffffffffffffffffffffffffffffffffffff8061013a838a610692565b511685517f0902f1ac00000000000000000000000000000000000000000000000000000000815260609081818a81865afa8015610439578a918b91610460575b5060806101878789610692565b51019160a0610196888a610692565b51016dffffffffffffffffffffffffffff80931690521690528651917f0dfe1681000000000000000000000000000000000000000000000000000000009283815287818b81855afa9081156103ca578b91610443575b50846101f88789610692565b5191169052875192835286838a81845afa928315610439578a9361041a575b5087519287848b81887f313ce5670000000000000000000000000000000000000000000000000000000095868352165afa9384156103ca578b946103fb575b50876102628789610692565b510160ff809516905288517fd21220a7000000000000000000000000000000000000000000000000000000009081815289818d81875afa9081156103f157908a92918e916103d4575b50878c6102b88b8d610692565b5101911690528b8b518095819382525afa9182156103ca578892918b918d9361039b575b508a5196879384928352165afa928315610391578993610362575b506103028486610692565b5101911690527fffffffffffffffffffffffffffffffffffffffffffffffffffffffffffffffff811461033757600101610111565b87866011877f4e487b7100000000000000000000000000000000000000000000000000000000835252fd5b610383919350863d881161038a575b61037b818361060a565b810190610721565b91386102f7565b503d610371565b87513d8b823e3d90fd5b6103bc919350843d86116103c3575b6103b4818361060a565b8101906106f5565b91386102dc565b503d6103aa565b89513d8d823e3d90fd5b6103eb9150833d85116103c3576103b4818361060a565b386102ab565b8b513d8f823e3d90fd5b610413919450883d8a1161038a5761037b818361060a565b9238610256565b610432919350873d89116103c3576103b4818361060a565b9138610217565b88513d8c823e3d90fd5b61045a9150883d8a116103c3576103b4818361060a565b386101ec565b809250838092503d83116104b4575b610479818361060a565b810103126104b05761048a816106d5565b886104968984016106d5565b92015163ffffffff8116036104ac57903861017a565b8a80fd5b8980fd5b503d61046f565b5084835192808401908085528351809252808686019401925b8281106104e15785850386f35b909192938260c0600192875173ffffffffffffffffffffffffffffffffffffffff80825116835260ff90818684015116868501528c830151168c8401526060908183015116908301526dffffffffffffffffffffffffffff60808181840151169084015260a08092015116908201520195019101929190926104d4565b855160c08101818110848211176105a057908692918852898152898382015289888201528960608201528960808201528960a082015282828701015201610105565b8b8a60418b7f4e487b7100000000000000000000000000000000000000000000000000000000835252fd5b813573ffffffffffffffffffffffffffffffffffffffff811681036105f75781529084019084016100b2565b8880fd5b8780fd5b8380fd5b5080fd5b80fd5b90601f7fffffffffffffffffffffffffffffffffffffffffffffffffffffffffffffffe0910116810190811067ffffffffffffffff82111761064b57604052565b7f4e487b7100000000000000000000000000000000000000000000000000000000600052604160045260246000fd5b67ffffffffffffffff811161064b5760051b60200190565b80518210156106a65760209160051b010190565b7f4e487b7100000000000000000000000000000000000000000000000000000000600052603260045260246000fd5b51906dffffffffffffffffffffffffffff821682036106f057565b600080fd5b908160209103126106f0575173ffffffffffffffffffffffffffffffffffffffff811681036106f05790565b908160209103126106f0575160ff811681036106f0579056fea264697066735822122037fe9add68918f829e934dee7c5592e1d512acf8b344b56b33716e5aa8ca0e5e64736f6c63430008130033","linkReferences":{}},"methodIdentifiers":{"data_constructor(address[])":"45ef8379"},"id":0}