{
  "abi": [
    {
      "type": "constructor",
      "inputs": [
        {
          "name": "pools",
          "type": "address[]",
          "internalType": "address[]"
        }
      ],
      "stateMutability": "nonpayable"
    },
    {
      "type": "function",
      "name": "data_constructor",
      "inputs": [
        {
          "name": "pools",
          "type": "address[]",
          "internalType": "address[]"
        }
      ],
      "outputs": [
        {
          "name": "",
          "type": "tuple[]",
          "internalType": "struct GetUniswapV2PoolDataBatchRequest.PoolData[]",
          "components": [
            {
              "name": "tokenA",
              "type": "address",
              "internalType": "address"
            },
            {
              "name": "tokenADecimals",
              "type": "uint8",
              "internalType": "uint8"
            },
            {
              "name": "tokenB",
              "type": "address",
              "internalType": "address"
            },
            {
              "name": "tokenBDecimals",
              "type": "uint8",
              "internalType": "uint8"
            },
            {
              "name": "reserve0",
              "type": "uint112",
              "internalType": "uint112"
            },
            {
              "name": "reserve1",
              "type": "uint112",
              "internalType": "uint112"
            }
          ]
        }
      ],
      "stateMutability": "view"
    }
  ],
  "bytecode": {
    "object": "0x60806040818152346200052b5762000d4d803803809162000021828662000530565b843982019160209081818503126200052b5780516001600160401b03918282116200052b57019380601f860112156200052b578451620000618162000554565b95620000708651978862000530565b818752848088019260051b8201019283116200052b5784809101915b838310620005105750505050835190620000a68262000554565b91620000b58551938462000530565b808352620000c6601f199162000554565b019060005b828110620004b05750505060005b8451811015620004a1576001600160a01b0380620000f8838862000581565b518651630240bc6b60e21b8152600492606092169082818581855afa8015620003fa57600091829162000442575b50608062000135888a62000581565b51019160a062000146898b62000581565b516001600160701b039384169101521690528751630dfe168160e01b808252939088818381865afa908115620003325760009162000405575b50856200018d888a62000581565b5191169052885193845287848281855afa938415620003fa57600094620003bb575b50885193888583818963313ce56760e01b95868352165afa948515620003325760009562000397575b5088620001e6888a62000581565b5160ff968716910152895163d21220a760e01b808252908a818581885afa9081156200038c5790888d8b8d8f96956000956200033d575b50906200022a9162000581565b510191169052838c518096819382525afa92831562000332579089939291600093620002ec575b508a5196879384928352165afa928315620002e157600093620002ab575b506200027c848662000581565b51019116905260001981146200029557600101620000d9565b634e487b7160e01b600052601160045260246000fd5b620002d1919350863d8811620002d9575b620002c8818362000530565b810190620005c1565b91386200026f565b503d620002bc565b87513d6000823e3d90fd5b9192909382813d83116200032a575b62000307818362000530565b81010312620003275750906200031f8993926200056c565b913862000251565b80fd5b503d620002fb565b8a513d6000823e3d90fd5b9596935050505082813d831162000384575b6200035b818362000530565b810103126200032757509089888d6200022a8c8f966200037b906200056c565b9490916200021d565b503d6200034f565b8c513d6000823e3d90fd5b620003b3919550893d8b11620002d957620002c8818362000530565b9338620001d8565b90938882813d8311620003f2575b620003d5818362000530565b81010312620003275750620003ea906200056c565b9238620001af565b503d620003c9565b89513d6000823e3d90fd5b908982813d83116200043a575b6200041e818362000530565b8101031262000327575062000433906200056c565b386200017f565b503d62000412565b9190508382813d831162000499575b6200045d818362000530565b8101031262000327576200047182620005ac565b908a620004808b8501620005ac565b93015163ffffffff811603620003275750903862000126565b503d62000451565b83516107709081620005dd8239f35b85519060c082019180831084841117620004fa5786928852600081526000838201526000888201526000606082015260006080820152600060a082015282828701015201620000cb565b634e487b7160e01b600052604160045260246000fd5b81906200051d846200056c565b81520191019084906200008c565b600080fd5b601f909101601f19168101906001600160401b03821190821017620004fa57604052565b6001600160401b038111620004fa5760051b60200190565b51906001600160a01b03821682036200052b57565b8051821015620005965760209160051b010190565b634e487b7160e01b600052603260045260246000fd5b51906001600160701b03821682036200052b57565b908160209103126200052b575160ff811681036200052b579056fe6040608081526004908136101561001557600080fd5b6000803560e01c6345ef83791461002b57600080fd5b3461060757602092837ffffffffffffffffffffffffffffffffffffffffffffffffffffffffffffffffc3601126106035780359267ffffffffffffffff948585116105ff57366023860112156105ff5784830135956100898761067a565b956100968451978861060a565b8787528287016024809960051b830101913683116105fb578901905b8282106105cb575050508551907fffffffffffffffffffffffffffffffffffffffffffffffffffffffffffffffe06101016100ec8461067a565b936100f98751958661060a565b80855261067a565b0190865b82811061055e57505050845b86518110156104bb5773ffffffffffffffffffffffffffffffffffffffff8061013a838a610692565b511685517f0902f1ac00000000000000000000000000000000000000000000000000000000815260609081818a81865afa8015610439578a918b91610460575b5060806101878789610692565b51019160a0610196888a610692565b51016dffffffffffffffffffffffffffff80931690521690528651917f0dfe1681000000000000000000000000000000000000000000000000000000009283815287818b81855afa9081156103ca578b91610443575b50846101f88789610692565b5191169052875192835286838a81845afa928315610439578a9361041a575b5087519287848b81887f313ce5670000000000000000000000000000000000000000000000000000000095868352165afa9384156103ca578b946103fb575b50876102628789610692565b510160ff809516905288517fd21220a7000000000000000000000000000000000000000000000000000000009081815289818d81875afa9081156103f157908a92918e916103d4575b50878c6102b88b8d610692565b5101911690528b8b518095819382525afa9182156103ca578892918b918d9361039b575b508a5196879384928352165afa928315610391578993610362575b506103028486610692565b5101911690527fffffffffffffffffffffffffffffffffffffffffffffffffffffffffffffffff811461033757600101610111565b87866011877f4e487b7100000000000000000000000000000000000000000000000000000000835252fd5b610383919350863d881161038a575b61037b818361060a565b810190610721565b91386102f7565b503d610371565b87513d8b823e3d90fd5b6103bc919350843d86116103c3575b6103b4818361060a565b8101906106f5565b91386102dc565b503d6103aa565b89513d8d823e3d90fd5b6103eb9150833d85116103c3576103b4818361060a565b386102ab565b8b513d8f823e3d90fd5b610413919450883d8a1161038a5761037b818361060a565b9238610256565b610432919350873d89116103c3576103b4818361060a565b9138610217565b88513d8c823e3d90fd5b61045a9150883d8a116103c3576103b4818361060a565b386101ec565b809250838092503d83116104b4575b610479818361060a565b810103126104b05761048a816106d5565b886104968984016106d5565b92015163ffffffff8116036104ac57903861017a565b8a80fd5b8980fd5b503d61046f565b5084835192808401908085528351809252808686019401925b8281106104e15785850386f35b909192938260c0600192875173ffffffffffffffffffffffffffffffffffffffff80825116835260ff90818684015116868501528c830151168c8401526060908183015116908301526dffffffffffffffffffffffffffff60808181840151169084015260a08092015116908201520195019101929190926104d4565b855160c08101818110848211176105a057908692918852898152898382015289888201528960608201528960808201528960a082015282828701015201610105565b8b8a60418b7f4e487b7100000000000000000000000000000000000000000000000000000000835252fd5b813573ffffffffffffffffffffffffffffffffffffffff811681036105f75781529084019084016100b2565b8880fd5b8780fd5b8380fd5b5080fd5b80fd5b90601f7fffffffffffffffffffffffffffffffffffffffffffffffffffffffffffffffe0910116810190811067ffffffffffffffff82111761064b57604052565b7f4e487b7100000000000000000000000000000000000000000000000000000000600052604160045260246000fd5b67ffffffffffffffff811161064b5760051b60200190565b80518210156106a65760209160051b010190565b7f4e487b7100000000000000000000000000000000000000000000000000000000600052603260045260246000fd5b51906dffffffffffffffffffffffffffff821682036106f057565b600080fd5b908160209103126106f0575173ffffffffffffffffffffffffffffffffffffffff811681036106f05790565b908160209103126106f0575160ff811681036106f0579056fea264697066735822122043a45e049ea9b8bbf51b1f377452cf1467eebb78fa9725a021f63488cf9a416d64736f6c63430008130033",
    "linkReferences": {}
  },
  "methodIdentifiers": {
    "data_constructor(address[])": "45ef8379"
  },
  "id": 0
}