{
  "address": "0x876683648c9a749a57963Dd36ad9b45Fa989921F",
  "abi": [
    {
      "inputs": [
        {
          "internalType": "address",
          "name": "factory_",
          "type": "address"
        },
        {
          "internalType": "address",
          "name": "liquidityResolver_",
          "type": "address"
        }
      ],
      "stateMutability": "nonpayable",
      "type": "constructor"
    },
    {
      "inputs": [],
      "name": "FACTORY",
      "outputs": [
        {
          "internalType": "contract IFluidVaultFactory",
          "name": "",
          "type": "address"
        }
      ],
      "stateMutability": "view",
      "type": "function"
    },
    {
      "inputs": [],
      "name": "LIQUIDITY_RESOLVER",
      "outputs": [
        {
          "internalType": "contract IFluidLiquidityResolver",
          "name": "",
          "type": "address"
        }
      ],
      "stateMutability": "view",
      "type": "function"
    },
    {
      "inputs": [
        {
          "internalType": "uint256",
          "name": "slot_",
          "type": "uint256"
        },
        {
          "internalType": "int256",
          "name": "key1_",
          "type": "int256"
        },
        {
          "internalType": "uint256",
          "name": "key2_",
          "type": "uint256"
        }
      ],
      "name": "calculateDoubleIntUintMapping",
      "outputs": [
        {
          "internalType": "bytes32",
          "name": "",
          "type": "bytes32"
        }
      ],
      "stateMutability": "pure",
      "type": "function"
    },
    {
      "inputs": [
        {
          "internalType": "uint256",
          "name": "slot_",
          "type": "uint256"
        },
        {
          "internalType": "int256",
          "name": "key_",
          "type": "int256"
        }
      ],
      "name": "calculateStorageSlotIntMapping",
      "outputs": [
        {
          "internalType": "bytes32",
          "name": "",
          "type": "bytes32"
        }
      ],
      "stateMutability": "pure",
      "type": "function"
    },
    {
      "inputs": [
        {
          "internalType": "uint256",
          "name": "slot_",
          "type": "uint256"
        },
        {
          "internalType": "uint256",
          "name": "key_",
          "type": "uint256"
        }
      ],
      "name": "calculateStorageSlotUintMapping",
      "outputs": [
        {
          "internalType": "bytes32",
          "name": "",
          "type": "bytes32"
        }
      ],
      "stateMutability": "pure",
      "type": "function"
    },
    {
      "inputs": [
        {
          "internalType": "address",
          "name": "vault_",
          "type": "address"
        }
      ],
      "name": "getAbsorbedDustDebt",
      "outputs": [
        {
          "internalType": "uint256",
          "name": "",
          "type": "uint256"
        }
      ],
      "stateMutability": "view",
      "type": "function"
    },
    {
      "inputs": [
        {
          "internalType": "address",
          "name": "vault_",
          "type": "address"
        }
      ],
      "name": "getAbsorbedLiquidityRaw",
      "outputs": [
        {
          "internalType": "uint256",
          "name": "",
          "type": "uint256"
        }
      ],
      "stateMutability": "view",
      "type": "function"
    },
    {
      "inputs": [],
      "name": "getAllVaultsAddresses",
      "outputs": [
        {
          "internalType": "address[]",
          "name": "vaults_",
          "type": "address[]"
        }
      ],
      "stateMutability": "view",
      "type": "function"
    },
    {
      "inputs": [],
      "name": "getAllVaultsLiquidation",
      "outputs": [
        {
          "components": [
            {
              "internalType": "address",
              "name": "vault",
              "type": "address"
            },
            {
              "internalType": "address",
              "name": "token0In",
              "type": "address"
            },
            {
              "internalType": "address",
              "name": "token0Out",
              "type": "address"
            },
            {
              "internalType": "address",
              "name": "token1In",
              "type": "address"
            },
            {
              "internalType": "address",
              "name": "token1Out",
              "type": "address"
            },
            {
              "internalType": "uint256",
              "name": "inAmt",
              "type": "uint256"
            },
            {
              "internalType": "uint256",
              "name": "outAmt",
              "type": "uint256"
            },
            {
              "internalType": "uint256",
              "name": "inAmtWithAbsorb",
              "type": "uint256"
            },
            {
              "internalType": "uint256",
              "name": "outAmtWithAbsorb",
              "type": "uint256"
            },
            {
              "internalType": "bool",
              "name": "absorbAvailable",
              "type": "bool"
            }
          ],
          "internalType": "struct Structs.LiquidationStruct[]",
          "name": "liquidationsData_",
          "type": "tuple[]"
        }
      ],
      "stateMutability": "nonpayable",
      "type": "function"
    },
    {
      "inputs": [
        {
          "internalType": "address",
          "name": "vault_",
          "type": "address"
        },
        {
          "internalType": "uint256",
          "name": "branch_",
          "type": "uint256"
        }
      ],
      "name": "getBranchDataRaw",
      "outputs": [
        {
          "internalType": "uint256",
          "name": "",
          "type": "uint256"
        }
      ],
      "stateMutability": "view",
      "type": "function"
    },
    {
      "inputs": [
        {
          "internalType": "address",
          "name": "vault_",
          "type": "address"
        },
        {
          "internalType": "uint256",
          "name": "index_",
          "type": "uint256"
        }
      ],
      "name": "getContractForDeployerIndex",
      "outputs": [
        {
          "internalType": "address",
          "name": "",
          "type": "address"
        }
      ],
      "stateMutability": "view",
      "type": "function"
    },
    {
      "inputs": [
        {
          "internalType": "address",
          "name": "vault_",
          "type": "address"
        }
      ],
      "name": "getDexFromAddress",
      "outputs": [
        {
          "internalType": "address",
          "name": "",
          "type": "address"
        }
      ],
      "stateMutability": "view",
      "type": "function"
    },
    {
      "inputs": [
        {
          "internalType": "address[]",
          "name": "vaults_",
          "type": "address[]"
        },
        {
          "internalType": "uint256[]",
          "name": "tokensInAmt_",
          "type": "uint256[]"
        }
      ],
      "name": "getMultipleVaultsLiquidation",
      "outputs": [
        {
          "components": [
            {
              "internalType": "address",
              "name": "vault",
              "type": "address"
            },
            {
              "internalType": "address",
              "name": "token0In",
              "type": "address"
            },
            {
              "internalType": "address",
              "name": "token0Out",
              "type": "address"
            },
            {
              "internalType": "address",
              "name": "token1In",
              "type": "address"
            },
            {
              "internalType": "address",
              "name": "token1Out",
              "type": "address"
            },
            {
              "internalType": "uint256",
              "name": "inAmt",
              "type": "uint256"
            },
            {
              "internalType": "uint256",
              "name": "outAmt",
              "type": "uint256"
            },
            {
              "internalType": "uint256",
              "name": "inAmtWithAbsorb",
              "type": "uint256"
            },
            {
              "internalType": "uint256",
              "name": "outAmtWithAbsorb",
              "type": "uint256"
            },
            {
              "internalType": "bool",
              "name": "absorbAvailable",
              "type": "bool"
            }
          ],
          "internalType": "struct Structs.LiquidationStruct[]",
          "name": "liquidationsData_",
          "type": "tuple[]"
        }
      ],
      "stateMutability": "nonpayable",
      "type": "function"
    },
    {
      "inputs": [
        {
          "internalType": "address",
          "name": "vault_",
          "type": "address"
        },
        {
          "internalType": "uint256",
          "name": "positionId_",
          "type": "uint256"
        }
      ],
      "name": "getPositionDataRaw",
      "outputs": [
        {
          "internalType": "uint256",
          "name": "",
          "type": "uint256"
        }
      ],
      "stateMutability": "view",
      "type": "function"
    },
    {
      "inputs": [
        {
          "internalType": "address",
          "name": "vault_",
          "type": "address"
        }
      ],
      "name": "getRateRaw",
      "outputs": [
        {
          "internalType": "uint256",
          "name": "",
          "type": "uint256"
        }
      ],
      "stateMutability": "view",
      "type": "function"
    },
    {
      "inputs": [
        {
          "internalType": "address",
          "name": "vault_",
          "type": "address"
        }
      ],
      "name": "getRebalancer",
      "outputs": [
        {
          "internalType": "address",
          "name": "",
          "type": "address"
        }
      ],
      "stateMutability": "view",
      "type": "function"
    },
    {
      "inputs": [
        {
          "internalType": "address",
          "name": "vault_",
          "type": "address"
        },
        {
          "internalType": "int256",
          "name": "tick_",
          "type": "int256"
        }
      ],
      "name": "getTickDataRaw",
      "outputs": [
        {
          "internalType": "uint256",
          "name": "",
          "type": "uint256"
        }
      ],
      "stateMutability": "view",
      "type": "function"
    },
    {
      "inputs": [
        {
          "internalType": "address",
          "name": "vault_",
          "type": "address"
        },
        {
          "internalType": "int256",
          "name": "key_",
          "type": "int256"
        }
      ],
      "name": "getTickHasDebtRaw",
      "outputs": [
        {
          "internalType": "uint256",
          "name": "",
          "type": "uint256"
        }
      ],
      "stateMutability": "view",
      "type": "function"
    },
    {
      "inputs": [
        {
          "internalType": "address",
          "name": "vault_",
          "type": "address"
        },
        {
          "internalType": "int256",
          "name": "tick_",
          "type": "int256"
        },
        {
          "internalType": "uint256",
          "name": "id_",
          "type": "uint256"
        }
      ],
      "name": "getTickIdDataRaw",
      "outputs": [
        {
          "internalType": "uint256",
          "name": "",
          "type": "uint256"
        }
      ],
      "stateMutability": "view",
      "type": "function"
    },
    {
      "inputs": [
        {
          "internalType": "uint256",
          "name": "nftId_",
          "type": "uint256"
        }
      ],
      "name": "getTokenConfig",
      "outputs": [
        {
          "internalType": "uint256",
          "name": "",
          "type": "uint256"
        }
      ],
      "stateMutability": "view",
      "type": "function"
    },
    {
      "inputs": [],
      "name": "getTotalVaults",
      "outputs": [
        {
          "internalType": "uint256",
          "name": "",
          "type": "uint256"
        }
      ],
      "stateMutability": "view",
      "type": "function"
    },
    {
      "inputs": [
        {
          "internalType": "address",
          "name": "vault_",
          "type": "address"
        }
      ],
      "name": "getVaultAbsorb",
      "outputs": [
        {
          "components": [
            {
              "internalType": "address",
              "name": "vault",
              "type": "address"
            },
            {
              "internalType": "bool",
              "name": "absorbAvailable",
              "type": "bool"
            }
          ],
          "internalType": "struct Structs.AbsorbStruct",
          "name": "absorbData_",
          "type": "tuple"
        }
      ],
      "stateMutability": "nonpayable",
      "type": "function"
    },
    {
      "inputs": [
        {
          "internalType": "uint256",
          "name": "vaultId_",
          "type": "uint256"
        }
      ],
      "name": "getVaultAddress",
      "outputs": [
        {
          "internalType": "address",
          "name": "vault_",
          "type": "address"
        }
      ],
      "stateMutability": "view",
      "type": "function"
    },
    {
      "inputs": [
        {
          "internalType": "address",
          "name": "vault_",
          "type": "address"
        }
      ],
      "name": "getVaultEntireData",
      "outputs": [
        {
          "components": [
            {
              "internalType": "address",
              "name": "vault",
              "type": "address"
            },
            {
              "internalType": "bool",
              "name": "isSmartCol",
              "type": "bool"
            },
            {
              "internalType": "bool",
              "name": "isSmartDebt",
              "type": "bool"
            },
            {
              "components": [
                {
                  "internalType": "address",
                  "name": "liquidity",
                  "type": "address"
                },
                {
                  "internalType": "address",
                  "name": "factory",
                  "type": "address"
                },
                {
                  "internalType": "address",
                  "name": "operateImplementation",
                  "type": "address"
                },
                {
                  "internalType": "address",
                  "name": "adminImplementation",
                  "type": "address"
                },
                {
                  "internalType": "address",
                  "name": "secondaryImplementation",
                  "type": "address"
                },
                {
                  "internalType": "address",
                  "name": "deployer",
                  "type": "address"
                },
                {
                  "internalType": "address",
                  "name": "supply",
                  "type": "address"
                },
                {
                  "internalType": "address",
                  "name": "borrow",
                  "type": "address"
                },
                {
                  "components": [
                    {
                      "internalType": "address",
                      "name": "token0",
                      "type": "address"
                    },
                    {
                      "internalType": "address",
                      "name": "token1",
                      "type": "address"
                    }
                  ],
                  "internalType": "struct IFluidVault.Tokens",
                  "name": "supplyToken",
                  "type": "tuple"
                },
                {
                  "components": [
                    {
                      "internalType": "address",
                      "name": "token0",
                      "type": "address"
                    },
                    {
                      "internalType": "address",
                      "name": "token1",
                      "type": "address"
                    }
                  ],
                  "internalType": "struct IFluidVault.Tokens",
                  "name": "borrowToken",
                  "type": "tuple"
                },
                {
                  "internalType": "uint256",
                  "name": "vaultId",
                  "type": "uint256"
                },
                {
                  "internalType": "uint256",
                  "name": "vaultType",
                  "type": "uint256"
                },
                {
                  "internalType": "bytes32",
                  "name": "supplyExchangePriceSlot",
                  "type": "bytes32"
                },
                {
                  "internalType": "bytes32",
                  "name": "borrowExchangePriceSlot",
                  "type": "bytes32"
                },
                {
                  "internalType": "bytes32",
                  "name": "userSupplySlot",
                  "type": "bytes32"
                },
                {
                  "internalType": "bytes32",
                  "name": "userBorrowSlot",
                  "type": "bytes32"
                }
              ],
              "internalType": "struct IFluidVault.ConstantViews",
              "name": "constantVariables",
              "type": "tuple"
            },
            {
              "components": [
                {
                  "internalType": "uint16",
                  "name": "supplyRateMagnifier",
                  "type": "uint16"
                },
                {
                  "internalType": "uint16",
                  "name": "borrowRateMagnifier",
                  "type": "uint16"
                },
                {
                  "internalType": "uint16",
                  "name": "collateralFactor",
                  "type": "uint16"
                },
                {
                  "internalType": "uint16",
                  "name": "liquidationThreshold",
                  "type": "uint16"
                },
                {
                  "internalType": "uint16",
                  "name": "liquidationMaxLimit",
                  "type": "uint16"
                },
                {
                  "internalType": "uint16",
                  "name": "withdrawalGap",
                  "type": "uint16"
                },
                {
                  "internalType": "uint16",
                  "name": "liquidationPenalty",
                  "type": "uint16"
                },
                {
                  "internalType": "uint16",
                  "name": "borrowFee",
                  "type": "uint16"
                },
                {
                  "internalType": "address",
                  "name": "oracle",
                  "type": "address"
                },
                {
                  "internalType": "uint256",
                  "name": "oraclePriceOperate",
                  "type": "uint256"
                },
                {
                  "internalType": "uint256",
                  "name": "oraclePriceLiquidate",
                  "type": "uint256"
                },
                {
                  "internalType": "address",
                  "name": "rebalancer",
                  "type": "address"
                },
                {
                  "internalType": "uint256",
                  "name": "lastUpdateTimestamp",
                  "type": "uint256"
                }
              ],
              "internalType": "struct Structs.Configs",
              "name": "configs",
              "type": "tuple"
            },
            {
              "components": [
                {
                  "internalType": "uint256",
                  "name": "lastStoredLiquiditySupplyExchangePrice",
                  "type": "uint256"
                },
                {
                  "internalType": "uint256",
                  "name": "lastStoredLiquidityBorrowExchangePrice",
                  "type": "uint256"
                },
                {
                  "internalType": "uint256",
                  "name": "lastStoredVaultSupplyExchangePrice",
                  "type": "uint256"
                },
                {
                  "internalType": "uint256",
                  "name": "lastStoredVaultBorrowExchangePrice",
                  "type": "uint256"
                },
                {
                  "internalType": "uint256",
                  "name": "liquiditySupplyExchangePrice",
                  "type": "uint256"
                },
                {
                  "internalType": "uint256",
                  "name": "liquidityBorrowExchangePrice",
                  "type": "uint256"
                },
                {
                  "internalType": "uint256",
                  "name": "vaultSupplyExchangePrice",
                  "type": "uint256"
                },
                {
                  "internalType": "uint256",
                  "name": "vaultBorrowExchangePrice",
                  "type": "uint256"
                },
                {
                  "internalType": "uint256",
                  "name": "supplyRateLiquidity",
                  "type": "uint256"
                },
                {
                  "internalType": "uint256",
                  "name": "borrowRateLiquidity",
                  "type": "uint256"
                },
                {
                  "internalType": "int256",
                  "name": "supplyRateVault",
                  "type": "int256"
                },
                {
                  "internalType": "int256",
                  "name": "borrowRateVault",
                  "type": "int256"
                },
                {
                  "internalType": "int256",
                  "name": "rewardsOrFeeRateSupply",
                  "type": "int256"
                },
                {
                  "internalType": "int256",
                  "name": "rewardsOrFeeRateBorrow",
                  "type": "int256"
                }
              ],
              "internalType": "struct Structs.ExchangePricesAndRates",
              "name": "exchangePricesAndRates",
              "type": "tuple"
            },
            {
              "components": [
                {
                  "internalType": "uint256",
                  "name": "totalSupplyVault",
                  "type": "uint256"
                },
                {
                  "internalType": "uint256",
                  "name": "totalBorrowVault",
                  "type": "uint256"
                },
                {
                  "internalType": "uint256",
                  "name": "totalSupplyLiquidityOrDex",
                  "type": "uint256"
                },
                {
                  "internalType": "uint256",
                  "name": "totalBorrowLiquidityOrDex",
                  "type": "uint256"
                },
                {
                  "internalType": "uint256",
                  "name": "absorbedSupply",
                  "type": "uint256"
                },
                {
                  "internalType": "uint256",
                  "name": "absorbedBorrow",
                  "type": "uint256"
                }
              ],
              "internalType": "struct Structs.TotalSupplyAndBorrow",
              "name": "totalSupplyAndBorrow",
              "type": "tuple"
            },
            {
              "components": [
                {
                  "internalType": "uint256",
                  "name": "withdrawLimit",
                  "type": "uint256"
                },
                {
                  "internalType": "uint256",
                  "name": "withdrawableUntilLimit",
                  "type": "uint256"
                },
                {
                  "internalType": "uint256",
                  "name": "withdrawable",
                  "type": "uint256"
                },
                {
                  "internalType": "uint256",
                  "name": "borrowLimit",
                  "type": "uint256"
                },
                {
                  "internalType": "uint256",
                  "name": "borrowableUntilLimit",
                  "type": "uint256"
                },
                {
                  "internalType": "uint256",
                  "name": "borrowable",
                  "type": "uint256"
                },
                {
                  "internalType": "uint256",
                  "name": "borrowLimitUtilization",
                  "type": "uint256"
                },
                {
                  "internalType": "uint256",
                  "name": "minimumBorrowing",
                  "type": "uint256"
                }
              ],
              "internalType": "struct Structs.LimitsAndAvailability",
              "name": "limitsAndAvailability",
              "type": "tuple"
            },
            {
              "components": [
                {
                  "internalType": "uint256",
                  "name": "totalPositions",
                  "type": "uint256"
                },
                {
                  "internalType": "int256",
                  "name": "topTick",
                  "type": "int256"
                },
                {
                  "internalType": "uint256",
                  "name": "currentBranch",
                  "type": "uint256"
                },
                {
                  "internalType": "uint256",
                  "name": "totalBranch",
                  "type": "uint256"
                },
                {
                  "internalType": "uint256",
                  "name": "totalBorrow",
                  "type": "uint256"
                },
                {
                  "internalType": "uint256",
                  "name": "totalSupply",
                  "type": "uint256"
                },
                {
                  "components": [
                    {
                      "internalType": "uint256",
                      "name": "status",
                      "type": "uint256"
                    },
                    {
                      "internalType": "int256",
                      "name": "minimaTick",
                      "type": "int256"
                    },
                    {
                      "internalType": "uint256",
                      "name": "debtFactor",
                      "type": "uint256"
                    },
                    {
                      "internalType": "uint256",
                      "name": "partials",
                      "type": "uint256"
                    },
                    {
                      "internalType": "uint256",
                      "name": "debtLiquidity",
                      "type": "uint256"
                    },
                    {
                      "internalType": "uint256",
                      "name": "baseBranchId",
                      "type": "uint256"
                    },
                    {
                      "internalType": "int256",
                      "name": "baseBranchMinima",
                      "type": "int256"
                    }
                  ],
                  "internalType": "struct Structs.CurrentBranchState",
                  "name": "currentBranchState",
                  "type": "tuple"
                }
              ],
              "internalType": "struct Structs.VaultState",
              "name": "vaultState",
              "type": "tuple"
            },
            {
              "components": [
                {
                  "internalType": "bool",
                  "name": "modeWithInterest",
                  "type": "bool"
                },
                {
                  "internalType": "uint256",
                  "name": "supply",
                  "type": "uint256"
                },
                {
                  "internalType": "uint256",
                  "name": "withdrawalLimit",
                  "type": "uint256"
                },
                {
                  "internalType": "uint256",
                  "name": "lastUpdateTimestamp",
                  "type": "uint256"
                },
                {
                  "internalType": "uint256",
                  "name": "expandPercent",
                  "type": "uint256"
                },
                {
                  "internalType": "uint256",
                  "name": "expandDuration",
                  "type": "uint256"
                },
                {
                  "internalType": "uint256",
                  "name": "baseWithdrawalLimit",
                  "type": "uint256"
                },
                {
                  "internalType": "uint256",
                  "name": "withdrawableUntilLimit",
                  "type": "uint256"
                },
                {
                  "internalType": "uint256",
                  "name": "withdrawable",
                  "type": "uint256"
                }
              ],
              "internalType": "struct Structs.UserSupplyData",
              "name": "liquidityUserSupplyData",
              "type": "tuple"
            },
            {
              "components": [
                {
                  "internalType": "bool",
                  "name": "modeWithInterest",
                  "type": "bool"
                },
                {
                  "internalType": "uint256",
                  "name": "borrow",
                  "type": "uint256"
                },
                {
                  "internalType": "uint256",
                  "name": "borrowLimit",
                  "type": "uint256"
                },
                {
                  "internalType": "uint256",
                  "name": "lastUpdateTimestamp",
                  "type": "uint256"
                },
                {
                  "internalType": "uint256",
                  "name": "expandPercent",
                  "type": "uint256"
                },
                {
                  "internalType": "uint256",
                  "name": "expandDuration",
                  "type": "uint256"
                },
                {
                  "internalType": "uint256",
                  "name": "baseBorrowLimit",
                  "type": "uint256"
                },
                {
                  "internalType": "uint256",
                  "name": "maxBorrowLimit",
                  "type": "uint256"
                },
                {
                  "internalType": "uint256",
                  "name": "borrowableUntilLimit",
                  "type": "uint256"
                },
                {
                  "internalType": "uint256",
                  "name": "borrowable",
                  "type": "uint256"
                },
                {
                  "internalType": "uint256",
                  "name": "borrowLimitUtilization",
                  "type": "uint256"
                }
              ],
              "internalType": "struct Structs.UserBorrowData",
              "name": "liquidityUserBorrowData",
              "type": "tuple"
            }
          ],
          "internalType": "struct Structs.VaultEntireData",
          "name": "vaultData_",
          "type": "tuple"
        }
      ],
      "stateMutability": "view",
      "type": "function"
    },
    {
      "inputs": [
        {
          "internalType": "address",
          "name": "vault_",
          "type": "address"
        }
      ],
      "name": "getVaultId",
      "outputs": [
        {
          "internalType": "uint256",
          "name": "id_",
          "type": "uint256"
        }
      ],
      "stateMutability": "view",
      "type": "function"
    },
    {
      "inputs": [
        {
          "internalType": "address",
          "name": "vault_",
          "type": "address"
        },
        {
          "internalType": "uint256",
          "name": "tokenInAmt_",
          "type": "uint256"
        }
      ],
      "name": "getVaultLiquidation",
      "outputs": [
        {
          "components": [
            {
              "internalType": "address",
              "name": "vault",
              "type": "address"
            },
            {
              "internalType": "address",
              "name": "token0In",
              "type": "address"
            },
            {
              "internalType": "address",
              "name": "token0Out",
              "type": "address"
            },
            {
              "internalType": "address",
              "name": "token1In",
              "type": "address"
            },
            {
              "internalType": "address",
              "name": "token1Out",
              "type": "address"
            },
            {
              "internalType": "uint256",
              "name": "inAmt",
              "type": "uint256"
            },
            {
              "internalType": "uint256",
              "name": "outAmt",
              "type": "uint256"
            },
            {
              "internalType": "uint256",
              "name": "inAmtWithAbsorb",
              "type": "uint256"
            },
            {
              "internalType": "uint256",
              "name": "outAmtWithAbsorb",
              "type": "uint256"
            },
            {
              "internalType": "bool",
              "name": "absorbAvailable",
              "type": "bool"
            }
          ],
          "internalType": "struct Structs.LiquidationStruct",
          "name": "liquidationData_",
          "type": "tuple"
        }
      ],
      "stateMutability": "nonpayable",
      "type": "function"
    },
    {
      "inputs": [
        {
          "internalType": "address",
          "name": "vault_",
          "type": "address"
        }
      ],
      "name": "getVaultState",
      "outputs": [
        {
          "components": [
            {
              "internalType": "uint256",
              "name": "totalPositions",
              "type": "uint256"
            },
            {
              "internalType": "int256",
              "name": "topTick",
              "type": "int256"
            },
            {
              "internalType": "uint256",
              "name": "currentBranch",
              "type": "uint256"
            },
            {
              "internalType": "uint256",
              "name": "totalBranch",
              "type": "uint256"
            },
            {
              "internalType": "uint256",
              "name": "totalBorrow",
              "type": "uint256"
            },
            {
              "internalType": "uint256",
              "name": "totalSupply",
              "type": "uint256"
            },
            {
              "components": [
                {
                  "internalType": "uint256",
                  "name": "status",
                  "type": "uint256"
                },
                {
                  "internalType": "int256",
                  "name": "minimaTick",
                  "type": "int256"
                },
                {
                  "internalType": "uint256",
                  "name": "debtFactor",
                  "type": "uint256"
                },
                {
                  "internalType": "uint256",
                  "name": "partials",
                  "type": "uint256"
                },
                {
                  "internalType": "uint256",
                  "name": "debtLiquidity",
                  "type": "uint256"
                },
                {
                  "internalType": "uint256",
                  "name": "baseBranchId",
                  "type": "uint256"
                },
                {
                  "internalType": "int256",
                  "name": "baseBranchMinima",
                  "type": "int256"
                }
              ],
              "internalType": "struct Structs.CurrentBranchState",
              "name": "currentBranchState",
              "type": "tuple"
            }
          ],
          "internalType": "struct Structs.VaultState",
          "name": "vaultState_",
          "type": "tuple"
        }
      ],
      "stateMutability": "view",
      "type": "function"
    },
    {
      "inputs": [
        {
          "internalType": "address",
          "name": "vault_",
          "type": "address"
        }
      ],
      "name": "getVaultType",
      "outputs": [
        {
          "internalType": "uint256",
          "name": "vaultType_",
          "type": "uint256"
        }
      ],
      "stateMutability": "view",
      "type": "function"
    },
    {
      "inputs": [
        {
          "internalType": "address",
          "name": "vault_",
          "type": "address"
        }
      ],
      "name": "getVaultVariables2Raw",
      "outputs": [
        {
          "internalType": "uint256",
          "name": "",
          "type": "uint256"
        }
      ],
      "stateMutability": "view",
      "type": "function"
    },
    {
      "inputs": [
        {
          "internalType": "address",
          "name": "vault_",
          "type": "address"
        }
      ],
      "name": "getVaultVariablesRaw",
      "outputs": [
        {
          "internalType": "uint256",
          "name": "",
          "type": "uint256"
        }
      ],
      "stateMutability": "view",
      "type": "function"
    },
    {
      "inputs": [],
      "name": "getVaultsAbsorb",
      "outputs": [
        {
          "components": [
            {
              "internalType": "address",
              "name": "vault",
              "type": "address"
            },
            {
              "internalType": "bool",
              "name": "absorbAvailable",
              "type": "bool"
            }
          ],
          "internalType": "struct Structs.AbsorbStruct[]",
          "name": "absorbData_",
          "type": "tuple[]"
        }
      ],
      "stateMutability": "nonpayable",
      "type": "function"
    },
    {
      "inputs": [
        {
          "internalType": "address[]",
          "name": "vaults_",
          "type": "address[]"
        }
      ],
      "name": "getVaultsAbsorb",
      "outputs": [
        {
          "components": [
            {
              "internalType": "address",
              "name": "vault",
              "type": "address"
            },
            {
              "internalType": "bool",
              "name": "absorbAvailable",
              "type": "bool"
            }
          ],
          "internalType": "struct Structs.AbsorbStruct[]",
          "name": "absorbData_",
          "type": "tuple[]"
        }
      ],
      "stateMutability": "nonpayable",
      "type": "function"
    },
    {
      "inputs": [
        {
          "internalType": "address[]",
          "name": "vaults_",
          "type": "address[]"
        }
      ],
      "name": "getVaultsEntireData",
      "outputs": [
        {
          "components": [
            {
              "internalType": "address",
              "name": "vault",
              "type": "address"
            },
            {
              "internalType": "bool",
              "name": "isSmartCol",
              "type": "bool"
            },
            {
              "internalType": "bool",
              "name": "isSmartDebt",
              "type": "bool"
            },
            {
              "components": [
                {
                  "internalType": "address",
                  "name": "liquidity",
                  "type": "address"
                },
                {
                  "internalType": "address",
                  "name": "factory",
                  "type": "address"
                },
                {
                  "internalType": "address",
                  "name": "operateImplementation",
                  "type": "address"
                },
                {
                  "internalType": "address",
                  "name": "adminImplementation",
                  "type": "address"
                },
                {
                  "internalType": "address",
                  "name": "secondaryImplementation",
                  "type": "address"
                },
                {
                  "internalType": "address",
                  "name": "deployer",
                  "type": "address"
                },
                {
                  "internalType": "address",
                  "name": "supply",
                  "type": "address"
                },
                {
                  "internalType": "address",
                  "name": "borrow",
                  "type": "address"
                },
                {
                  "components": [
                    {
                      "internalType": "address",
                      "name": "token0",
                      "type": "address"
                    },
                    {
                      "internalType": "address",
                      "name": "token1",
                      "type": "address"
                    }
                  ],
                  "internalType": "struct IFluidVault.Tokens",
                  "name": "supplyToken",
                  "type": "tuple"
                },
                {
                  "components": [
                    {
                      "internalType": "address",
                      "name": "token0",
                      "type": "address"
                    },
                    {
                      "internalType": "address",
                      "name": "token1",
                      "type": "address"
                    }
                  ],
                  "internalType": "struct IFluidVault.Tokens",
                  "name": "borrowToken",
                  "type": "tuple"
                },
                {
                  "internalType": "uint256",
                  "name": "vaultId",
                  "type": "uint256"
                },
                {
                  "internalType": "uint256",
                  "name": "vaultType",
                  "type": "uint256"
                },
                {
                  "internalType": "bytes32",
                  "name": "supplyExchangePriceSlot",
                  "type": "bytes32"
                },
                {
                  "internalType": "bytes32",
                  "name": "borrowExchangePriceSlot",
                  "type": "bytes32"
                },
                {
                  "internalType": "bytes32",
                  "name": "userSupplySlot",
                  "type": "bytes32"
                },
                {
                  "internalType": "bytes32",
                  "name": "userBorrowSlot",
                  "type": "bytes32"
                }
              ],
              "internalType": "struct IFluidVault.ConstantViews",
              "name": "constantVariables",
              "type": "tuple"
            },
            {
              "components": [
                {
                  "internalType": "uint16",
                  "name": "supplyRateMagnifier",
                  "type": "uint16"
                },
                {
                  "internalType": "uint16",
                  "name": "borrowRateMagnifier",
                  "type": "uint16"
                },
                {
                  "internalType": "uint16",
                  "name": "collateralFactor",
                  "type": "uint16"
                },
                {
                  "internalType": "uint16",
                  "name": "liquidationThreshold",
                  "type": "uint16"
                },
                {
                  "internalType": "uint16",
                  "name": "liquidationMaxLimit",
                  "type": "uint16"
                },
                {
                  "internalType": "uint16",
                  "name": "withdrawalGap",
                  "type": "uint16"
                },
                {
                  "internalType": "uint16",
                  "name": "liquidationPenalty",
                  "type": "uint16"
                },
                {
                  "internalType": "uint16",
                  "name": "borrowFee",
                  "type": "uint16"
                },
                {
                  "internalType": "address",
                  "name": "oracle",
                  "type": "address"
                },
                {
                  "internalType": "uint256",
                  "name": "oraclePriceOperate",
                  "type": "uint256"
                },
                {
                  "internalType": "uint256",
                  "name": "oraclePriceLiquidate",
                  "type": "uint256"
                },
                {
                  "internalType": "address",
                  "name": "rebalancer",
                  "type": "address"
                },
                {
                  "internalType": "uint256",
                  "name": "lastUpdateTimestamp",
                  "type": "uint256"
                }
              ],
              "internalType": "struct Structs.Configs",
              "name": "configs",
              "type": "tuple"
            },
            {
              "components": [
                {
                  "internalType": "uint256",
                  "name": "lastStoredLiquiditySupplyExchangePrice",
                  "type": "uint256"
                },
                {
                  "internalType": "uint256",
                  "name": "lastStoredLiquidityBorrowExchangePrice",
                  "type": "uint256"
                },
                {
                  "internalType": "uint256",
                  "name": "lastStoredVaultSupplyExchangePrice",
                  "type": "uint256"
                },
                {
                  "internalType": "uint256",
                  "name": "lastStoredVaultBorrowExchangePrice",
                  "type": "uint256"
                },
                {
                  "internalType": "uint256",
                  "name": "liquiditySupplyExchangePrice",
                  "type": "uint256"
                },
                {
                  "internalType": "uint256",
                  "name": "liquidityBorrowExchangePrice",
                  "type": "uint256"
                },
                {
                  "internalType": "uint256",
                  "name": "vaultSupplyExchangePrice",
                  "type": "uint256"
                },
                {
                  "internalType": "uint256",
                  "name": "vaultBorrowExchangePrice",
                  "type": "uint256"
                },
                {
                  "internalType": "uint256",
                  "name": "supplyRateLiquidity",
                  "type": "uint256"
                },
                {
                  "internalType": "uint256",
                  "name": "borrowRateLiquidity",
                  "type": "uint256"
                },
                {
                  "internalType": "int256",
                  "name": "supplyRateVault",
                  "type": "int256"
                },
                {
                  "internalType": "int256",
                  "name": "borrowRateVault",
                  "type": "int256"
                },
                {
                  "internalType": "int256",
                  "name": "rewardsOrFeeRateSupply",
                  "type": "int256"
                },
                {
                  "internalType": "int256",
                  "name": "rewardsOrFeeRateBorrow",
                  "type": "int256"
                }
              ],
              "internalType": "struct Structs.ExchangePricesAndRates",
              "name": "exchangePricesAndRates",
              "type": "tuple"
            },
            {
              "components": [
                {
                  "internalType": "uint256",
                  "name": "totalSupplyVault",
                  "type": "uint256"
                },
                {
                  "internalType": "uint256",
                  "name": "totalBorrowVault",
                  "type": "uint256"
                },
                {
                  "internalType": "uint256",
                  "name": "totalSupplyLiquidityOrDex",
                  "type": "uint256"
                },
                {
                  "internalType": "uint256",
                  "name": "totalBorrowLiquidityOrDex",
                  "type": "uint256"
                },
                {
                  "internalType": "uint256",
                  "name": "absorbedSupply",
                  "type": "uint256"
                },
                {
                  "internalType": "uint256",
                  "name": "absorbedBorrow",
                  "type": "uint256"
                }
              ],
              "internalType": "struct Structs.TotalSupplyAndBorrow",
              "name": "totalSupplyAndBorrow",
              "type": "tuple"
            },
            {
              "components": [
                {
                  "internalType": "uint256",
                  "name": "withdrawLimit",
                  "type": "uint256"
                },
                {
                  "internalType": "uint256",
                  "name": "withdrawableUntilLimit",
                  "type": "uint256"
                },
                {
                  "internalType": "uint256",
                  "name": "withdrawable",
                  "type": "uint256"
                },
                {
                  "internalType": "uint256",
                  "name": "borrowLimit",
                  "type": "uint256"
                },
                {
                  "internalType": "uint256",
                  "name": "borrowableUntilLimit",
                  "type": "uint256"
                },
                {
                  "internalType": "uint256",
                  "name": "borrowable",
                  "type": "uint256"
                },
                {
                  "internalType": "uint256",
                  "name": "borrowLimitUtilization",
                  "type": "uint256"
                },
                {
                  "internalType": "uint256",
                  "name": "minimumBorrowing",
                  "type": "uint256"
                }
              ],
              "internalType": "struct Structs.LimitsAndAvailability",
              "name": "limitsAndAvailability",
              "type": "tuple"
            },
            {
              "components": [
                {
                  "internalType": "uint256",
                  "name": "totalPositions",
                  "type": "uint256"
                },
                {
                  "internalType": "int256",
                  "name": "topTick",
                  "type": "int256"
                },
                {
                  "internalType": "uint256",
                  "name": "currentBranch",
                  "type": "uint256"
                },
                {
                  "internalType": "uint256",
                  "name": "totalBranch",
                  "type": "uint256"
                },
                {
                  "internalType": "uint256",
                  "name": "totalBorrow",
                  "type": "uint256"
                },
                {
                  "internalType": "uint256",
                  "name": "totalSupply",
                  "type": "uint256"
                },
                {
                  "components": [
                    {
                      "internalType": "uint256",
                      "name": "status",
                      "type": "uint256"
                    },
                    {
                      "internalType": "int256",
                      "name": "minimaTick",
                      "type": "int256"
                    },
                    {
                      "internalType": "uint256",
                      "name": "debtFactor",
                      "type": "uint256"
                    },
                    {
                      "internalType": "uint256",
                      "name": "partials",
                      "type": "uint256"
                    },
                    {
                      "internalType": "uint256",
                      "name": "debtLiquidity",
                      "type": "uint256"
                    },
                    {
                      "internalType": "uint256",
                      "name": "baseBranchId",
                      "type": "uint256"
                    },
                    {
                      "internalType": "int256",
                      "name": "baseBranchMinima",
                      "type": "int256"
                    }
                  ],
                  "internalType": "struct Structs.CurrentBranchState",
                  "name": "currentBranchState",
                  "type": "tuple"
                }
              ],
              "internalType": "struct Structs.VaultState",
              "name": "vaultState",
              "type": "tuple"
            },
            {
              "components": [
                {
                  "internalType": "bool",
                  "name": "modeWithInterest",
                  "type": "bool"
                },
                {
                  "internalType": "uint256",
                  "name": "supply",
                  "type": "uint256"
                },
                {
                  "internalType": "uint256",
                  "name": "withdrawalLimit",
                  "type": "uint256"
                },
                {
                  "internalType": "uint256",
                  "name": "lastUpdateTimestamp",
                  "type": "uint256"
                },
                {
                  "internalType": "uint256",
                  "name": "expandPercent",
                  "type": "uint256"
                },
                {
                  "internalType": "uint256",
                  "name": "expandDuration",
                  "type": "uint256"
                },
                {
                  "internalType": "uint256",
                  "name": "baseWithdrawalLimit",
                  "type": "uint256"
                },
                {
                  "internalType": "uint256",
                  "name": "withdrawableUntilLimit",
                  "type": "uint256"
                },
                {
                  "internalType": "uint256",
                  "name": "withdrawable",
                  "type": "uint256"
                }
              ],
              "internalType": "struct Structs.UserSupplyData",
              "name": "liquidityUserSupplyData",
              "type": "tuple"
            },
            {
              "components": [
                {
                  "internalType": "bool",
                  "name": "modeWithInterest",
                  "type": "bool"
                },
                {
                  "internalType": "uint256",
                  "name": "borrow",
                  "type": "uint256"
                },
                {
                  "internalType": "uint256",
                  "name": "borrowLimit",
                  "type": "uint256"
                },
                {
                  "internalType": "uint256",
                  "name": "lastUpdateTimestamp",
                  "type": "uint256"
                },
                {
                  "internalType": "uint256",
                  "name": "expandPercent",
                  "type": "uint256"
                },
                {
                  "internalType": "uint256",
                  "name": "expandDuration",
                  "type": "uint256"
                },
                {
                  "internalType": "uint256",
                  "name": "baseBorrowLimit",
                  "type": "uint256"
                },
                {
                  "internalType": "uint256",
                  "name": "maxBorrowLimit",
                  "type": "uint256"
                },
                {
                  "internalType": "uint256",
                  "name": "borrowableUntilLimit",
                  "type": "uint256"
                },
                {
                  "internalType": "uint256",
                  "name": "borrowable",
                  "type": "uint256"
                },
                {
                  "internalType": "uint256",
                  "name": "borrowLimitUtilization",
                  "type": "uint256"
                }
              ],
              "internalType": "struct Structs.UserBorrowData",
              "name": "liquidityUserBorrowData",
              "type": "tuple"
            }
          ],
          "internalType": "struct Structs.VaultEntireData[]",
          "name": "vaultsData_",
          "type": "tuple[]"
        }
      ],
      "stateMutability": "view",
      "type": "function"
    },
    {
      "inputs": [],
      "name": "getVaultsEntireData",
      "outputs": [
        {
          "components": [
            {
              "internalType": "address",
              "name": "vault",
              "type": "address"
            },
            {
              "internalType": "bool",
              "name": "isSmartCol",
              "type": "bool"
            },
            {
              "internalType": "bool",
              "name": "isSmartDebt",
              "type": "bool"
            },
            {
              "components": [
                {
                  "internalType": "address",
                  "name": "liquidity",
                  "type": "address"
                },
                {
                  "internalType": "address",
                  "name": "factory",
                  "type": "address"
                },
                {
                  "internalType": "address",
                  "name": "operateImplementation",
                  "type": "address"
                },
                {
                  "internalType": "address",
                  "name": "adminImplementation",
                  "type": "address"
                },
                {
                  "internalType": "address",
                  "name": "secondaryImplementation",
                  "type": "address"
                },
                {
                  "internalType": "address",
                  "name": "deployer",
                  "type": "address"
                },
                {
                  "internalType": "address",
                  "name": "supply",
                  "type": "address"
                },
                {
                  "internalType": "address",
                  "name": "borrow",
                  "type": "address"
                },
                {
                  "components": [
                    {
                      "internalType": "address",
                      "name": "token0",
                      "type": "address"
                    },
                    {
                      "internalType": "address",
                      "name": "token1",
                      "type": "address"
                    }
                  ],
                  "internalType": "struct IFluidVault.Tokens",
                  "name": "supplyToken",
                  "type": "tuple"
                },
                {
                  "components": [
                    {
                      "internalType": "address",
                      "name": "token0",
                      "type": "address"
                    },
                    {
                      "internalType": "address",
                      "name": "token1",
                      "type": "address"
                    }
                  ],
                  "internalType": "struct IFluidVault.Tokens",
                  "name": "borrowToken",
                  "type": "tuple"
                },
                {
                  "internalType": "uint256",
                  "name": "vaultId",
                  "type": "uint256"
                },
                {
                  "internalType": "uint256",
                  "name": "vaultType",
                  "type": "uint256"
                },
                {
                  "internalType": "bytes32",
                  "name": "supplyExchangePriceSlot",
                  "type": "bytes32"
                },
                {
                  "internalType": "bytes32",
                  "name": "borrowExchangePriceSlot",
                  "type": "bytes32"
                },
                {
                  "internalType": "bytes32",
                  "name": "userSupplySlot",
                  "type": "bytes32"
                },
                {
                  "internalType": "bytes32",
                  "name": "userBorrowSlot",
                  "type": "bytes32"
                }
              ],
              "internalType": "struct IFluidVault.ConstantViews",
              "name": "constantVariables",
              "type": "tuple"
            },
            {
              "components": [
                {
                  "internalType": "uint16",
                  "name": "supplyRateMagnifier",
                  "type": "uint16"
                },
                {
                  "internalType": "uint16",
                  "name": "borrowRateMagnifier",
                  "type": "uint16"
                },
                {
                  "internalType": "uint16",
                  "name": "collateralFactor",
                  "type": "uint16"
                },
                {
                  "internalType": "uint16",
                  "name": "liquidationThreshold",
                  "type": "uint16"
                },
                {
                  "internalType": "uint16",
                  "name": "liquidationMaxLimit",
                  "type": "uint16"
                },
                {
                  "internalType": "uint16",
                  "name": "withdrawalGap",
                  "type": "uint16"
                },
                {
                  "internalType": "uint16",
                  "name": "liquidationPenalty",
                  "type": "uint16"
                },
                {
                  "internalType": "uint16",
                  "name": "borrowFee",
                  "type": "uint16"
                },
                {
                  "internalType": "address",
                  "name": "oracle",
                  "type": "address"
                },
                {
                  "internalType": "uint256",
                  "name": "oraclePriceOperate",
                  "type": "uint256"
                },
                {
                  "internalType": "uint256",
                  "name": "oraclePriceLiquidate",
                  "type": "uint256"
                },
                {
                  "internalType": "address",
                  "name": "rebalancer",
                  "type": "address"
                },
                {
                  "internalType": "uint256",
                  "name": "lastUpdateTimestamp",
                  "type": "uint256"
                }
              ],
              "internalType": "struct Structs.Configs",
              "name": "configs",
              "type": "tuple"
            },
            {
              "components": [
                {
                  "internalType": "uint256",
                  "name": "lastStoredLiquiditySupplyExchangePrice",
                  "type": "uint256"
                },
                {
                  "internalType": "uint256",
                  "name": "lastStoredLiquidityBorrowExchangePrice",
                  "type": "uint256"
                },
                {
                  "internalType": "uint256",
                  "name": "lastStoredVaultSupplyExchangePrice",
                  "type": "uint256"
                },
                {
                  "internalType": "uint256",
                  "name": "lastStoredVaultBorrowExchangePrice",
                  "type": "uint256"
                },
                {
                  "internalType": "uint256",
                  "name": "liquiditySupplyExchangePrice",
                  "type": "uint256"
                },
                {
                  "internalType": "uint256",
                  "name": "liquidityBorrowExchangePrice",
                  "type": "uint256"
                },
                {
                  "internalType": "uint256",
                  "name": "vaultSupplyExchangePrice",
                  "type": "uint256"
                },
                {
                  "internalType": "uint256",
                  "name": "vaultBorrowExchangePrice",
                  "type": "uint256"
                },
                {
                  "internalType": "uint256",
                  "name": "supplyRateLiquidity",
                  "type": "uint256"
                },
                {
                  "internalType": "uint256",
                  "name": "borrowRateLiquidity",
                  "type": "uint256"
                },
                {
                  "internalType": "int256",
                  "name": "supplyRateVault",
                  "type": "int256"
                },
                {
                  "internalType": "int256",
                  "name": "borrowRateVault",
                  "type": "int256"
                },
                {
                  "internalType": "int256",
                  "name": "rewardsOrFeeRateSupply",
                  "type": "int256"
                },
                {
                  "internalType": "int256",
                  "name": "rewardsOrFeeRateBorrow",
                  "type": "int256"
                }
              ],
              "internalType": "struct Structs.ExchangePricesAndRates",
              "name": "exchangePricesAndRates",
              "type": "tuple"
            },
            {
              "components": [
                {
                  "internalType": "uint256",
                  "name": "totalSupplyVault",
                  "type": "uint256"
                },
                {
                  "internalType": "uint256",
                  "name": "totalBorrowVault",
                  "type": "uint256"
                },
                {
                  "internalType": "uint256",
                  "name": "totalSupplyLiquidityOrDex",
                  "type": "uint256"
                },
                {
                  "internalType": "uint256",
                  "name": "totalBorrowLiquidityOrDex",
                  "type": "uint256"
                },
                {
                  "internalType": "uint256",
                  "name": "absorbedSupply",
                  "type": "uint256"
                },
                {
                  "internalType": "uint256",
                  "name": "absorbedBorrow",
                  "type": "uint256"
                }
              ],
              "internalType": "struct Structs.TotalSupplyAndBorrow",
              "name": "totalSupplyAndBorrow",
              "type": "tuple"
            },
            {
              "components": [
                {
                  "internalType": "uint256",
                  "name": "withdrawLimit",
                  "type": "uint256"
                },
                {
                  "internalType": "uint256",
                  "name": "withdrawableUntilLimit",
                  "type": "uint256"
                },
                {
                  "internalType": "uint256",
                  "name": "withdrawable",
                  "type": "uint256"
                },
                {
                  "internalType": "uint256",
                  "name": "borrowLimit",
                  "type": "uint256"
                },
                {
                  "internalType": "uint256",
                  "name": "borrowableUntilLimit",
                  "type": "uint256"
                },
                {
                  "internalType": "uint256",
                  "name": "borrowable",
                  "type": "uint256"
                },
                {
                  "internalType": "uint256",
                  "name": "borrowLimitUtilization",
                  "type": "uint256"
                },
                {
                  "internalType": "uint256",
                  "name": "minimumBorrowing",
                  "type": "uint256"
                }
              ],
              "internalType": "struct Structs.LimitsAndAvailability",
              "name": "limitsAndAvailability",
              "type": "tuple"
            },
            {
              "components": [
                {
                  "internalType": "uint256",
                  "name": "totalPositions",
                  "type": "uint256"
                },
                {
                  "internalType": "int256",
                  "name": "topTick",
                  "type": "int256"
                },
                {
                  "internalType": "uint256",
                  "name": "currentBranch",
                  "type": "uint256"
                },
                {
                  "internalType": "uint256",
                  "name": "totalBranch",
                  "type": "uint256"
                },
                {
                  "internalType": "uint256",
                  "name": "totalBorrow",
                  "type": "uint256"
                },
                {
                  "internalType": "uint256",
                  "name": "totalSupply",
                  "type": "uint256"
                },
                {
                  "components": [
                    {
                      "internalType": "uint256",
                      "name": "status",
                      "type": "uint256"
                    },
                    {
                      "internalType": "int256",
                      "name": "minimaTick",
                      "type": "int256"
                    },
                    {
                      "internalType": "uint256",
                      "name": "debtFactor",
                      "type": "uint256"
                    },
                    {
                      "internalType": "uint256",
                      "name": "partials",
                      "type": "uint256"
                    },
                    {
                      "internalType": "uint256",
                      "name": "debtLiquidity",
                      "type": "uint256"
                    },
                    {
                      "internalType": "uint256",
                      "name": "baseBranchId",
                      "type": "uint256"
                    },
                    {
                      "internalType": "int256",
                      "name": "baseBranchMinima",
                      "type": "int256"
                    }
                  ],
                  "internalType": "struct Structs.CurrentBranchState",
                  "name": "currentBranchState",
                  "type": "tuple"
                }
              ],
              "internalType": "struct Structs.VaultState",
              "name": "vaultState",
              "type": "tuple"
            },
            {
              "components": [
                {
                  "internalType": "bool",
                  "name": "modeWithInterest",
                  "type": "bool"
                },
                {
                  "internalType": "uint256",
                  "name": "supply",
                  "type": "uint256"
                },
                {
                  "internalType": "uint256",
                  "name": "withdrawalLimit",
                  "type": "uint256"
                },
                {
                  "internalType": "uint256",
                  "name": "lastUpdateTimestamp",
                  "type": "uint256"
                },
                {
                  "internalType": "uint256",
                  "name": "expandPercent",
                  "type": "uint256"
                },
                {
                  "internalType": "uint256",
                  "name": "expandDuration",
                  "type": "uint256"
                },
                {
                  "internalType": "uint256",
                  "name": "baseWithdrawalLimit",
                  "type": "uint256"
                },
                {
                  "internalType": "uint256",
                  "name": "withdrawableUntilLimit",
                  "type": "uint256"
                },
                {
                  "internalType": "uint256",
                  "name": "withdrawable",
                  "type": "uint256"
                }
              ],
              "internalType": "struct Structs.UserSupplyData",
              "name": "liquidityUserSupplyData",
              "type": "tuple"
            },
            {
              "components": [
                {
                  "internalType": "bool",
                  "name": "modeWithInterest",
                  "type": "bool"
                },
                {
                  "internalType": "uint256",
                  "name": "borrow",
                  "type": "uint256"
                },
                {
                  "internalType": "uint256",
                  "name": "borrowLimit",
                  "type": "uint256"
                },
                {
                  "internalType": "uint256",
                  "name": "lastUpdateTimestamp",
                  "type": "uint256"
                },
                {
                  "internalType": "uint256",
                  "name": "expandPercent",
                  "type": "uint256"
                },
                {
                  "internalType": "uint256",
                  "name": "expandDuration",
                  "type": "uint256"
                },
                {
                  "internalType": "uint256",
                  "name": "baseBorrowLimit",
                  "type": "uint256"
                },
                {
                  "internalType": "uint256",
                  "name": "maxBorrowLimit",
                  "type": "uint256"
                },
                {
                  "internalType": "uint256",
                  "name": "borrowableUntilLimit",
                  "type": "uint256"
                },
                {
                  "internalType": "uint256",
                  "name": "borrowable",
                  "type": "uint256"
                },
                {
                  "internalType": "uint256",
                  "name": "borrowLimitUtilization",
                  "type": "uint256"
                }
              ],
              "internalType": "struct Structs.UserBorrowData",
              "name": "liquidityUserBorrowData",
              "type": "tuple"
            }
          ],
          "internalType": "struct Structs.VaultEntireData[]",
          "name": "vaultsData_",
          "type": "tuple[]"
        }
      ],
      "stateMutability": "view",
      "type": "function"
    },
    {
      "inputs": [
        {
          "internalType": "uint256",
          "name": "slot_",
          "type": "uint256"
        }
      ],
      "name": "normalSlot",
      "outputs": [
        {
          "internalType": "bytes32",
          "name": "",
          "type": "bytes32"
        }
      ],
      "stateMutability": "pure",
      "type": "function"
    },
    {
      "inputs": [
        {
          "internalType": "uint256",
          "name": "nftId_",
          "type": "uint256"
        }
      ],
      "name": "positionByNftId",
      "outputs": [
        {
          "components": [
            {
              "internalType": "uint256",
              "name": "nftId",
              "type": "uint256"
            },
            {
              "internalType": "address",
              "name": "owner",
              "type": "address"
            },
            {
              "internalType": "bool",
              "name": "isLiquidated",
              "type": "bool"
            },
            {
              "internalType": "bool",
              "name": "isSupplyPosition",
              "type": "bool"
            },
            {
              "internalType": "int256",
              "name": "tick",
              "type": "int256"
            },
            {
              "internalType": "uint256",
              "name": "tickId",
              "type": "uint256"
            },
            {
              "internalType": "uint256",
              "name": "beforeSupply",
              "type": "uint256"
            },
            {
              "internalType": "uint256",
              "name": "beforeBorrow",
              "type": "uint256"
            },
            {
              "internalType": "uint256",
              "name": "beforeDustBorrow",
              "type": "uint256"
            },
            {
              "internalType": "uint256",
              "name": "supply",
              "type": "uint256"
            },
            {
              "internalType": "uint256",
              "name": "borrow",
              "type": "uint256"
            },
            {
              "internalType": "uint256",
              "name": "dustBorrow",
              "type": "uint256"
            }
          ],
          "internalType": "struct Structs.UserPosition",
          "name": "userPosition_",
          "type": "tuple"
        },
        {
          "components": [
            {
              "internalType": "address",
              "name": "vault",
              "type": "address"
            },
            {
              "internalType": "bool",
              "name": "isSmartCol",
              "type": "bool"
            },
            {
              "internalType": "bool",
              "name": "isSmartDebt",
              "type": "bool"
            },
            {
              "components": [
                {
                  "internalType": "address",
                  "name": "liquidity",
                  "type": "address"
                },
                {
                  "internalType": "address",
                  "name": "factory",
                  "type": "address"
                },
                {
                  "internalType": "address",
                  "name": "operateImplementation",
                  "type": "address"
                },
                {
                  "internalType": "address",
                  "name": "adminImplementation",
                  "type": "address"
                },
                {
                  "internalType": "address",
                  "name": "secondaryImplementation",
                  "type": "address"
                },
                {
                  "internalType": "address",
                  "name": "deployer",
                  "type": "address"
                },
                {
                  "internalType": "address",
                  "name": "supply",
                  "type": "address"
                },
                {
                  "internalType": "address",
                  "name": "borrow",
                  "type": "address"
                },
                {
                  "components": [
                    {
                      "internalType": "address",
                      "name": "token0",
                      "type": "address"
                    },
                    {
                      "internalType": "address",
                      "name": "token1",
                      "type": "address"
                    }
                  ],
                  "internalType": "struct IFluidVault.Tokens",
                  "name": "supplyToken",
                  "type": "tuple"
                },
                {
                  "components": [
                    {
                      "internalType": "address",
                      "name": "token0",
                      "type": "address"
                    },
                    {
                      "internalType": "address",
                      "name": "token1",
                      "type": "address"
                    }
                  ],
                  "internalType": "struct IFluidVault.Tokens",
                  "name": "borrowToken",
                  "type": "tuple"
                },
                {
                  "internalType": "uint256",
                  "name": "vaultId",
                  "type": "uint256"
                },
                {
                  "internalType": "uint256",
                  "name": "vaultType",
                  "type": "uint256"
                },
                {
                  "internalType": "bytes32",
                  "name": "supplyExchangePriceSlot",
                  "type": "bytes32"
                },
                {
                  "internalType": "bytes32",
                  "name": "borrowExchangePriceSlot",
                  "type": "bytes32"
                },
                {
                  "internalType": "bytes32",
                  "name": "userSupplySlot",
                  "type": "bytes32"
                },
                {
                  "internalType": "bytes32",
                  "name": "userBorrowSlot",
                  "type": "bytes32"
                }
              ],
              "internalType": "struct IFluidVault.ConstantViews",
              "name": "constantVariables",
              "type": "tuple"
            },
            {
              "components": [
                {
                  "internalType": "uint16",
                  "name": "supplyRateMagnifier",
                  "type": "uint16"
                },
                {
                  "internalType": "uint16",
                  "name": "borrowRateMagnifier",
                  "type": "uint16"
                },
                {
                  "internalType": "uint16",
                  "name": "collateralFactor",
                  "type": "uint16"
                },
                {
                  "internalType": "uint16",
                  "name": "liquidationThreshold",
                  "type": "uint16"
                },
                {
                  "internalType": "uint16",
                  "name": "liquidationMaxLimit",
                  "type": "uint16"
                },
                {
                  "internalType": "uint16",
                  "name": "withdrawalGap",
                  "type": "uint16"
                },
                {
                  "internalType": "uint16",
                  "name": "liquidationPenalty",
                  "type": "uint16"
                },
                {
                  "internalType": "uint16",
                  "name": "borrowFee",
                  "type": "uint16"
                },
                {
                  "internalType": "address",
                  "name": "oracle",
                  "type": "address"
                },
                {
                  "internalType": "uint256",
                  "name": "oraclePriceOperate",
                  "type": "uint256"
                },
                {
                  "internalType": "uint256",
                  "name": "oraclePriceLiquidate",
                  "type": "uint256"
                },
                {
                  "internalType": "address",
                  "name": "rebalancer",
                  "type": "address"
                },
                {
                  "internalType": "uint256",
                  "name": "lastUpdateTimestamp",
                  "type": "uint256"
                }
              ],
              "internalType": "struct Structs.Configs",
              "name": "configs",
              "type": "tuple"
            },
            {
              "components": [
                {
                  "internalType": "uint256",
                  "name": "lastStoredLiquiditySupplyExchangePrice",
                  "type": "uint256"
                },
                {
                  "internalType": "uint256",
                  "name": "lastStoredLiquidityBorrowExchangePrice",
                  "type": "uint256"
                },
                {
                  "internalType": "uint256",
                  "name": "lastStoredVaultSupplyExchangePrice",
                  "type": "uint256"
                },
                {
                  "internalType": "uint256",
                  "name": "lastStoredVaultBorrowExchangePrice",
                  "type": "uint256"
                },
                {
                  "internalType": "uint256",
                  "name": "liquiditySupplyExchangePrice",
                  "type": "uint256"
                },
                {
                  "internalType": "uint256",
                  "name": "liquidityBorrowExchangePrice",
                  "type": "uint256"
                },
                {
                  "internalType": "uint256",
                  "name": "vaultSupplyExchangePrice",
                  "type": "uint256"
                },
                {
                  "internalType": "uint256",
                  "name": "vaultBorrowExchangePrice",
                  "type": "uint256"
                },
                {
                  "internalType": "uint256",
                  "name": "supplyRateLiquidity",
                  "type": "uint256"
                },
                {
                  "internalType": "uint256",
                  "name": "borrowRateLiquidity",
                  "type": "uint256"
                },
                {
                  "internalType": "int256",
                  "name": "supplyRateVault",
                  "type": "int256"
                },
                {
                  "internalType": "int256",
                  "name": "borrowRateVault",
                  "type": "int256"
                },
                {
                  "internalType": "int256",
                  "name": "rewardsOrFeeRateSupply",
                  "type": "int256"
                },
                {
                  "internalType": "int256",
                  "name": "rewardsOrFeeRateBorrow",
                  "type": "int256"
                }
              ],
              "internalType": "struct Structs.ExchangePricesAndRates",
              "name": "exchangePricesAndRates",
              "type": "tuple"
            },
            {
              "components": [
                {
                  "internalType": "uint256",
                  "name": "totalSupplyVault",
                  "type": "uint256"
                },
                {
                  "internalType": "uint256",
                  "name": "totalBorrowVault",
                  "type": "uint256"
                },
                {
                  "internalType": "uint256",
                  "name": "totalSupplyLiquidityOrDex",
                  "type": "uint256"
                },
                {
                  "internalType": "uint256",
                  "name": "totalBorrowLiquidityOrDex",
                  "type": "uint256"
                },
                {
                  "internalType": "uint256",
                  "name": "absorbedSupply",
                  "type": "uint256"
                },
                {
                  "internalType": "uint256",
                  "name": "absorbedBorrow",
                  "type": "uint256"
                }
              ],
              "internalType": "struct Structs.TotalSupplyAndBorrow",
              "name": "totalSupplyAndBorrow",
              "type": "tuple"
            },
            {
              "components": [
                {
                  "internalType": "uint256",
                  "name": "withdrawLimit",
                  "type": "uint256"
                },
                {
                  "internalType": "uint256",
                  "name": "withdrawableUntilLimit",
                  "type": "uint256"
                },
                {
                  "internalType": "uint256",
                  "name": "withdrawable",
                  "type": "uint256"
                },
                {
                  "internalType": "uint256",
                  "name": "borrowLimit",
                  "type": "uint256"
                },
                {
                  "internalType": "uint256",
                  "name": "borrowableUntilLimit",
                  "type": "uint256"
                },
                {
                  "internalType": "uint256",
                  "name": "borrowable",
                  "type": "uint256"
                },
                {
                  "internalType": "uint256",
                  "name": "borrowLimitUtilization",
                  "type": "uint256"
                },
                {
                  "internalType": "uint256",
                  "name": "minimumBorrowing",
                  "type": "uint256"
                }
              ],
              "internalType": "struct Structs.LimitsAndAvailability",
              "name": "limitsAndAvailability",
              "type": "tuple"
            },
            {
              "components": [
                {
                  "internalType": "uint256",
                  "name": "totalPositions",
                  "type": "uint256"
                },
                {
                  "internalType": "int256",
                  "name": "topTick",
                  "type": "int256"
                },
                {
                  "internalType": "uint256",
                  "name": "currentBranch",
                  "type": "uint256"
                },
                {
                  "internalType": "uint256",
                  "name": "totalBranch",
                  "type": "uint256"
                },
                {
                  "internalType": "uint256",
                  "name": "totalBorrow",
                  "type": "uint256"
                },
                {
                  "internalType": "uint256",
                  "name": "totalSupply",
                  "type": "uint256"
                },
                {
                  "components": [
                    {
                      "internalType": "uint256",
                      "name": "status",
                      "type": "uint256"
                    },
                    {
                      "internalType": "int256",
                      "name": "minimaTick",
                      "type": "int256"
                    },
                    {
                      "internalType": "uint256",
                      "name": "debtFactor",
                      "type": "uint256"
                    },
                    {
                      "internalType": "uint256",
                      "name": "partials",
                      "type": "uint256"
                    },
                    {
                      "internalType": "uint256",
                      "name": "debtLiquidity",
                      "type": "uint256"
                    },
                    {
                      "internalType": "uint256",
                      "name": "baseBranchId",
                      "type": "uint256"
                    },
                    {
                      "internalType": "int256",
                      "name": "baseBranchMinima",
                      "type": "int256"
                    }
                  ],
                  "internalType": "struct Structs.CurrentBranchState",
                  "name": "currentBranchState",
                  "type": "tuple"
                }
              ],
              "internalType": "struct Structs.VaultState",
              "name": "vaultState",
              "type": "tuple"
            },
            {
              "components": [
                {
                  "internalType": "bool",
                  "name": "modeWithInterest",
                  "type": "bool"
                },
                {
                  "internalType": "uint256",
                  "name": "supply",
                  "type": "uint256"
                },
                {
                  "internalType": "uint256",
                  "name": "withdrawalLimit",
                  "type": "uint256"
                },
                {
                  "internalType": "uint256",
                  "name": "lastUpdateTimestamp",
                  "type": "uint256"
                },
                {
                  "internalType": "uint256",
                  "name": "expandPercent",
                  "type": "uint256"
                },
                {
                  "internalType": "uint256",
                  "name": "expandDuration",
                  "type": "uint256"
                },
                {
                  "internalType": "uint256",
                  "name": "baseWithdrawalLimit",
                  "type": "uint256"
                },
                {
                  "internalType": "uint256",
                  "name": "withdrawableUntilLimit",
                  "type": "uint256"
                },
                {
                  "internalType": "uint256",
                  "name": "withdrawable",
                  "type": "uint256"
                }
              ],
              "internalType": "struct Structs.UserSupplyData",
              "name": "liquidityUserSupplyData",
              "type": "tuple"
            },
            {
              "components": [
                {
                  "internalType": "bool",
                  "name": "modeWithInterest",
                  "type": "bool"
                },
                {
                  "internalType": "uint256",
                  "name": "borrow",
                  "type": "uint256"
                },
                {
                  "internalType": "uint256",
                  "name": "borrowLimit",
                  "type": "uint256"
                },
                {
                  "internalType": "uint256",
                  "name": "lastUpdateTimestamp",
                  "type": "uint256"
                },
                {
                  "internalType": "uint256",
                  "name": "expandPercent",
                  "type": "uint256"
                },
                {
                  "internalType": "uint256",
                  "name": "expandDuration",
                  "type": "uint256"
                },
                {
                  "internalType": "uint256",
                  "name": "baseBorrowLimit",
                  "type": "uint256"
                },
                {
                  "internalType": "uint256",
                  "name": "maxBorrowLimit",
                  "type": "uint256"
                },
                {
                  "internalType": "uint256",
                  "name": "borrowableUntilLimit",
                  "type": "uint256"
                },
                {
                  "internalType": "uint256",
                  "name": "borrowable",
                  "type": "uint256"
                },
                {
                  "internalType": "uint256",
                  "name": "borrowLimitUtilization",
                  "type": "uint256"
                }
              ],
              "internalType": "struct Structs.UserBorrowData",
              "name": "liquidityUserBorrowData",
              "type": "tuple"
            }
          ],
          "internalType": "struct Structs.VaultEntireData",
          "name": "vaultData_",
          "type": "tuple"
        }
      ],
      "stateMutability": "view",
      "type": "function"
    },
    {
      "inputs": [
        {
          "internalType": "address",
          "name": "user_",
          "type": "address"
        }
      ],
      "name": "positionsByUser",
      "outputs": [
        {
          "components": [
            {
              "internalType": "uint256",
              "name": "nftId",
              "type": "uint256"
            },
            {
              "internalType": "address",
              "name": "owner",
              "type": "address"
            },
            {
              "internalType": "bool",
              "name": "isLiquidated",
              "type": "bool"
            },
            {
              "internalType": "bool",
              "name": "isSupplyPosition",
              "type": "bool"
            },
            {
              "internalType": "int256",
              "name": "tick",
              "type": "int256"
            },
            {
              "internalType": "uint256",
              "name": "tickId",
              "type": "uint256"
            },
            {
              "internalType": "uint256",
              "name": "beforeSupply",
              "type": "uint256"
            },
            {
              "internalType": "uint256",
              "name": "beforeBorrow",
              "type": "uint256"
            },
            {
              "internalType": "uint256",
              "name": "beforeDustBorrow",
              "type": "uint256"
            },
            {
              "internalType": "uint256",
              "name": "supply",
              "type": "uint256"
            },
            {
              "internalType": "uint256",
              "name": "borrow",
              "type": "uint256"
            },
            {
              "internalType": "uint256",
              "name": "dustBorrow",
              "type": "uint256"
            }
          ],
          "internalType": "struct Structs.UserPosition[]",
          "name": "userPositions_",
          "type": "tuple[]"
        },
        {
          "components": [
            {
              "internalType": "address",
              "name": "vault",
              "type": "address"
            },
            {
              "internalType": "bool",
              "name": "isSmartCol",
              "type": "bool"
            },
            {
              "internalType": "bool",
              "name": "isSmartDebt",
              "type": "bool"
            },
            {
              "components": [
                {
                  "internalType": "address",
                  "name": "liquidity",
                  "type": "address"
                },
                {
                  "internalType": "address",
                  "name": "factory",
                  "type": "address"
                },
                {
                  "internalType": "address",
                  "name": "operateImplementation",
                  "type": "address"
                },
                {
                  "internalType": "address",
                  "name": "adminImplementation",
                  "type": "address"
                },
                {
                  "internalType": "address",
                  "name": "secondaryImplementation",
                  "type": "address"
                },
                {
                  "internalType": "address",
                  "name": "deployer",
                  "type": "address"
                },
                {
                  "internalType": "address",
                  "name": "supply",
                  "type": "address"
                },
                {
                  "internalType": "address",
                  "name": "borrow",
                  "type": "address"
                },
                {
                  "components": [
                    {
                      "internalType": "address",
                      "name": "token0",
                      "type": "address"
                    },
                    {
                      "internalType": "address",
                      "name": "token1",
                      "type": "address"
                    }
                  ],
                  "internalType": "struct IFluidVault.Tokens",
                  "name": "supplyToken",
                  "type": "tuple"
                },
                {
                  "components": [
                    {
                      "internalType": "address",
                      "name": "token0",
                      "type": "address"
                    },
                    {
                      "internalType": "address",
                      "name": "token1",
                      "type": "address"
                    }
                  ],
                  "internalType": "struct IFluidVault.Tokens",
                  "name": "borrowToken",
                  "type": "tuple"
                },
                {
                  "internalType": "uint256",
                  "name": "vaultId",
                  "type": "uint256"
                },
                {
                  "internalType": "uint256",
                  "name": "vaultType",
                  "type": "uint256"
                },
                {
                  "internalType": "bytes32",
                  "name": "supplyExchangePriceSlot",
                  "type": "bytes32"
                },
                {
                  "internalType": "bytes32",
                  "name": "borrowExchangePriceSlot",
                  "type": "bytes32"
                },
                {
                  "internalType": "bytes32",
                  "name": "userSupplySlot",
                  "type": "bytes32"
                },
                {
                  "internalType": "bytes32",
                  "name": "userBorrowSlot",
                  "type": "bytes32"
                }
              ],
              "internalType": "struct IFluidVault.ConstantViews",
              "name": "constantVariables",
              "type": "tuple"
            },
            {
              "components": [
                {
                  "internalType": "uint16",
                  "name": "supplyRateMagnifier",
                  "type": "uint16"
                },
                {
                  "internalType": "uint16",
                  "name": "borrowRateMagnifier",
                  "type": "uint16"
                },
                {
                  "internalType": "uint16",
                  "name": "collateralFactor",
                  "type": "uint16"
                },
                {
                  "internalType": "uint16",
                  "name": "liquidationThreshold",
                  "type": "uint16"
                },
                {
                  "internalType": "uint16",
                  "name": "liquidationMaxLimit",
                  "type": "uint16"
                },
                {
                  "internalType": "uint16",
                  "name": "withdrawalGap",
                  "type": "uint16"
                },
                {
                  "internalType": "uint16",
                  "name": "liquidationPenalty",
                  "type": "uint16"
                },
                {
                  "internalType": "uint16",
                  "name": "borrowFee",
                  "type": "uint16"
                },
                {
                  "internalType": "address",
                  "name": "oracle",
                  "type": "address"
                },
                {
                  "internalType": "uint256",
                  "name": "oraclePriceOperate",
                  "type": "uint256"
                },
                {
                  "internalType": "uint256",
                  "name": "oraclePriceLiquidate",
                  "type": "uint256"
                },
                {
                  "internalType": "address",
                  "name": "rebalancer",
                  "type": "address"
                },
                {
                  "internalType": "uint256",
                  "name": "lastUpdateTimestamp",
                  "type": "uint256"
                }
              ],
              "internalType": "struct Structs.Configs",
              "name": "configs",
              "type": "tuple"
            },
            {
              "components": [
                {
                  "internalType": "uint256",
                  "name": "lastStoredLiquiditySupplyExchangePrice",
                  "type": "uint256"
                },
                {
                  "internalType": "uint256",
                  "name": "lastStoredLiquidityBorrowExchangePrice",
                  "type": "uint256"
                },
                {
                  "internalType": "uint256",
                  "name": "lastStoredVaultSupplyExchangePrice",
                  "type": "uint256"
                },
                {
                  "internalType": "uint256",
                  "name": "lastStoredVaultBorrowExchangePrice",
                  "type": "uint256"
                },
                {
                  "internalType": "uint256",
                  "name": "liquiditySupplyExchangePrice",
                  "type": "uint256"
                },
                {
                  "internalType": "uint256",
                  "name": "liquidityBorrowExchangePrice",
                  "type": "uint256"
                },
                {
                  "internalType": "uint256",
                  "name": "vaultSupplyExchangePrice",
                  "type": "uint256"
                },
                {
                  "internalType": "uint256",
                  "name": "vaultBorrowExchangePrice",
                  "type": "uint256"
                },
                {
                  "internalType": "uint256",
                  "name": "supplyRateLiquidity",
                  "type": "uint256"
                },
                {
                  "internalType": "uint256",
                  "name": "borrowRateLiquidity",
                  "type": "uint256"
                },
                {
                  "internalType": "int256",
                  "name": "supplyRateVault",
                  "type": "int256"
                },
                {
                  "internalType": "int256",
                  "name": "borrowRateVault",
                  "type": "int256"
                },
                {
                  "internalType": "int256",
                  "name": "rewardsOrFeeRateSupply",
                  "type": "int256"
                },
                {
                  "internalType": "int256",
                  "name": "rewardsOrFeeRateBorrow",
                  "type": "int256"
                }
              ],
              "internalType": "struct Structs.ExchangePricesAndRates",
              "name": "exchangePricesAndRates",
              "type": "tuple"
            },
            {
              "components": [
                {
                  "internalType": "uint256",
                  "name": "totalSupplyVault",
                  "type": "uint256"
                },
                {
                  "internalType": "uint256",
                  "name": "totalBorrowVault",
                  "type": "uint256"
                },
                {
                  "internalType": "uint256",
                  "name": "totalSupplyLiquidityOrDex",
                  "type": "uint256"
                },
                {
                  "internalType": "uint256",
                  "name": "totalBorrowLiquidityOrDex",
                  "type": "uint256"
                },
                {
                  "internalType": "uint256",
                  "name": "absorbedSupply",
                  "type": "uint256"
                },
                {
                  "internalType": "uint256",
                  "name": "absorbedBorrow",
                  "type": "uint256"
                }
              ],
              "internalType": "struct Structs.TotalSupplyAndBorrow",
              "name": "totalSupplyAndBorrow",
              "type": "tuple"
            },
            {
              "components": [
                {
                  "internalType": "uint256",
                  "name": "withdrawLimit",
                  "type": "uint256"
                },
                {
                  "internalType": "uint256",
                  "name": "withdrawableUntilLimit",
                  "type": "uint256"
                },
                {
                  "internalType": "uint256",
                  "name": "withdrawable",
                  "type": "uint256"
                },
                {
                  "internalType": "uint256",
                  "name": "borrowLimit",
                  "type": "uint256"
                },
                {
                  "internalType": "uint256",
                  "name": "borrowableUntilLimit",
                  "type": "uint256"
                },
                {
                  "internalType": "uint256",
                  "name": "borrowable",
                  "type": "uint256"
                },
                {
                  "internalType": "uint256",
                  "name": "borrowLimitUtilization",
                  "type": "uint256"
                },
                {
                  "internalType": "uint256",
                  "name": "minimumBorrowing",
                  "type": "uint256"
                }
              ],
              "internalType": "struct Structs.LimitsAndAvailability",
              "name": "limitsAndAvailability",
              "type": "tuple"
            },
            {
              "components": [
                {
                  "internalType": "uint256",
                  "name": "totalPositions",
                  "type": "uint256"
                },
                {
                  "internalType": "int256",
                  "name": "topTick",
                  "type": "int256"
                },
                {
                  "internalType": "uint256",
                  "name": "currentBranch",
                  "type": "uint256"
                },
                {
                  "internalType": "uint256",
                  "name": "totalBranch",
                  "type": "uint256"
                },
                {
                  "internalType": "uint256",
                  "name": "totalBorrow",
                  "type": "uint256"
                },
                {
                  "internalType": "uint256",
                  "name": "totalSupply",
                  "type": "uint256"
                },
                {
                  "components": [
                    {
                      "internalType": "uint256",
                      "name": "status",
                      "type": "uint256"
                    },
                    {
                      "internalType": "int256",
                      "name": "minimaTick",
                      "type": "int256"
                    },
                    {
                      "internalType": "uint256",
                      "name": "debtFactor",
                      "type": "uint256"
                    },
                    {
                      "internalType": "uint256",
                      "name": "partials",
                      "type": "uint256"
                    },
                    {
                      "internalType": "uint256",
                      "name": "debtLiquidity",
                      "type": "uint256"
                    },
                    {
                      "internalType": "uint256",
                      "name": "baseBranchId",
                      "type": "uint256"
                    },
                    {
                      "internalType": "int256",
                      "name": "baseBranchMinima",
                      "type": "int256"
                    }
                  ],
                  "internalType": "struct Structs.CurrentBranchState",
                  "name": "currentBranchState",
                  "type": "tuple"
                }
              ],
              "internalType": "struct Structs.VaultState",
              "name": "vaultState",
              "type": "tuple"
            },
            {
              "components": [
                {
                  "internalType": "bool",
                  "name": "modeWithInterest",
                  "type": "bool"
                },
                {
                  "internalType": "uint256",
                  "name": "supply",
                  "type": "uint256"
                },
                {
                  "internalType": "uint256",
                  "name": "withdrawalLimit",
                  "type": "uint256"
                },
                {
                  "internalType": "uint256",
                  "name": "lastUpdateTimestamp",
                  "type": "uint256"
                },
                {
                  "internalType": "uint256",
                  "name": "expandPercent",
                  "type": "uint256"
                },
                {
                  "internalType": "uint256",
                  "name": "expandDuration",
                  "type": "uint256"
                },
                {
                  "internalType": "uint256",
                  "name": "baseWithdrawalLimit",
                  "type": "uint256"
                },
                {
                  "internalType": "uint256",
                  "name": "withdrawableUntilLimit",
                  "type": "uint256"
                },
                {
                  "internalType": "uint256",
                  "name": "withdrawable",
                  "type": "uint256"
                }
              ],
              "internalType": "struct Structs.UserSupplyData",
              "name": "liquidityUserSupplyData",
              "type": "tuple"
            },
            {
              "components": [
                {
                  "internalType": "bool",
                  "name": "modeWithInterest",
                  "type": "bool"
                },
                {
                  "internalType": "uint256",
                  "name": "borrow",
                  "type": "uint256"
                },
                {
                  "internalType": "uint256",
                  "name": "borrowLimit",
                  "type": "uint256"
                },
                {
                  "internalType": "uint256",
                  "name": "lastUpdateTimestamp",
                  "type": "uint256"
                },
                {
                  "internalType": "uint256",
                  "name": "expandPercent",
                  "type": "uint256"
                },
                {
                  "internalType": "uint256",
                  "name": "expandDuration",
                  "type": "uint256"
                },
                {
                  "internalType": "uint256",
                  "name": "baseBorrowLimit",
                  "type": "uint256"
                },
                {
                  "internalType": "uint256",
                  "name": "maxBorrowLimit",
                  "type": "uint256"
                },
                {
                  "internalType": "uint256",
                  "name": "borrowableUntilLimit",
                  "type": "uint256"
                },
                {
                  "internalType": "uint256",
                  "name": "borrowable",
                  "type": "uint256"
                },
                {
                  "internalType": "uint256",
                  "name": "borrowLimitUtilization",
                  "type": "uint256"
                }
              ],
              "internalType": "struct Structs.UserBorrowData",
              "name": "liquidityUserBorrowData",
              "type": "tuple"
            }
          ],
          "internalType": "struct Structs.VaultEntireData[]",
          "name": "vaultsData_",
          "type": "tuple[]"
        }
      ],
      "stateMutability": "view",
      "type": "function"
    },
    {
      "inputs": [
        {
          "internalType": "address",
          "name": "user_",
          "type": "address"
        }
      ],
      "name": "positionsNftIdOfUser",
      "outputs": [
        {
          "internalType": "uint256[]",
          "name": "nftIds_",
          "type": "uint256[]"
        }
      ],
      "stateMutability": "view",
      "type": "function"
    },
    {
      "inputs": [
        {
          "internalType": "uint256",
          "name": "tickRaw_",
          "type": "uint256"
        }
      ],
      "name": "tickHelper",
      "outputs": [
        {
          "internalType": "int256",
          "name": "tick",
          "type": "int256"
        }
      ],
      "stateMutability": "pure",
      "type": "function"
    },
    {
      "inputs": [],
      "name": "totalPositions",
      "outputs": [
        {
          "internalType": "uint256",
          "name": "",
          "type": "uint256"
        }
      ],
      "stateMutability": "view",
      "type": "function"
    },
    {
      "inputs": [
        {
          "internalType": "uint256",
          "name": "nftId_",
          "type": "uint256"
        }
      ],
      "name": "vaultByNftId",
      "outputs": [
        {
          "internalType": "address",
          "name": "vault_",
          "type": "address"
        }
      ],
      "stateMutability": "view",
      "type": "function"
    }
  ],
  "transactionHash": "0xc79b9fc81c6f45c4e2aa3cd6f94b602b086e025c156312b0254804a15592d435",
  "args": [
    "0x324c5Dc1fC42c7a4D43d92df1eBA58a54d13Bf2d",
    "0x46859d33E662d4bF18eEED88f74C36256E606e44"
  ],
  "numDeployments": 6,
  "solcInputHash": "69a814547c4ef5d2556b80b697df16ac",
  "bytecode": "0x60c06040523480156200001157600080fd5b5060405162005c3138038062005c31833981016040819052620000349162000069565b6001600160a01b039182166080521660a052620000a1565b80516001600160a01b03811681146200006457600080fd5b919050565b600080604083850312156200007d57600080fd5b62000088836200004c565b915062000098602084016200004c565b90509250929050565b60805160a051615b246200010d60003960008181610500015281816107d801526108b101526000818161043d01528181610aca01528181610f8a01528181611b5001528181611e07015281816120f3015281816121ef015281816124b601526125d20152615b246000f3fe608060405234801561001057600080fd5b50600436106102d35760003560e01c80637955fffd11610186578063a8d9f493116100e3578063e06a7b7111610097578063eb1db01811610071578063eb1db01814610669578063f70b198c1461067c578063fda1fa5f1461068f57600080fd5b8063e06a7b711461063b578063e6bd26a214610643578063ea19ba111461065657600080fd5b8063c67b5093116100c8578063c67b509314610600578063cbc7be6514610620578063dd19c0fe1461063357600080fd5b8063a8d9f493146105d8578063bf518f5f146105ed57600080fd5b80638a0038881161013a5780638f8b81f01161011f5780638f8b81f0146105a15780639d7aeeb4146105b4578063a8bc0693146105c557600080fd5b80638a0038881461057b5780638bfbeda61461058e57600080fd5b8063816022b81161016b578063816022b8146105355780638530330414610548578063890a13911461055b57600080fd5b80637955fffd146105225780637bbede431461045f57600080fd5b80632404a3f911610234578063347ca8bb116101e85780635486f100116101cd5780635486f100146104e05780636463e94c146104e85780636902f79f146104fb57600080fd5b8063347ca8bb146104ac57806351971bf7146104cd57600080fd5b80632dd31000116102195780632dd31000146104385780632f2612cf1461045f578063344bd7221461049957600080fd5b80632404a3f9146104035780632c44e1d11461041857600080fd5b80631949138e1161028b5780631f51fd93116102705780631f51fd93146103b05780631fcd3649146103c357806320ee1e44146103e357600080fd5b80631949138e146103655780631ef8986d1461039057600080fd5b8063144128e8116102bc578063144128e81461031e5780631579a46c1461033f578063168a11c21461035257600080fd5b806303e883e0146102d857806309c062e2146102fe575b600080fd5b6102eb6102e6366004614462565b610697565b6040519081526020015b60405180910390f35b61031161030c366004614462565b61070f565b6040516102f591906149ca565b61033161032c3660046149d9565b6109e9565b6040516102f5929190614a8e565b6102eb61034d366004614462565b610e88565b6102eb610360366004614aab565b610ea0565b6103786103733660046149d9565b610f43565b6040516001600160a01b0390911681526020016102f5565b6103a361039e366004614cef565b610ffd565b6040516102f59190614d6a565b6102eb6103be366004614462565b6110bb565b6103d66103d1366004614aab565b61118d565b6040516102f59190614e3a565b6103f66103f1366004614462565b6116b1565b6040516102f59190614e49565b61040b6117fd565b6040516102f59190614ecc565b61042b610426366004614f2e565b61180f565b6040516102f59190614ff4565b6103787f000000000000000000000000000000000000000000000000000000000000000081565b6102eb61046d366004615043565b604080516020808201939093528082019390935280518084038201815260609093019052815191012090565b6102eb6104a7366004614462565b61194c565b6104bf6104ba366004614462565b61198c565b6040516102f5929190615065565b6102eb6104db366004614462565b611b34565b6102eb611b4c565b6103786104f6366004614462565b611bd0565b6103787f000000000000000000000000000000000000000000000000000000000000000081565b610378610530366004614462565b611be8565b610378610543366004614aab565b611c00565b6102eb6105563660046150c7565b611c55565b61056e610569366004614462565b611cd1565b6040516102f591906150fc565b6102eb6105893660046149d9565b611dd2565b6102eb61059c36600461511e565b611e33565b6102eb6105af3660046149d9565b611eb9565b6102eb6105c23660046149d9565b90565b6102eb6105d3366004614aab565b611f86565b6105e0611fc7565b6040516102f5919061514a565b6102eb6105fb366004614aab565b612074565b61061361060e366004614462565b6120b5565b6040516102f5919061518b565b6102eb61062e366004614aab565b612289565b61042b6122ca565b6103a36123f9565b6103786106513660046149d9565b6124af565b61040b610664366004614cef565b6124db565b6102eb610677366004614462565b61259e565b6102eb61068a366004614462565b6125b6565b6102eb6125ce565b60006001600160a01b03821663b5c736e4825b6040518263ffffffff1660e01b81526004016106c891815260200190565b602060405180830381865afa1580156106e5573d6000803e3d6000fd5b505050506040513d601f19601f8201168201806040525081019061070991906151c3565b92915050565b6107176140da565b6001600160a01b0382168152600061072e836110bb565b905080156109e357610740838261262e565b606083018190526101008101516020908101516001600160a01b0390811615158286018190526101209093015190910151161515604084015260009081908190819081906108585760608701516101000151516040517fe72ef91b0000000000000000000000000000000000000000000000000000000081526001600160a01b038a81166004830152918216602482015260009182917f00000000000000000000000000000000000000000000000000000000000000009091169063e72ef91b906044016104c060405180830381865afa158015610822573d6000803e3d6000fd5b505050506040513d601f19601f82011682018060405250810190610846919061541d565b6101208b019190915260200151935050505b86604001516109475760608701516101200151516040517f967915d60000000000000000000000000000000000000000000000000000000081526001600160a01b038a81166004830152918216602482015260009182917f00000000000000000000000000000000000000000000000000000000000000009091169063967915d69060440161050060405180830381865afa1580156108fb573d6000803e3d6000fd5b505050506040513d601f19601f8201168201806040525081019061091f91906154c3565b610140808c018390529051604083015191830151610100909301519199509197509550925050505b61095a8888606001516101600151612894565b6080880181905261097090899088908585612bc7565b60a0880181905260608801516109899350899250612e65565b8560c001819052506109bf8560a001518660600151876080015160a0015161ffff168686868b61012001518c6101400151613132565b61014088015261012087015260e08601526109d9866116b1565b6101008601525050505b50919050565b610a5a6040518061018001604052806000815260200160006001600160a01b0316815260200160001515815260200160001515815260200160008152602001600081526020016000815260200160008152602001600081526020016000815260200160008152602001600081525090565b610a626140da565b8282526000610a7084610f43565b90506001600160a01b03811615610e82576000610a8d8286612289565b9050610a988261070f565b6040517f6352211e000000000000000000000000000000000000000000000000000000008152600481018790529093507f00000000000000000000000000000000000000000000000000000000000000006001600160a01b031690636352211e90602401602060405180830381865afa158015610b19573d6000803e3d6000fd5b505050506040513d601f19601f82011682018060405250810190610b3d9190615576565b6001600160a01b031660208501526001808216146060850181905266ffffffffffffff603583901c811660ff602d85901c81169190911b610120880181905260c0880152607584901c909116606d84901c9091161b6101608601819052610100860152610d675780600216600214610bc657610bc1600282901c6207ffff166155c2565b610bd1565b6207ffff600282901c165b60808501819052601582901c62ffffff1660a0860152610120850151606091610bfc9060020b613854565b610c0691906155fa565b901c6101408501819052610100850151610c1f91615611565b60e08501526080840151600090610c37908490610ea0565b90508060011660011480610c5757508460a0015162ffffff600183901c16115b15610d21576001604086810191909152608086015160a087015161014088015192517f22348cc7000000000000000000000000000000000000000000000000000000008152600481019290925260248201526044810191909152606481018290526001600160a01b038416906322348cc79060840160a060405180830381865afa158015610ce9573d6000803e3d6000fd5b505050506040513d601f19601f82011682018060405250810190610d0d9190615624565b505061012088015261014087015260808601525b8461016001518561014001511115610d5457846101600151856101400151610d499190615611565b610140860152610d65565b600061014086018190526101608601525b505b64e8d4a510008360a0015160c001518560c00151610d8591906155fa565b610d8f9190615693565b60c085015260a083015160e0908101519085015164e8d4a5100091610db3916155fa565b610dbd9190615693565b60e08086019190915260a0840151015161010085015164e8d4a5100091610de3916155fa565b610ded9190615693565b61010085015260a083015160c0015161012085015164e8d4a5100091610e12916155fa565b610e1c9190615693565b61012085015260a083015160e0015161014085015164e8d4a5100091610e41916155fa565b610e4b9190615693565b61014085015260a083015160e0015161016085015164e8d4a5100091610e70916155fa565b610e7a9190615693565b610160850152505b50915091565b60006001600160a01b03821663b5c736e460086106aa565b604080516020808201849052600582840152825180830384018152606090920190925280519101206000906001600160a01b0384169063b5c736e4905b6040518263ffffffff1660e01b8152600401610efb91815260200190565b602060405180830381865afa158015610f18573d6000803e3d6000fd5b505050506040513d601f19601f82011682018060405250810190610f3c91906151c3565b9392505050565b600080610f4f83611dd2565b6040517fe6bd26a200000000000000000000000000000000000000000000000000000000815263ffffffff60c083901c1660048201529091507f00000000000000000000000000000000000000000000000000000000000000006001600160a01b03169063e6bd26a290602401602060405180830381865afa158015610fd9573d6000803e3d6000fd5b505050506040513d601f19601f82011682018060405250810190610f3c9190615576565b80516060908067ffffffffffffffff81111561101b5761101b614ad7565b60405190808252806020026020018201604052801561105457816020015b6110416140da565b8152602001906001900390816110395790505b50915060005b818110156110b457611084848281518110611077576110776156ce565b602002602001015161070f565b838281518110611096576110966156ce565b602002602001018190525080806110ac906156fd565b91505061105a565b5050919050565b6000816001600160a01b03163b6000036110d757506000919050565b816001600160a01b031663bb24fe8a6040518163ffffffff1660e01b8152600401602060405180830381865afa92505050801561114f575060408051601f3d9081017fffffffffffffffffffffffffffffffffffffffffffffffffffffffffffffffe016820190925261114c918101906151c3565b60015b61070957816001600160a01b03166111696106518461194c565b6001600160a01b03161461117f57506000919050565b50612710919050565b919050565b6040805161014081018252600080825260208201819052918101829052606081018290526080810182905260a0810182905260c0810182905260e08101829052610100810182905261012081019190915281156111ea57816111fc565b6fffffffffffffffffffffffffffffffff5b91506000611209846110bb565b905080156116aa576001600160a01b03841682526000611229858361262e565b9050612710816101600151036114ba57610120810151516001600160a01b039081166020850152610100820151518116604080860191909152517f8433ea220000000000000000000000000000000000000000000000000000000081526004810186905260006024820181905261dead6044830152606482015290861690638433ea229060840160408051808303816000875af1925050508015611308575060408051601f3d9081017fffffffffffffffffffffffffffffffffffffffffffffffffffffffffffffffe016820190925261130591810190615735565b60015b61138457611314615759565b806308c379a0036113395750611328615774565b80611333575061133b565b50611387565b505b3d808015611365576040519150601f19603f3d011682016040523d82523d6000602084013e61136a565b606091505b5061137481613ab6565b60c086015260a085015250611387565b50505b6040517f8433ea22000000000000000000000000000000000000000000000000000000008152600481018590526000602482015261dead6044820152600160648201526001600160a01b03861690638433ea229060840160408051808303816000875af1925050508015611436575060408051601f3d9081017fffffffffffffffffffffffffffffffffffffffffffffffffffffffffffffffe016820190925261143391810190615735565b60015b6114b357611442615759565b806308c379a0036114675750611456615774565b806114615750611469565b50611682565b505b3d808015611493576040519150601f19603f3d011682016040523d82523d6000602084013e611498565b606091505b506114a281613ab6565b61010086015260e085015250611682565b5050611682565b61012081018051516001600160a01b03908116602086810191909152610100840180515183166040808901919091529351820151831660608801525101518116608086015290517f3202937e000000000000000000000000000000000000000000000000000000008152600060048201819052602482015290861690633202937e90604401600060405180830381600087803b15801561155957600080fd5b505af192505050801561156a575060015b6115e257611576615759565b806308c379a00361159b575061158a615774565b80611595575061159d565b506115e2565b505b3d8080156115c7576040519150601f19603f3d011682016040523d82523d6000602084013e6115cc565b606091505b506115d681613ab6565b60c086015260a0850152505b6040517f3202937e00000000000000000000000000000000000000000000000000000000815260006004820152600160248201526001600160a01b03861690633202937e90604401600060405180830381600087803b15801561164457600080fd5b505af1925050508015611655575060015b61168257611661615759565b806308c379a0036114675750611675615774565b806116805750611469565b505b8260a001518360e0015111806116a057508260c00151836101000151115b1515610120840152505b5092915050565b6116b96143d5565b60006116c483610697565b90506116d8620fffff600283901c16611eb9565b6020830152633fffffff601682901c81166040840152603482901c16606083015266ffffffffffffff605a82901c1660ff605283901c161b60a083015266ffffffffffffff609a82901c1660ff609283901c161b608083015260d281901c63ffffffff1682526040820151600090611751908590612074565b60c08401516003821690529050611770600282901c620fffff16611eb9565b60c0840180516020019190915280516603ffffffffffff607484901c1660409091015251633fffffff601683901c1660609091015266ffffffffffffff603c82901c1660ff603483901c161b60c084018051608001919091525160a682901c633fffffff1660a0909101526117ed60c482901c620fffff16611eb9565b60c0808501510152509092915050565b606061180a610664611fc7565b905090565b81516060908067ffffffffffffffff81111561182d5761182d614ad7565b6040519080825280602002602001820160405280156118ca57816020015b604080516101408101825260008082526020808301829052928201819052606082018190526080820181905260a0820181905260c0820181905260e08201819052610100820181905261012082015282527fffffffffffffffffffffffffffffffffffffffffffffffffffffffffffffffff90920191018161184b5790505b50915060005b81811015611944576119148582815181106118ed576118ed6156ce565b6020026020010151858381518110611907576119076156ce565b602002602001015161118d565b838281518110611926576119266156ce565b6020026020010181905250808061193c906156fd565b9150506118d0565b505092915050565b6000816001600160a01b031663540acabc6040518163ffffffff1660e01b8152600401602060405180830381865afa1580156106e5573d6000803e3d6000fd5b606080600061199a846120b5565b80519091508067ffffffffffffffff8111156119b8576119b8614ad7565b604051908082528060200260200182016040528015611a5a57816020015b611a476040518061018001604052806000815260200160006001600160a01b0316815260200160001515815260200160001515815260200160008152602001600081526020016000815260200160008152602001600081526020016000815260200160008152602001600081525090565b8152602001906001900390816119d65790505b5093508067ffffffffffffffff811115611a7657611a76614ad7565b604051908082528060200260200182016040528015611aaf57816020015b611a9c6140da565b815260200190600190039081611a945790505b50925060005b81811015611b2c57611adf838281518110611ad257611ad26156ce565b60200260200101516109e9565b868381518110611af157611af16156ce565b60200260200101868481518110611b0a57611b0a6156ce565b6020026020010182905282905250508080611b24906156fd565b915050611ab5565b505050915091565b60006001600160a01b03821663b5c736e4600a6106aa565b60007f00000000000000000000000000000000000000000000000000000000000000006001600160a01b0316638d6540236040518163ffffffff1660e01b8152600401602060405180830381865afa158015611bac573d6000803e3d6000fd5b505050506040513d601f19601f8201168201806040525081019061180a91906151c3565b60006001600160a01b03821663b5c736e460096106aa565b60006001600160a01b03821663b5c736e4600b6106aa565b600080611c1584611c10866110bb565b61262e565b60a08101519091506001600160a01b03161580611c30575082155b15611c3f576000915050610709565b611c4d8160a0015184613b24565b949350505050565b6000836001600160a01b031663b5c736e4611c7260068686611e33565b6040518263ffffffff1660e01b8152600401611c9091815260200190565b602060405180830381865afa158015611cad573d6000803e3d6000fd5b505050506040513d601f19601f82011682018060405250810190611c4d91906151c3565b604080518082019091526000602082018190526001600160a01b0383168252611cf9836125b6565b9050826001600160a01b031663ebd93ac66040518163ffffffff1660e01b8152600401600060405180830381600087803b158015611d3657600080fd5b505af1925050508015611d47575060015b611db057611d53615759565b806308c379a003611d785750611d67615774565b80611d725750611d7a565b506109e3565b505b3d808015611da4576040519150601f19603f3d011682016040523d82523d6000602084013e611da9565b606091505b50506109e3565b6000611dbb846125b6565b90508181146110b457600160208401525050919050565b604080516020808201849052600382840152825180830384018152606090920190925280519101206000906001600160a01b037f0000000000000000000000000000000000000000000000000000000000000000169063b5c736e4906106aa565b6000808385604051602001611e52929190918252602082015260400190565b604080517fffffffffffffffffffffffffffffffffffffffffffffffffffffffffffffffe081840301815282825280516020918201209083018690529082018190529150606001604051602081830303815290604052805190602001209150509392505050565b6000620fffff8210611f2b576040517f08c379a000000000000000000000000000000000000000000000000000000000815260206004820152600e60248201527f696e76616c69642d6e756d626572000000000000000000000000000000000000604482015260640160405180910390fd5b8115611f5f5781600116600114611f5357611f4e600183901c6207ffff166155c2565b610709565b5060011c6207ffff1690565b507f8000000000000000000000000000000000000000000000000000000000000000919050565b604080516020808201849052600482840152825180830384018152606090920190925280519101206000906001600160a01b0384169063b5c736e490610edd565b60606000611fd3611b4c565b90508067ffffffffffffffff811115611fee57611fee614ad7565b604051908082528060200260200182016040528015612017578160200160208202803683370190505b50915060005b8181101561206f5761203361065182600161581c565b838281518110612045576120456156ce565b6001600160a01b039092166020928302919091019091015280612067816156fd565b91505061201d565b505090565b604080516020808201849052600782840152825180830384018152606090920190925280519101206000906001600160a01b0384169063b5c736e490610edd565b6040517f70a082310000000000000000000000000000000000000000000000000000000081526001600160a01b0382811660048301526060916000917f000000000000000000000000000000000000000000000000000000000000000016906370a0823190602401602060405180830381865afa15801561213a573d6000803e3d6000fd5b505050506040513d601f19601f8201168201806040525081019061215e91906151c3565b90508067ffffffffffffffff81111561217957612179614ad7565b6040519080825280602002602001820160405280156121a2578160200160208202803683370190505b50915060005b818110156110b4576040517f2f745c590000000000000000000000000000000000000000000000000000000081526001600160a01b038581166004830152602482018390527f00000000000000000000000000000000000000000000000000000000000000001690632f745c5990604401602060405180830381865afa158015612236573d6000803e3d6000fd5b505050506040513d601f19601f8201168201806040525081019061225a91906151c3565b83828151811061226c5761226c6156ce565b602090810291909101015280612281816156fd565b9150506121a8565b604080516020808201849052600382840152825180830384018152606090920190925280519101206000906001600160a01b0384169063b5c736e490610edd565b606060006122d6611fc7565b80519091508067ffffffffffffffff8111156122f4576122f4614ad7565b60405190808252806020026020018201604052801561239157816020015b604080516101408101825260008082526020808301829052928201819052606082018190526080820181905260a0820181905260c0820181905260e08201819052610100820181905261012082015282527fffffffffffffffffffffffffffffffffffffffffffffffffffffffffffffffff9092019101816123125790505b50925060005b818110156123f3576123c38382815181106123b4576123b46156ce565b6020026020010151600061118d565b8482815181106123d5576123d56156ce565b602002602001018190525080806123eb906156fd565b915050612397565b50505090565b60606000612405611fc7565b80519091508067ffffffffffffffff81111561242357612423614ad7565b60405190808252806020026020018201604052801561245c57816020015b6124496140da565b8152602001906001900390816124415790505b50925060005b818110156123f35761247f838281518110611077576110776156ce565b848281518110612491576124916156ce565b602002602001018190525080806124a7906156fd565b915050612462565b60006107097f000000000000000000000000000000000000000000000000000000000000000083613b24565b80516060908067ffffffffffffffff8111156124f9576124f9614ad7565b60405190808252806020026020018201604052801561253e57816020015b60408051808201909152600080825260208201528152602001906001900390816125175790505b50915060005b818110156110b45761256e848281518110612561576125616156ce565b6020026020010151611cd1565b838281518110612580576125806156ce565b60200260200101819052508080612596906156fd565b915050612544565b60006001600160a01b03821663b5c736e460016106aa565b60006001600160a01b03821663b5c736e460026106aa565b60007f00000000000000000000000000000000000000000000000000000000000000006001600160a01b03166318160ddd6040518163ffffffff1660e01b8152600401602060405180830381865afa158015611bac573d6000803e3d6000fd5b6126cd604080516102008101825260008082526020808301829052828401829052606083018290526080830182905260a0830182905260c0830182905260e0830182905283518085018552828152808201839052610100840152835180850190945281845283015290610120820190815260006020820181905260408201819052606082018190526080820181905260a0820181905260c09091015290565b612710820361283157826001600160a01b031663b7791bf26040518163ffffffff1660e01b81526004016101a060405180830381865afa92505050801561274f575060408051601f3d9081017fffffffffffffffffffffffffffffffffffffffffffffffffffffffffffffffe016820190925261274c91810190615840565b60015b156107095780516001600160a01b03908116835260208083015182168185015285821660408086019190915283015182166060808601919091528301518216608080860191909152600060a08087018290528551851660c08801528551851660e0880152918501516101008088018051928716909252905184018290529185015161012080880180519290961690915293519092019190915282015161014080850191909152612710610160808601919091529183015161018080860191909152908301516101a0850152908201516101c084015201516101e0820152610709565b826001600160a01b031663b7791bf26040518163ffffffff1660e01b815260040161024060405180830381865afa158015612870573d6000803e3d6000fd5b505050506040513d601f19601f82011682018060405250810190610f3c9190615982565b604080516101a081018252600080825260208201819052918101829052606081018290526080810182905260a0810182905260c0810182905260e0810182905261010081018290526101208101829052610140810182905261016081018290526101808101829052906129068461259e565b61ffff8082168452601082901c166020808501919091529091506129329082901c6103ff16600a615a9a565b61ffff16604083015261294e602a82901c6103ff16600a615a9a565b61ffff16606083015261296a603482901c6103ff16600a615a9a565b61ffff166080830152612986603e82901c6103ff16600a615a9a565b61ffff1660a08301526103ff604882901c811660c0840152605282901c1660e08301527fffffffffffffffffffffffffffffffffffffffffffffffffffffffffffffd8f083016129e057606081901c610100830152612a1f565b605c81901c633fffffff168015612a0b576129fb8582611c00565b6001600160a01b03166101008401525b50607a81901c6401ffffffff166101808301525b6101008201516001600160a01b031615612ba8578161010001516001600160a01b0316638e7bfbc06040518163ffffffff1660e01b8152600401602060405180830381865afa925050508015612ab0575060408051601f3d9081017fffffffffffffffffffffffffffffffffffffffffffffffffffffffffffffffe0168201909252612aad918101906151c3565b60015b612b2e578161010001516001600160a01b031663e6aa216c6040518163ffffffff1660e01b8152600401602060405180830381865afa158015612af7573d6000803e3d6000fd5b505050506040513d601f19601f82011682018060405250810190612b1b91906151c3565b6101208301819052610140830152612ba8565b80836101200181815250508261010001516001600160a01b031663f3190c896040518163ffffffff1660e01b8152600401602060405180830381865afa158015612b7c573d6000803e3d6000fd5b505050506040513d601f19601f82011682018060405250810190612ba091906151c3565b610140840152505b612bb184611bd0565b6001600160a01b03166101608301525092915050565b612c39604051806101c0016040528060008152602001600081526020016000815260200160008152602001600081526020016000815260200160008152602001600081526020016000815260200160008152602001600081526020016000815260200160008152602001600081525090565b6000612c4487610e88565b67ffffffffffffffff8082168452604082811c82166020860152608083901c9091169084015260c081901c606084015290506001600160a01b0387166309f0d8cb612c8e8961259e565b6040518263ffffffff1660e01b8152600401612cac91815260200190565b608060405180830381865afa158015612cc9573d6000803e3d6000fd5b505050506040513d601f19601f82011682018060405250810190612ced9190615ab8565b60e086015260c085015260a0840152608083015261010082018490526101208201839052614e20861480612d225750619c4086145b15612d69578451600190811c617fff16610140840152855116600003612d5857816101400151612d51906155c2565b6101408301525b610140820151610180830152612dab565b84516127109061ffff16850204610140830152845161ffff167fffffffffffffffffffffffffffffffffffffffffffffffffffffffffffffd8f0016101808301525b617530861480612dbc5750619c4086145b15612e0757602085018051600190811c617fff16610160850152905116600003612df657816101600151612def906155c2565b6101608301525b6101608201516101a0830152612e5b565b612710856020015161ffff16840281612e2257612e22615664565b04610160830152602085015161ffff167fffffffffffffffffffffffffffffffffffffffffffffffffffffffffffffd8f0016101a08301525b5095945050505050565b612e9e6040518060c001604052806000815260200160008152602001600081526020016000815260200160008152602001600081525090565b6000612ea985610697565b90506000612eb6866125b6565b905060008460c001516001600160a01b031663b5c736e4866101c001516040518263ffffffff1660e01b8152600401612ef191815260200190565b602060405180830381865afa158015612f0e573d6000803e3d6000fd5b505050506040513d601f19601f82011682018060405250810190612f3291906151c3565b610100860151602001519091506001600160a01b0316612f5e5760011c67ffffffffffffffff16612f6c565b60011c67ffffffffffffffff165b60ff8116600882901c901b905060008560e001516001600160a01b031663b5c736e4876101e001516040518263ffffffff1660e01b8152600401612fb291815260200190565b602060405180830381865afa158015612fcf573d6000803e3d6000fd5b505050506040513d601f19601f82011682018060405250810190612ff391906151c3565b610120870151602001519091506001600160a01b031661301f5760011c67ffffffffffffffff1661302d565b60011c67ffffffffffffffff165b66ffffffffffffff605a85901c8116605286901c60ff9081169190911b808852609a87901c909216609287901c82161b602088015260408701849052600883901c92169190911b606086018190526fffffffffffffffffffffffffffffffff841660a0870152608084811c9087015260c0880151909164e8d4a51000910204855260e0870151602086015164e8d4a5100091020460208601526080870151604086015164e8d4a51000910204604086015260a0870151606086015164e8d4a51000910204606086015260c0870151608086015164e8d4a51000910204608086015260e087015160a086015164e8d4a5100091020460a086015250929695505050505050565b61317a60405180610100016040528060008152602001600081526020016000815260200160008152602001600081526020016000815260200160008152602001600081525090565b6131cb60405180610120016040528060001515815260200160008152602001600081526020016000815260200160008152602001600081526020016000815260200160008152602001600081525090565b61322a604051806101600160405280600015158152602001600081526020016000815260200160008152602001600081526020016000815260200160008152602001600081526020016000815260200160008152602001600081525090565b60c08a01516101c08b01516040517fb5c736e400000000000000000000000000000000000000000000000000000000815260048101919091526000916001600160a01b03169063b5c736e490602401602060405180830381865afa158015613296573d6000803e3d6000fd5b505050506040513d601f19601f820116820180604052508101906132ba91906151c3565b90508015613576576000808c600001516001600160a01b03168d60c001516001600160a01b0316036133325766ffffffffffffff600984901c1660ff600185901c161b91506133098383613f8e565b905064e8d4a510008e608001518361332191906155fa565b61332b9190615693565b9150613391565b66ffffffffffffff600984901c1660ff600185901c161b91506133558383613f8e565b6000895260208901839052608184901c6401ffffffff1660608a015260a284901c613fff1660808a015260b084901c62ffffff1660a08a015290505b64e8d4a510008e608001518202816133ab576133ab615664565b0480875282116133bc5760006133c1565b855182035b6020808801919091526101008e015101516001600160a01b03161561341157855160408901526103ff60d084901c1660ff60c885901c161b60c089015260208601805160e08a0152516101008901525b85516000901561342757612710838e020461342a565b60005b90508087602001511161343e57600061345d565b620f424081886020015103620f423f028161345b5761345b615664565b045b602080890182905260408901919091526101008f015101516001600160a01b0316925061357691505057600073eeeeeeeeeeeeeeeeeeeeeeeeeeeeeeeeeeeeeeee6001600160a01b03168c6101000151600001516001600160a01b0316036134d157508a516001600160a01b031631613560565b6101008c0151518c516040517f70a082310000000000000000000000000000000000000000000000000000000081526001600160a01b0391821660048201529116906370a0823190602401602060405180830381865afa158015613539573d6000803e3d6000fd5b505050506040513d601f19601f8201168201806040525081019061355d91906151c3565b90505b846020015181101561357457604085018190525b505b60e08b01516101e08c01516040517fb5c736e400000000000000000000000000000000000000000000000000000000815260048101919091526000916001600160a01b03169063b5c736e490602401602060405180830381865afa1580156135e2573d6000803e3d6000fd5b505050506040513d601f19601f8201168201806040525081019061360691906151c3565b90508015613819576101208c0151602001516001600160a01b031661373f57606085018a905260c08501899052620f4240620f423f89020460808601526101208c0151516000906001600160a01b03167fffffffffffffffffffffffff11111111111111111111111111111111111111120161368e57508b516001600160a01b03163161371d565b6101208d0151518d516040517f70a082310000000000000000000000000000000000000000000000000000000081526001600160a01b0391821660048201529116906370a0823190602401602060405180830381865afa1580156136f6573d6000803e3d6000fd5b505050506040513d601f19601f8201168201806040525081019061371a91906151c3565b90505b8560800151811161372e5780613734565b85608001515b60a087015250613819565b66ffffffffffffff600982901c1660ff600183901c161b6137608282614022565b60608701819052811061377457600061377c565b808660600151035b620f4240620f423f90910204608087810182815260a0808a0193845260008b5260208b018590526060808b015160408d015291516101008c015292516101208b0152608185901c6401ffffffff16908a015260a284901c613fff169089015260b083901c62ffffff169088015260d082901c6103ff1660c883901c60ff161b60c08801526103ff60e283901c1660ff60da84901c161b60e0880152505b64e8d4a510008d60e0015161271161383191906155fa565b61383b9190615693565b60e086015250929b949a50929850929650505050505050565b600060ff82901d80831803617fff81111561386e57600080fd5b700100000000000000000000000000000000600182161561389c57506fff9dd7de423466c20352b1246ce4856f5b60028216156138bb576fff3bd55f4488ad277531fa1c725a66d00260801c5b60048216156138da576ffe78410fd6498b73cb96a6917f8532590260801c5b60088216156138f9576ffcf2d9987c9be178ad5bfeffaa1232730260801c5b6010821615613918576ff9ef02c4529258b057769680fc6601b30260801c5b6020821615613937576ff402d288133a85a17784a411f7aba0820260801c5b6040821615613956576fe895615b5beb6386553757b0352bda900260801c5b6080821615613975576fd34f17a00ffa00a8309940a15930391a0260801c5b610100821615613995576fae6b7961714e20548d88ea5123f9a0ff0260801c5b6102008216156139b5576f76d6461f27082d74e0feed3b388c0ca10260801c5b6104008216156139d5576f372a3bfe0745d8b6b19d985d9a8b85bb0260801c5b6108008216156139f5576f0be32cbee48979763cf7247dd7bb539d0260801c5b611000821615613a14576e8d4f70c9ff4924dac37612d1e2921e0260801c5b612000821615613a32576d4e009ae5519380809a02ca7aec770260801c5b614000821615613a4e576b17c45e641b6e95dee056ff100260801c5b600091507f80000000000000000000000000000000000000000000000000000000000000008416613aac577fffffffffffffffffffffffffffffffffffffffffffffffffffffffffffffffff0463ffffffff811615613aac57600191505b60201c0192915050565b6000806044835110613b1f5760208301517f33c955bc000000000000000000000000000000000000000000000000000000007fffffffff00000000000000000000000000000000000000000000000000000000821601610e825750505060248101516044820151905b915091565b6000606082600003613b3a576000915050610709565b607f8311613c03576040517fd60000000000000000000000000000000000000000000000000000000000000060208201527f940000000000000000000000000000000000000000000000000000000000000060218201527fffffffffffffffffffffffffffffffffffffffff000000000000000000000000606086901b16602282015260f884901b7fff000000000000000000000000000000000000000000000000000000000000001660368201526037015b6040516020818303038152906040529050613f7f565b60ff8311613ce0576040517fd70000000000000000000000000000000000000000000000000000000000000060208201527f940000000000000000000000000000000000000000000000000000000000000060218201527fffffffffffffffffffffffffffffffffffffffff000000000000000000000000606086901b1660228201527f8100000000000000000000000000000000000000000000000000000000000000603682015260f884901b7fff00000000000000000000000000000000000000000000000000000000000000166037820152603801613bed565b61ffff8311613dbe576040517fd80000000000000000000000000000000000000000000000000000000000000060208201527f940000000000000000000000000000000000000000000000000000000000000060218201527fffffffffffffffffffffffffffffffffffffffff000000000000000000000000606086901b1660228201527f820000000000000000000000000000000000000000000000000000000000000060368201527fffff00000000000000000000000000000000000000000000000000000000000060f085901b166037820152603901613bed565b62ffffff8311613e9d576040517fd90000000000000000000000000000000000000000000000000000000000000060208201527f940000000000000000000000000000000000000000000000000000000000000060218201527fffffffffffffffffffffffffffffffffffffffff000000000000000000000000606086901b1660228201527f830000000000000000000000000000000000000000000000000000000000000060368201527fffffff000000000000000000000000000000000000000000000000000000000060e885901b166037820152603a01613bed565b6040517fda0000000000000000000000000000000000000000000000000000000000000060208201527f940000000000000000000000000000000000000000000000000000000000000060218201527fffffffffffffffffffffffffffffffffffffffff000000000000000000000000606086901b1660228201527f840000000000000000000000000000000000000000000000000000000000000060368201527fffffffff0000000000000000000000000000000000000000000000000000000060e085901b166037820152603b0160405160208183030381529060405290505b80516020909101209392505050565b600066ffffffffffffff604984901c1660ff604185901c161b808203613fb8576000915050610709565b612710613fff60a286901c168402046401ffffffff608186901c16420362ffffff60b087901c16613fe982846155fa565b613ff39190615693565b9050808311614003576000614007565b8083035b93505080840383811115614019578093505b50505092915050565b60d082901c6103ff1660c883901c60ff161b613fff60a284901c16612710838202048084018381101561405757505050610709565b608186901c6401ffffffff164203925066ffffffffffffff604987901c1660ff604188901c161b60b087901c62ffffff1661409285856155fa565b61409c9190615693565b6140a6919061581c565b9350808411156140b4578093505b6103ff60e287901c1660ff60da88901c161b925082841115614019575090949350505050565b6040805161016081018252600080825260208201819052918101919091526060810161419b604080516102008101825260008082526020808301829052828401829052606083018290526080830182905260a0830182905260c0830182905260e0830182905283518085018552828152808201839052610100840152835180850190945281845283015290610120820190815260006020820181905260408201819052606082018190526080820181905260a0820181905260c09091015290565b8152604080516101a08101825260008082526020828101829052928201819052606082018190526080820181905260a0820181905260c0820181905260e082018190526101008201819052610120820181905261014082018190526101608201819052610180820152910190815260200161427e604051806101c0016040528060008152602001600081526020016000815260200160008152602001600081526020016000815260200160008152602001600081526020016000815260200160008152602001600081526020016000815260200160008152602001600081525090565b81526020016142bc6040518060c001604052806000815260200160008152602001600081526020016000815260200160008152602001600081525090565b815260200161430960405180610100016040528060008152602001600081526020016000815260200160008152602001600081526020016000815260200160008152602001600081525090565b81526020016143166143d5565b815260200161436c60405180610120016040528060001515815260200160008152602001600081526020016000815260200160008152602001600081526020016000815260200160008152602001600081525090565b81526020016143d0604051806101600160405280600015158152602001600081526020016000815260200160008152602001600081526020016000815260200160008152602001600081526020016000815260200160008152602001600081525090565b905290565b6040518060e001604052806000815260200160008152602001600081526020016000815260200160008152602001600081526020016143d06040518060e00160405280600081526020016000815260200160008152602001600081526020016000815260200160008152602001600081525090565b6001600160a01b038116811461445f57600080fd5b50565b60006020828403121561447457600080fd5b8135610f3c8161444a565b80516001600160a01b0316825260208101516144a660208401826001600160a01b03169052565b5060408101516144c160408401826001600160a01b03169052565b5060608101516144dc60608401826001600160a01b03169052565b5060808101516144f760808401826001600160a01b03169052565b5060a081015161451260a08401826001600160a01b03169052565b5060c081015161452d60c08401826001600160a01b03169052565b5060e081015161454860e08401826001600160a01b03169052565b506101008181015180516001600160a01b0390811685840152602082015116610120850152505061012081015161014061459a8185018380516001600160a01b03908116835260209182015116910152565b820151610180848101919091526101608301516101a080860191909152908301516101c080860191909152908301516101e08086019190915290830151610200850152909101516102209092019190915250565b805161ffff168252602081015161460b602084018261ffff169052565b506040810151614621604084018261ffff169052565b506060810151614637606084018261ffff169052565b50608081015161464d608084018261ffff169052565b5060a081015161466360a084018261ffff169052565b5060c081015161467960c084018261ffff169052565b5060e081015161468f60e084018261ffff169052565b50610100818101516001600160a01b03811684830152505061012081810151908301526101408082015190830152610160808201516001600160a01b03811682850152505061018090810151910152565b80516001600160a01b031682526020810151614700602084018215159052565b506040810151614714604084018215159052565b506060810151614727606084018261447f565b50608081015161473b6102a08401826145ee565b5060a08181015180516104408501526020808201516104608601526040808301516104808701526060808401516104a08801526080808501516104c0890152848601516104e089015260c0808601516105008a015260e0808701516105208b0152610100808801516105408c0152610120808901516105608d0152610140808a01516105808e01526101608a01516105a08e01526101808a01516105c08e01526101a0909901516105e08d0152838b015180516106008e0152808901516106208e0152808801516106408e0152808701516106608e0152808601516106808e01528a01516106a08d0152828b015180516106c08e0152808901516106e08e0152808801516107008e0152808701516107208e0152808601516107408e0152808b01516107608e0152808501516107808e01528301516107a08d0152818b015180516107c08e0152808901516107e08e0152808801516108008e0152808701516108208e0152808601516108408e0152808b01516108608e015284015180516108808e0152808901516108a08e0152808801516108c08e0152808701516108e08e0152808601516109008e0152808b01516109208e01528401516109408d0152808b0151805115156109608e0152808901516109808e0152808801516109a08e0152808701516109c08e0152808601516109e08e0152808b0151610a008e015280850151610a208e015280840151610a408e0152820151610a608d01529988015180511515610a808d015296870151610aa08c015294860151610ac08b015292850151610ae08a015290840151610b0089015294830151610b2088015293820151610b4087015292810151610b6086015291820151610b8085015291810151610ba08401520151610bc090910152565b610be0810161070982846146e0565b6000602082840312156149eb57600080fd5b5035919050565b805182526020810151614a1060208401826001600160a01b03169052565b506040810151614a24604084018215159052565b506060810151614a38606084018215159052565b506080818101519083015260a0808201519083015260c0808201519083015260e0808201519083015261010080820151908301526101208082015190830152610140808201519083015261016090810151910152565b610d608101614a9d82856149f2565b610f3c6101808301846146e0565b60008060408385031215614abe57600080fd5b8235614ac98161444a565b946020939093013593505050565b7f4e487b7100000000000000000000000000000000000000000000000000000000600052604160045260246000fd5b6060810181811067ffffffffffffffff82111715614b2657614b26614ad7565b60405250565b60a0810181811067ffffffffffffffff82111715614b2657614b26614ad7565b7fffffffffffffffffffffffffffffffffffffffffffffffffffffffffffffffe0601f830116810181811067ffffffffffffffff82111715614b9057614b90614ad7565b6040525050565b604051610220810167ffffffffffffffff81118282101715614bbb57614bbb614ad7565b60405290565b604051610120810167ffffffffffffffff81118282101715614bbb57614bbb614ad7565b604051610160810167ffffffffffffffff81118282101715614bbb57614bbb614ad7565b6040516101a0810167ffffffffffffffff81118282101715614bbb57614bbb614ad7565b604051610200810167ffffffffffffffff81118282101715614bbb57614bbb614ad7565b600067ffffffffffffffff821115614c6b57614c6b614ad7565b5060051b60200190565b600082601f830112614c8657600080fd5b81356020614c9382614c51565b604051614ca08282614b4c565b83815260059390931b8501820192828101915086841115614cc057600080fd5b8286015b84811015614ce4578035614cd78161444a565b8352918301918301614cc4565b509695505050505050565b600060208284031215614d0157600080fd5b813567ffffffffffffffff811115614d1857600080fd5b611c4d84828501614c75565b600081518084526020808501945080840160005b83811015614d5f57614d4b8783516146e0565b610be0969096019590820190600101614d38565b509495945050505050565b602081526000610f3c6020830184614d24565b80516001600160a01b031682526020810151614da460208401826001600160a01b03169052565b506040810151614dbf60408401826001600160a01b03169052565b506060810151614dda60608401826001600160a01b03169052565b506080810151614df560808401826001600160a01b03169052565b5060a081015160a083015260c081015160c083015260e081015160e083015261010080820151818401525061012080820151614e348285018215159052565b50505050565b61014081016107098284614d7d565b815181526020808301518183015260408084015181840152606080850151818501526080808601518186015260a0808701518187015260c0808801518051828901529586015160e0880152938501516101008701529184015161012086015283015161014085015282015161016084015201516101808201526101a08101610709565b602080825282518282018190526000919060409081850190868401855b82811015614f2157614f1184835180516001600160a01b031682526020908101511515910152565b9284019290850190600101614ee9565b5091979650505050505050565b60008060408385031215614f4157600080fd5b823567ffffffffffffffff80821115614f5957600080fd5b614f6586838701614c75565b9350602091508185013581811115614f7c57600080fd5b85019050601f81018613614f8f57600080fd5b8035614f9a81614c51565b604051614fa78282614b4c565b82815260059290921b8301840191848101915088831115614fc757600080fd5b928401925b82841015614fe557833582529284019290840190614fcc565b80955050505050509250929050565b6020808252825182820181905260009190848201906040850190845b8181101561503757615023838551614d7d565b928401926101409290920191600101615010565b50909695505050505050565b6000806040838503121561505657600080fd5b50508035926020909101359150565b604080825283519082018190526000906020906060840190828701845b828110156150a9576150958483516149f2565b610180939093019290840190600101615082565b505050838103828501526150bd8186614d24565b9695505050505050565b6000806000606084860312156150dc57600080fd5b83356150e78161444a565b95602085013595506040909401359392505050565b81516001600160a01b0316815260208083015115159082015260408101610709565b60008060006060848603121561513357600080fd5b505081359360208301359350604090920135919050565b6020808252825182820181905260009190848201906040850190845b818110156150375783516001600160a01b031683529284019291840191600101615166565b6020808252825182820181905260009190848201906040850190845b81811015615037578351835292840192918401916001016151a7565b6000602082840312156151d557600080fd5b5051919050565b8051801515811461118857600080fd5b80516111888161444a565b600060e0828403121561520957600080fd5b60405160e0810181811067ffffffffffffffff8211171561522c5761522c614ad7565b8060405250809150825161523f8161444a565b808252506020830151602082015260408301516040820152606083015160608201526080830151608082015260a083015160a082015260c083015160c08201525092915050565b60008183036101a081121561529a57600080fd5b6040516152a681614b06565b8092508351815260a07fffffffffffffffffffffffffffffffffffffffffffffffffffffffffffffffe0830112156152dd57600080fd5b60405191506152eb82614b2c565b60208401516152f98161444a565b8083525060408401516020830152606084015160408301526080840151606083015260a084015160808301528160208201526153388560c086016151f7565b6040820152505092915050565b60006103a0828403121561535857600080fd5b615360614b97565b825181526020808401519082015260408084015190820152606080840151908201526080808401519082015260a0808401519082015260c0808401519082015260e08084015190820152610100808401519082015261012080840151908201526101408084015190820152610160808401519082015261018080840151908201526101a080840151908201526101c080840151908201526101e08084015190820152905061020061541384828501615286565b9082015292915050565b6000808284036104c081121561543257600080fd5b6101208082121561544257600080fd5b61544a614bc1565b9150615455856151dc565b82526020850151602083015260408501516040830152606085015160608301526080850151608083015260a085015160a083015260c085015160c083015260e085015160e08301526101008086015181840152508193506154b886828701615345565b925050509250929050565b6000808284036105008112156154d857600080fd5b610160808212156154e857600080fd5b6154f0614be5565b91506154fb856151dc565b82526020850151602083015260408501516040830152606085015160608301526080850151608083015260a085015160a083015260c085015160c083015260e085015160e08301526101008086015181840152506101208086015181840152506101408086015181840152508193506154b886828701615345565b60006020828403121561558857600080fd5b8151610f3c8161444a565b7f4e487b7100000000000000000000000000000000000000000000000000000000600052601160045260246000fd5b60007f800000000000000000000000000000000000000000000000000000000000000082036155f3576155f3615593565b5060000390565b808202811582820484141761070957610709615593565b8181038181111561070957610709615593565b600080600080600060a0868803121561563c57600080fd5b5050835160208501516040860151606087015160809097015192989197509594509092509050565b7f4e487b7100000000000000000000000000000000000000000000000000000000600052601260045260246000fd5b6000826156c9577f4e487b7100000000000000000000000000000000000000000000000000000000600052601260045260246000fd5b500490565b7f4e487b7100000000000000000000000000000000000000000000000000000000600052603260045260246000fd5b60007fffffffffffffffffffffffffffffffffffffffffffffffffffffffffffffffff820361572e5761572e615593565b5060010190565b6000806040838503121561574857600080fd5b505080516020909101519092909150565b600060033d11156105c25760046000803e5060005160e01c90565b600060443d10156157825790565b6040517ffffffffffffffffffffffffffffffffffffffffffffffffffffffffffffffffc803d016004833e81513d67ffffffffffffffff81602484011181841117156157d057505050505090565b82850191508151818111156157e85750505050505090565b843d87010160208285010111156158025750505050505090565b61581160208286010187614b4c565b509095945050505050565b8082018082111561070957610709615593565b805160ff8116811461118857600080fd5b60006101a0828403121561585357600080fd5b61585b614c09565b615864836151ec565b8152615872602084016151ec565b6020820152615883604084016151ec565b6040820152615894606084016151ec565b60608201526158a5608084016151ec565b60808201526158b660a084016151ec565b60a08201526158c760c0840161582f565b60c08201526158d860e0840161582f565b60e08201526101008381015190820152610120808401519082015261014080840151908201526101608084015190820152610180928301519281019290925250919050565b60006040828403121561592f57600080fd5b6040516040810181811067ffffffffffffffff8211171561595257615952614ad7565b806040525080915082516159658161444a565b815260208301516159758161444a565b6020919091015292915050565b6000610240828403121561599557600080fd5b61599d614c2d565b6159a6836151ec565b81526159b4602084016151ec565b60208201526159c5604084016151ec565b60408201526159d6606084016151ec565b60608201526159e7608084016151ec565b60808201526159f860a084016151ec565b60a0820152615a0960c084016151ec565b60c0820152615a1a60e084016151ec565b60e0820152610100615a2e8582860161591d565b90820152610140615a418585830161591d565b61012083015261018080850151828401526101a09150818501516101608401526101c080860151828501526101e09150818601518385015261020086015181850152506102208501518184015250508091505092915050565b61ffff81811683821602808216919082811461194457611944615593565b60008060008060808587031215615ace57600080fd5b50508251602084015160408501516060909501519196909550909250905056fea26469706673582212208d49674634b65fcc2d2a491de5d3637348d9c36c525e099c2ed77a67180451a364736f6c63430008150033"
}